:1000000072C000009DC000009BC0000099C00000AD
:1000100097C0000095C0000093C0000091C0000090
:100020008FC000008DC000008BC0000089C00000A0
:1000300087C0000085C0000083C0000081C00000B0
:100040007FC000007DC000007BC0000079C00000C0
:1000500077C0000075C0000073C0000077C50000C5
:100060006FC0000084C60000D2C7000069C0000055
:1000700067C0000065C0000063C0000061C00000F0
:100080005FC000005DC000005BC0000059C0000000
:10009000AEC60000FBC7000053C0000051C0000006
:1000A0004FC000004DC000004BC0000049C0000020
:1000B00047C0000045C0000043C0000041C0000030
:1000C0003FC000003DC000003BC00000D0C60000A3
:1000D0000C94850835C000000AC700000C94C408C1
:1000E0002FC00000BF0A11241FBECFEFD1E2DEBF38
:1000F000CDBF00E00CBF12E0A0E0B2E0ECEFF8E111
:1001000000E00BBF02C007900D92A035B107D9F7F0
:100110001BBE16E0A0E5B2E001C01D92AF35B107ED
:10012000E1F710E0C6EED0E004C02297FE010E9485
:10013000780CC43ED107C9F70E94F60B0C947C0CD6
:100140005FCF873071F1883070F4833051F18430A3
:1001500028F4813031F18230C8F415C0853009F1BE
:100160008630C0F415C08B30E1F08C3028F4893033
:10017000C1F08A3098F410C08A3A99F08B3B89F02C
:100180008C3071F40EC0109236030DC082E009C0AD
:1001900084E007C086E005C088E003C08AE001C0B3
:1001A0008EEF80933603809136030895823459F0A0
:1001B000833428F4803439F0813439F404C0833432
:1001C00011F0843411F48093440380914403089522
:1001D000CF93DF9315C080911803C82FD0E087ED2F
:1001E00095E00E94460AC05BDD4F8883809118032A
:1001F000873C19F41092180303C08F5F8093180393
:1002000087ED95E00E94140A892B29F7DF91CF91A1
:100210000895AF92BF92CF92DF92EF92FF920F9329
:100220001F93CF93DF93EC018B0104C089EF95E01E
:100230000E94460A89EF95E00E94140A18161906D2
:10024000ACF3CCD45B016C01780100E010E089EFE5
:1002500095E00E94140A892B49F089EF95E00E94ED
:10026000460A8883882311F081E00BC0B7D46A194D
:100270007B098C099D096E157F058007910738F36E
:1002800080E0DF91CF911F910F91FF90EF90DF9071
:10029000CF90BF90AF9008958F929F92AF92BF92F0
:1002A000CF92DF92EF92FF920F931F93CF93DF9342
:1002B000EC01062F7A0104C08BE196E00E94460A09
:1002C0008BE196E00E94140A18161906ACF386D446
:1002D0004B015C0110E06701EE24FF248BE196E006
:1002E0000E94140A892B49F08BE196E00E94460A8D
:1002F000FE01E10FF11D80831F5F011751F06ED4E5
:10030000681979098A099B096C157D058E059F0579
:1003100028F3812FDF91CF911F910F91FF90EF90E4
:10032000DF90CF90BF90AF909F908F9008958F9265
:100330009F92AF92BF92CF92DF92EF92FF920F9374
:100340001F93CF93DF93EC01062F7A0104C08DE356
:1003500096E00E94460A8DE396E00E94140A181661
:100360001906ACF33BD44B015C0110E06701EE24AD
:10037000FF248DE396E00E94140A892B49F08DE357
:1003800096E00E94460AFE01E10FF11D80831F5F87
:10039000011751F023D4681979098A099B096C1552
:1003A0007D058E059F0528F3812FDF91CF911F9149
:1003B0000F91FF90EF90DF90CF90BF90AF909F9004
:1003C0008F90089589EF95E040E855E260E070E095
:1003D00026E29FC78DE396E040E855E260E070E0DA
:1003E00026E297C78BE196E040E855E260E070E0D6
:1003F0000AC7E8DFEFDFF6DF87ED95E040E855E27A
:1004000060E070E000C7EF92FF920F931F93CF93CD
:10041000DF937C01C0E0D0E0062F10E00CC0F701B4
:10042000EC0FFD1F6081772767FD70958DE396E0E7
:100430000E947F0A2196C017D1078CF3DF91CF91DC
:100440001F910F91FF90EF900895EF92FF920F93FD
:100450001F93CF93DF937C01C0E0D0E0062F10E024
:100460000CC0F701EC0FFD1F6081772767FD7095C9
:100470008BE196E00E947F0A2196C017D1078CF38A
:10048000DF91CF911F910F91FF90EF9008954091D0
:1004900038024F5FA9E3B3E020E030E090E0F901DB
:1004A000E85DFD4F80818C932230310519F4409333
:1004B0003B0305C02730310511F4909340038D9123
:1004C00098272F5F3F4F2830310549F7909341031C
:1004D00089E393E068E0B9DF809138028F5F809311
:1004E00038020895682F772767FD709589EF95E0AA
:1004F0000C947F0A8EE3F6CF8EE5F4CF1092AD0315
:1005000080E3F0CFDF93CF930F92CDB7DEB78CE0CF
:10051000E9DF8FEF8983CE01019668E873E179DE28
:10052000882389F18981873279F1883280F4833296
:1005300059F1843238F4813239F18232D0F4803288
:1005400001F522C0853201F18632B8F414C08E3232
:10055000D9F08F3238F48932B9F0893280F08A329A
:1005600081F412C08E3381F08E3581F08F3249F4E0
:100570000BC082E209C084E207C086E205C088E2BF
:1005800003C08EEF01C08DEF80934303809143033E
:100590000F90CF91DF910895EF92FF920F931F93E9
:1005A0001DD37B018C0180911D0390911E03A091AE
:1005B0001F03B0912003A8019701281B390B4A0B98
:1005C0005B0BDA01C90180529F4BA240B04048F05A
:1005D000E0921D03F0921E0300931F03109320036B
:1005E00091DF8091210390912203A0912303B09188
:1005F0002403A8019701281B390B4A0B5B0BDA0176
:10060000C901805F964CA240B04040F0E0922103C7
:10061000F092220300932303109324038091250377
:1006200090912603A0912703B0912803A801970178
:10063000281B390B4A0B5B0BDA01C901805C9E4C0D
:10064000A240B04040F0E0922503F09226030093D0
:100650002703109328031F910F91FF90EF900895A7
:10066000CF93DF930CC089EF95E010D7FE01EB5BD1
:10067000FC4F80832196D093AA03C093A90389EFEE
:1006800095E0D2D6C091A903D091AA03892B59F73E
:100690002091AB033091AC03C217D307A9F0F90145
:1006A000EB5BFC4F80812F5F3F4F3093AC03209377
:1006B000AB038F3849F482E015DF60ED77E080E02E
:1006C00090E09AD28EE50EDFDF91CF910895EF9200
:1006D000FF920F931F93CF93DF937C01C0E0D0E094
:1006E000062F10E00BC0F701EC0FFD1F608177278C
:1006F00067FD709587ED95E002D72196C017D10769
:1007000094F3DF91CF911F910F91FF90EF90089597
:1007100080931D0260931E0290911B0220911C0287
:10072000920F980F960F90933803909590931F0215
:1007300089E192E067E0CBCF80E292E068E085DE7D
:100740008CEF6FEFE5CFDF93CF93CDB7DEB72A976E
:100750000FB6F894DEBF0FBECDBF99DECE01019675
:1007600068E048E853E198DD9FEF909331038630CD
:1007700038F08C81809330038E818093310305C0E3
:100780008DEF8093300365E0C3DF8091300360918B
:100790003103BEDF2A960FB6F894DEBF0FBECDBF81
:1007A000CF91DF910895DF93CF93CDB7DEB72A972E
:1007B0000FB6F894DEBF0FBECDBF90913802909374
:1007C00032029F5F9093380280933502E0E3F2E0BB
:1007D00090E08191982782E0E733F807D1F7909372
:1007E00041039083CF01079768E02FDE80913802A4
:1007F0008F3F11F410923802CE01019666E048E86E
:1008000053E14ADD863058F08C81882319F48CEF4F
:100810006D8107C0813019F48DEF64E002C08DEF67
:1008200065E076DF2A960FB6F894DEBF0FBECDBF27
:10083000CF91DF910895809304029091020220915C
:100840000302920F980F80910502980F8091060283
:10085000980F9093290390959093060280E092E080
:1008600067E035CF8DE092E066E0CDDD8CEF67E0AC
:10087000E2CFDF93CF93CDB7DEB72A970FB6F894C8
:10088000DEBF0FBECDBF87E092E066E0BCDDCE01EB
:10089000019666E048E853E14ADD863020F08C811D
:1008A00050DC67E0C8DF2A960FB6F894DEBF0FBEB3
:1008B000CDBFCF91DF910895DF93CF93CDB7DEB752
:1008C0002A970FB6F894DEBF0FBECDBF482FAAE21D
:1008D000B3E020E030E090E0F901ED5EFD4F808173
:1008E0008C932430310519F440932E0305C0253034
:1008F000310511F490932F038D9198272F5F3F4F6F
:100900002630310549F7909337038AE293E066E099
:100910007ADDCE01019666E048E853E108DD8630D5
:1009200018F08C810EDC01C08DEF67E084DF2A9621
:100930000FB6F894DEBF0FBECDBFCF91DF91089503
:1009400080933D0290913B0220913C02920F980FC0
:1009500080913E02980F90934203909590933F02AE
:1009600089E392E067E0B3CEFF920F931F93DF938A
:10097000CF930F92CDB7DEB7BDDDC4DD8E3319F056
:1009800067E0DEDF2DC08FEF89838E010F5F1F4F81
:10099000C80160E375E73DDC8823D1F089818138A7
:1009A000C1F4C80160ED77E034DC882389F0F98078
:1009B00082E098DDC80160ED77E02BDC882359F0F8
:1009C0008981803119F48F2DF1DB03C081E101C0F1
:1009D0008DEF67E0B5DF64EF71E080E090E00CD16F
:1009E0008BDD0F90CF91DF911F910F91FF900895B4
:1009F000F5D060932503709326038093270390938B
:100A00002803609321037093220380932303909320
:100A1000240360931D0370931E0380931F03909320
:100A20002003E0911B03F0E0E05BFD4F2481858112
:100A30009381923071F09330B1F09130F1F4233022
:100A400029F0243021F02130C1F48ECF57CD82E03F
:100A500049CD223031F0233029F0213071F490E07B
:100A60002BCF07CFFFCE223031F0233029F02130B9
:100A700021F490E098CE67CE5FCE0895909119034F
:100A800080911803981709F45DC0E92FF0E0E05B4E
:100A9000FD4F4081973C19F41092190303C09F5FEA
:100AA0009093190380911A038230E9F0833030F477
:100AB000882351F0813009F045C00AC08330E9F045
:100AC000843009F03FC024C04F3FE1F581E01DC0F4
:100AD0004F3F81F482E080931A0380911903825082
:100AE00080931B03089540931C0383E080931A03B3
:100AF000453140F110921A03089580911C038150F2
:100B000080931C038130F1F484E080931A030895EC
:100B1000E0911B032E2F2E5FF0E0E05BFD4F328152
:100B2000320F90E007C0E22FF0E0E05BFD4F8081E4
:100B3000980F2F5F2317B9F79095941709F458DF92
:100B400010921A0308958CDD99DF26CD1F920F9223
:100B50000FB60F9211242F933F938F939F93AF93D0
:100B6000BF938091B2039091B303A091B403B0916D
:100B7000B5033091B6030196A11DB11D232F2D5F42
:100B80002D3720F02D570196A11DB11D2093B603DE
:100B90008093B2039093B303A093B403B093B503CF
:100BA0008091AE039091AF03A091B003B091B103D7
:100BB0000196A11DB11D8093AE039093AF03A09346
:100BC000B003B093B103BF91AF919F918F913F91CB
:100BD0002F910F900FBE0F901F9018958FB7F8941C
:100BE0002091B2033091B3034091B4035091B50307
:100BF0008FBFB901CA0108959B01AC017FB7F8947A
:100C00008091AE039091AF03A091B003B091B10376
:100C100066B5A89B05C06F3F19F00196A11DB11DD7
:100C20007FBFBA2FA92F982F8827860F911DA11D4E
:100C3000B11D62E0880F991FAA1FBB1F6A95D1F7EB
:100C4000BC012DC0FFB7F8948091AE039091AF0323
:100C5000A091B003B091B103E6B5A89B05C0EF3FEA
:100C600019F00196A11DB11DFFBFBA2FA92F982F12
:100C700088278E0F911DA11DB11DE2E0880F991FDD
:100C8000AA1FBB1FEA95D1F7861B970B885E93407E
:100C9000C8F2215030404040504068517C4F2115EF
:100CA00031054105510571F60895789484B5826047
:100CB00084BD84B5816084BD85B5826085BD85B500
:100CC000816085BDEEE6F0E0808181608083E1E8AF
:100CD000F0E01082808182608083808181608083E7
:100CE000E0E8F0E0808181608083E1EBF0E08081EA
:100CF00084608083E0EBF0E0808181608083E1E9C3
:100D0000F0E0808182608083808181608083E0E97F
:100D1000F0E0808181608083E1EAF0E080818260A0
:100D20008083808181608083E0EAF0E0808181605F
:100D30008083E1E2F1E08081826080838081816054
:100D40008083E0E2F1E0808181608083EAE7F0E087
:100D500080818460808380818260808380818160E3
:100D600080838081806880831092C10008951F92E3
:100D70000F920FB60F920BB60F9211242F933F9341
:100D80004F938F939F93EF93FF938091C00082FDC9
:100D90001DC04091C6002091F7033091F8032F5FEA
:100DA0003F4F2F7330708091F9039091FA03281709
:100DB000390771F0E091F703F091F803E954FC4F23
:100DC00040833093F8032093F70302C08091C6005C
:100DD000FF91EF919F918F914F913F912F910F90A4
:100DE0000BBE0F900FBE0F901F90189508951F9285
:100DF0000F920FB60F920BB60F9211242F933F93C1
:100E00004F938F939F93EF93FF938091C80082FD40
:100E10001DC04091CE0020917F04309180042F5F4F
:100E20003F4F2F7330708091810490918204281776
:100E3000390771F0E0917F04F0918004E15CFB4F91
:100E400040833093800420937F0402C08091CE00C1
:100E5000FF91EF919F918F914F913F912F910F9023
:100E60000BBE0F900FBE0F901F90189508951F9204
:100E70000F920FB60F920BB60F9211242F933F9340
:100E80004F938F939F93EF93FF938091D00082FDB8
:100E90001DC04091D60020910705309108052F5FB5
:100EA0003F4F2F7330708091090590910A052817E4
:100EB000390771F0E0910705F0910805E953FB4F00
:100EC0004083309308052093070502C08091D60027
:100ED000FF91EF919F918F914F913F912F910F90A3
:100EE0000BBE0F900FBE0F901F90189508951F9284
:100EF0000F920FB60F920BB60F9211242F933F93C0
:100F00004F938F939F93EF93FF938091300182FDD6
:100F10001DC04091360120918F05309190052F5FC3
:100F20003F4F2F7330708091910590919205281753
:100F3000390771F0E0918F05F0919005E15BFA4F70
:100F400040833093900520938F0502C08091360135
:100F5000FF91EF919F918F914F913F912F910F9022
:100F60000BBE0F900FBE0F901F901895E091E305F8
:100F7000F091E405E05CFF4F8191919120813181F6
:100F8000805C9F4F821B930B60E470E066D4892BDA
:100F900009F01ED9E0910506F0910606E05CFF4FCE
:100FA0008191919120813181805C9F4F821B930BB5
:100FB00060E470E052D4892B09F018DFE091270635
:100FC000F0912806E05CFF4F819191912081318161
:100FD000805C9F4F821B930B60E470E03ED4892BB2
:100FE00009F044DFE0914906F0914A06E05CFF4FCA
:100FF0008191919120813181805C9F4F821B930B65
:1010000060E470E02AD4892B09F070CF08951F9214
:101010000F920FB60F920BB60F9211242F933F939E
:101020008F939F93EF93FF9320913B0430913C0467
:1010300080913D0490913E042817390731F4809146
:10104000C1008F7D8093C10014C0E0913D04F091F8
:101050003E04E550FC4F208180913D0490913E0478
:1010600001968F73907090933E0480933D0420937B
:10107000C600FF91EF919F918F913F912F910F901B
:101080000BBE0F900FBE0F901F9018951F920F92DE
:101090000FB60F920BB60F9211242F933F938F939D
:1010A0009F93EF93FF932091C3043091C4048091E8
:1010B000C5049091C6042817390731F48091C900FE
:1010C0008F7D8093C90014C0E091C504F091C604DF
:1010D000ED57FB4F20818091C5049091C604019685
:1010E0008F7390709093C6048093C5042093CE00B4
:1010F000FF91EF919F918F913F912F910F900BBE98
:101100000F900FBE0F901F9018951F920F920FB661
:101110000F920BB60F9211242F933F938F939F93AF
:10112000EF93FF9320914B0530914C0580914D0535
:1011300090914E052817390731F48091D1008F7DA9
:101140008093D10014C0E0914D05F0914E05E55F0C
:10115000FA4F208180914D0590914E0501968F7335
:10116000907090934E0580934D052093D600FF918B
:10117000EF919F918F913F912F910F900BBE0F9008
:101180000FBE0F901F9018951F920F920FB60F92DF
:101190000BB60F9211242F933F938F939F93EF934E
:1011A000FF932091D3053091D4058091D50590917E
:1011B000D6052817390731F4809131018F7D80934E
:1011C000310114C0E091D505F091D605ED56FA4FE6
:1011D00020818091D5059091D60501968F739070EE
:1011E0009093D6058093D50520933601FF91EF911A
:1011F0009F918F913F912F910F900BBE0F900FBE3B
:101200000F901F901895AF92BF92DF92EF92FF92CE
:101210000F931F93CF93DF93EC017A018B01DD24B1
:10122000403081EE580780E0680780E0780711F0D1
:10123000DD24D39491E0A92EB12CEC89FD89DD2029
:1012400069F0C50108A002C0880F991F0A94E2F74F
:10125000808360E079E08DE390E005C0108260E873
:1012600074E88EE190E0A80197010AD32150304044
:1012700040405040569547953795279580E120305E
:10128000380720F0DD2011F0DD24D7CFE889F98977
:101290003083EA89FB89208319A2EE89FF89408186
:1012A00021E030E0C9010C8C02C0880F991F0A941C
:1012B000E2F7482B4083EE89FF894081C9010D8CFC
:1012C00002C0880F991F0A94E2F7482B4083EE89E9
:1012D000FF894081C9010E8C02C0880F991F0A94B2
:1012E000E2F7482B4083EE89FF8980810F8C02C092
:1012F000220F331F0A94E2F7209528232083DF91E1
:10130000CF911F910F91FF90EF90DF90BF90AF9022
:101310000895AF92BF92CF92DF92EF92FF920F9318
:101320001F93CF93DF93EC017A018B01C22EDD2452
:10133000403081EE580780E0680780E0780711F0C0
:10134000DD24D39471E0A72EB12CEC89FD89DD203A
:1013500069F0C50108A002C0880F991F0A94E2F73E
:10136000808360E079E08DE390E005C0108260E862
:1013700074E88EE190E0A801970182D221503040BC
:1013800040405040569547953795279580E120304D
:10139000380720F0DD2011F0DD24D7CFE889F98966
:1013A0003083EA89FB892083E88DF98DC082EE893C
:1013B000FF89408121E030E0C9010C8C02C0880F18
:1013C000991F0A94E2F7482B4083EE89FF894081F8
:1013D000C9010D8C02C0880F991F0A94E2F7482BAF
:1013E0004083EE89FF894081C9010E8C02C0880FBD
:1013F000991F0A94E2F7482B4083EE89FF89808188
:101400000F8C02C0220F331F0A94E2F72095282385
:101410002083DF91CF911F910F91FF90EF90DF908C
:10142000CF90BF90AF900895DC011C96ED91FC9198
:101430001D97E05CFF4F8191919120813181805C0B
:101440009F4F821B930B60E470E007C2DC011C9687
:10145000ED91FC911D97E05CFF4F20813181E054BC
:10146000F040DF01AE5BBF4F8D919C911197281723
:10147000390719F42FEF3FEF07C08D919C91E80FCA
:10148000F91F8081282F30E0C9010895DC011C96E6
:10149000ED91FC911D97E05CFF4F20813181E0547C
:1014A000F040DF01AE5BBF4F8D919C9111972817E3
:1014B000390719F42FEF3FEF10C08D919C911197D0
:1014C000E80FF91F20818D919C91119701968F73E0
:1014D000907011969C938E9330E0C9010895DC01C1
:1014E00091968C919197882339F05496ED91FC91C7
:1014F0005597808186FFF9CF91961C920895CF93DE
:10150000DF93EC01EE85FF85E05CFF4F20813181A8
:10151000E054F0402F5F3F4F2F733070DF01AE5B20
:10152000BF4F8D919C91119728173907D1F3E05C3B
:10153000FF4F80819181E054F040E80FF91F6083F4
:10154000EE85FF85E05CFF4F31832083EE89FF89C4
:10155000208181E090E00F8C02C0880F991F0A94CF
:10156000E2F7282B208381E089A3EC89FD89808123
:101570008064808381E090E0DF91CF9108951F9394
:101580001092DA051092D90528EE33E040E050E0E1
:101590002093DB053093DC054093DD055093DE0599
:1015A00064E472E07093D8056093D70587EB93E00D
:1015B0009093E4058093E3058BEF93E09093E60529
:1015C0008093E50585EC90E09093E8058093E7052E
:1015D00084EC90E09093EA058093E90580EC90E03C
:1015E0009093EC058093EB0581EC90E09093EE05F1
:1015F0008093ED0582EC90E09093F0058093EF05E9
:1016000086EC90E09093F2058093F10514E010933E
:10161000F305B3E0B093F405A7E0A093F505F5E07A
:10162000F093F605E1E0E093F7051092FC051092C7
:10163000FB052093FD053093FE054093FF05509375
:1016400000067093FA056093F9058FE394E0909398
:1016500006068093050683E894E09093080680933D
:1016600007068DEC90E090930A06809309068CECB7
:1016700090E090930C0680930B0688EC90E090939A
:101680000E0680930D0689EC90E0909310068093EF
:101690000F068AEC90E090931206809311068EEC70
:1016A00090E0909314068093130610931506B09360
:1016B0001606A0931706F0931806E09319061092E9
:1016C0001E0610921D0620931F063093200640939D
:1016D00021065093220670931C0660931B0687EC2C
:1016E00094E090932806809327068BE095E09093F2
:1016F0002A068093290685ED90E090932C0680932E
:101700002B0684ED90E090932E0680932D0680EDBD
:1017100090E09093300680932F0681ED90E09093B7
:1017200032068093310682ED90E0909334068093E8
:10173000330686ED90E0909336068093350610933D
:101740003706B0933806A0933906F0933A06E09333
:101750003B061092400610923F06209341063093BC
:101760004206409343065093440670933E066093AE
:101770003D068FE495E090934A068093490683E9FD
:1017800095E090934C0680934B0685E391E090930F
:101790004E0680934D0684E391E09093500680932B
:1017A0004F0680E391E0909352068093510681E3C7
:1017B00091E0909354068093530682E391E09093D6
:1017C00056068093550686E391E0909358068093E1
:1017D000570610935906B0935A06A0935B06F093F0
:1017E0005C06E0935D061F9108950895CF93DF9303
:1017F0005CDAFBDF0E94F901C6EBD7E0A4D92097A1
:10180000E9F3B4DBFBCFCF92DF92EF92FF920F931D
:101810001F93CF93DF937C016B018A01C0E0D0E07E
:101820000FC0D6016D916D01D701ED91FC91019032
:10183000F081E02DC7011995C80FD91F0150104044
:101840000115110571F7CE01DF91CF911F910F9115
:10185000FF90EF90DF90CF90089597FB092E072619
:101860000AD077FD04D02ED006D000201AF470954F
:1018700061957F4F0895F6F7909581959F4F089554
:10188000A1E21A2EAA1BBB1BFD010DC0AA1FBB1F84
:10189000EE1FFF1FA217B307E407F50720F0A21BF6
:1018A000B30BE40BF50B661F771F881F991F1A9463
:1018B00069F760957095809590959B01AC01BD018D
:1018C000CF010895AA1BBB1B51E107C0AA1FBB1F74
:1018D000A617B70710F0A61BB70B881F991F5A95BC
:1018E000A9F780959095BC01CD010895EE0FFF1FDB
:0C18F0000590F491E02D1994F894FFCFBE
:1018FC00FFFF040200000001100011002201100083
:10190C00120023011000100122FFFF04030000004D
:10191C00ED080050000000B2ED080051000000007E
:10192C00ED0801500001000001FFFF040100000060
:10193C00000000007F0A030C140A460A260A6F0AEC
:00000001FF
