:1000000072C000009DC000009BC0000099C00000AD
:1000100097C0000095C0000093C0000091C0000090
:100020008FC00000EAC5000015C6000040C60000F1
:1000300087C0000085C0000083C0000081C00000B0
:100040007FC000007DC000007BC0000079C00000C0
:1000500077C0000075C0000073C0000055C60000E6
:100060006FC0000062C700000C94E50869C0000082
:1000700067C0000065C0000063C0000061C00000F0
:100080005FC000005DC000005BC0000059C0000000
:100090008CC700000C94240953C0000051C000001C
:1000A0004FC000004DC000004BC0000049C0000020
:1000B00047C0000045C0000043C0000041C0000030
:1000C0003FC000003DC000003BC00000AEC70000C4
:1000D0000C94630935C00000E8C700000C94A20925
:1000E0002FC000009D0B11241FBECFEFD1E2DEBF59
:1000F000CDBF00E00CBF12E0A0E0B2E0E2E5FBE122
:1001000000E00BBF02C007900D92A034B107D9F7F1
:100110001BBE16E0A0E4B2E001C01D92AD32B107F3
:10012000E1F710E0C6EED0E004C02297FE010E9485
:10013000A30DC43ED107C9F70E94D40C0C94A70D9F
:100140005FCF873071F1883070F4833051F18430A3
:1001500028F4813031F18230C8F415C0853009F1BE
:100160008630C0F415C08B30E1F08C3028F4893033
:10017000C1F08A3098F410C08A3A99F08B3B89F02C
:100180008C3071F40EC0109220030DC082E009C0C3
:1001900084E007C086E005C088E003C08AE001C0B3
:1001A0008EEF80932003809120030895823459F0CC
:1001B000833428F4803439F0813439F404C0833432
:1001C00011F0843411F4809336038091360308953E
:1001D000CF93DF9315C080910803C82FD0E085EA44
:1001E00095E00E94240BC05CDD4F8883809108035A
:1001F000873C19F41092080303C08F5F80930803B3
:1002000085EA95E00E94F20A892B29F7DF91CF91C8
:100210000895AF92BF92CF92DF92EF92FF920F9329
:100220001F93CF93DF93EC018B0104C087EC95E023
:100230000E94240B87EC95E00E94F20A181619061A
:10024000ACF3AAD55B016C01780100E010E087EC0B
:1002500095E00E94F20A892B39F087EC95E00E9424
:10026000240B888381E00BC097D56A197B098C0920
:100270009D096E157F058007910748F380E0DF91A7
:10028000CF911F910F91FF90EF90DF90CF90BF9093
:10029000AF9008958F929F92AF92BF92CF92DF92CC
:1002A000EF92FF920F931F93CF93DF93EC01062FF2
:1002B0007A0104C089EE95E00E94240B89EE95E056
:1002C0000E94F20A18161906ACF366D54B015C01C0
:1002D00010E06701EE24FF2489EE95E00E94F20A07
:1002E000892B49F089EE95E00E94240BFE01E10F75
:1002F000F11D80831F5F011751F04ED568197909F0
:100300008A099B096C157D058E059F0528F3812FB1
:10031000DF91CF911F910F91FF90EF90DF90CF90E1
:10032000BF90AF909F908F9008958F929F92AF92C1
:10033000BF92CF92DF92EF92FF920F931F93CF93D2
:10034000DF93EC01062F7A0104C08BE096E00E9457
:10035000240B8BE096E00E94F20A18161906ACF303
:100360001BD54B015C0110E06701EE24FF248BE0FC
:1003700096E00E94F20A892B49F08BE096E00E94F9
:10038000240BFE01E10FF11D80831F5F011751F067
:1003900003D5681979098A099B096C157D058E05B5
:1003A0009F0528F3812FDF91CF911F910F91FF902F
:1003B000EF90DF90CF90BF90AF909F908F90089577
:1003C0008BE096E040E855E260E070E026E20C94B5
:1003D000670A89EE95E040E855E260E070E0F1C719
:1003E000EF92FF920F931F93CF93DF937C01C0E0B6
:1003F000D0E0062F10E00CC0F701EC0FFD1F60816C
:10040000772767FD70958BE096E00E945D0B219643
:10041000C017D1078CF3DF91CF911F910F91FF90FF
:10042000EF900895DF93CF93CDB7DEB72A970FB63D
:10043000F894DEBF0FBECDBF8BE092E066E0D0DF68
:10044000CE01019666E048E853E16FDF2A960FB6C9
:10045000F894DEBF0FBECDBFCF91DF910895EF922C
:10046000FF920F931F93CF93DF938C01C0E0D0E0F6
:10047000E62EFF2414C0F8016081772767FD709590
:1004800089EE95E00E945D0BF80161918F0177275D
:1004900067FD709585EA95E00E945D0B2196CE156B
:1004A000DF054CF3DF91CF911F910F91FF90EF90FB
:1004B0000895409127024F5FABE2B3E020E030E0C7
:1004C00090E0F901E95EFD4F80818C932230310587
:1004D00019F440932D0305C02730310511F4909392
:1004E00032038D9198272F5F3F4F2830310549F710
:1004F000909333038BE293E068E0B1DF80912702B1
:100500008F5F809327020895DF93CF93CDB7DEB737
:100510002A970FB6F894DEBF0FBECDBFCADFCE015B
:10052000019668E048E853E1B5DE863048F08C81FA
:10053000883239F0893229F0803219F08EEF01C00B
:100540008DEF809322032A960FB6F894DEBF0FBE7C
:10055000CDBFCF91DF910895682F772767FD709504
:1005600087EC95E00C945D0B8EE5F6CF80E3F4DF2D
:1005700068EE73E080E090E01DD482E0EDCFDF9381
:10058000CF930F92CDB7DEB78CE0E6DF8FEF898394
:10059000CE01019660ED77E03CDE8823A9F18981E8
:1005A000873299F1883280F4833279F1843238F4D9
:1005B000813259F18232D0F4803221F526C0853261
:1005C00021F18632B8F414C08E32F9F08F3238F44B
:1005D0008932D9F0893280F08A32A1F416C08E3384
:1005E000A1F08E3559F08F3269F40FC082E20DC050
:1005F00084E20BC086E209C088E207C081E08093F4
:10060000370305C08EEF01C08DEF809335038091D5
:1006100035030F90CF91DF910895EF92FF920F93E2
:100620001F93BAD37B018C0180910D0390910E032F
:10063000A0910F03B0911003A8019701281B390B5B
:100640004A0B5B0BDA01C90180529F4BA240B040BC
:1006500048F0E0920D03F0920E0300930F03109305
:1006600010038DDF8091110390911203A091130369
:10067000B0911403A8019701281B390B4A0B5B0B9F
:10068000DA01C901805F964CA240B04040F0E09290
:100690001103F0921203009313031093140380913B
:1006A000150390911603A0911703B0911803A801A8
:1006B0009701281B390B4A0B5B0BDA01C901805CDF
:1006C0009E4CA240B04040F0E0921503F092160319
:1006D00000931703109318031F910F91FF90EF9051
:1006E000089587EC95E040E855E260E070E026E28E
:1006F000EED660ED77E080E090E05CD382E02CDF26
:1007000068EE73E080E090E055D38EE525CFE9DF19
:1007100057DE5FDE85EA95E040E855E260E070E094
:1007200050C6EF92FF920F931F93CF93DF937C01FC
:10073000C0E0D0E0062F10E00BC0F701EC0FFD1F6A
:100740006081772767FD709585EA95E0B6D7219699
:10075000C017D10794F3DF91CF911F910F91FF90B4
:10076000EF900895482F20E030E090E070E012C054
:100770002430310519F44093080205C026303105B4
:1007800011F490930A02F901EC5FFD4F80819827E4
:100790002F5F3F4F261737075CF39093190384E0D0
:1007A00092E067E0BECFDF93CF93CDB7DEB72A9755
:1007B0000FB6F894DEBF0FBECDBF482FAAE1B3E05D
:1007C00020E030E090E0F901EF5EFD4F80818C93F6
:1007D0002430310519F440931E0305C0253031053E
:1007E00011F490931F038D9198272F5F3F4F263070
:1007F000310549F7909321038AE193E066E0F0DD4B
:10080000CE01019666E048E853E18FDD863018F0AE
:100810008C8197DC01C08DEF67E0A4DF2A960FB6CC
:10082000F894DEBF0FBECDBFCF91DF910895482F62
:1008300020E030E090E070E012C02430310519F47F
:1008400040932C0205C02630310511F490932E02FE
:10085000F901E85DFD4F808198272F5F3F4F2617F4
:1008600037075CF39093340388E292E067E059CF56
:10087000DF93CF930F92CDB7DEB7809137038823F4
:1008800019F17DDE8E3F11F471DE02C067E0CFDF2B
:100890008FEF8983CE01019660E27EE4BADC882383
:1008A00039F08981813841F481DC67E0C0DF04C020
:1008B0008DEF67E0BCDF58DE89818F3F19F076DC71
:1008C00082E04ADE109237030F90CF91DF910895B6
:1008D000EF92FF920F931F93DF93CF93CDB7DEB7C5
:1008E0002A970FB6F894DEBF0FBECDBF582F4091A8
:1008F0002702A3E2B3E020E030E090E0F901E15EFE
:10090000FD4F80818C932230310519F440932503EB
:100910000BC02530310519F45093280305C027304A
:10092000310511F490932A038D9198272F5F3F4F43
:100930002830310519F79093330383E293E068E0A0
:100940008EDD809127028F5F809327028E010F5FDB
:100950001F4FC80168E048E853E19CDC863088F00E
:100960007801E80EF11C09C0F80161918F01772729
:1009700067FD709585EA95E0A0D60E151F05A1F7D5
:1009800001C0C2DD2A960FB6F894DEBF0FBECDBF00
:10099000CF91DF911F910F91FF90EF900895FF92FB
:1009A0000F931F93F9D160931503709316038093EF
:1009B00017039093180360931103709312038093AD
:1009C00013039093140360930D0370930E038093AD
:1009D0000F0390931003E0910B03F0E0E05CFD4FF8
:1009E00003811481F58085EA95E060E072E00E9461
:1009F000470D85EA95E0602F60D685EA95E0612F86
:100A00005CD685EA95E06F2D58D6023069F0033048
:100A1000B1F00130E9F4113019F01230C9F402C01C
:100A200027DF16C0ACDD14C0113019F0123081F48C
:100A300004C08F2D90E0B7DE0BC0F4DC09C012308B
:100A400031F0133029F48F2D90E042DF01C05CDDDE
:100A50001F910F91FF9008959091090380910803D1
:100A6000981709F45DC0E92FF0E0E05CFD4F40818C
:100A7000973C19F41092090303C09F5F90930903F8
:100A800080910A038230E9F0833030F4882351F0FA
:100A9000813009F045C00AC08330E9F0843009F0A4
:100AA0003FC024C04F3FE1F581E01DC04F3F81F4BE
:100AB00082E080930A0380910903825080930B03A4
:100AC000089540930C0383E080930A03453140F17D
:100AD00010920A03089580910C03815080930C03B7
:100AE0008130F1F484E080930A030895E0910B03D0
:100AF0002E2F2E5FF0E0E05CFD4F3281320F90E050
:100B000007C0E22FF0E0E05CFD4F8081980F2F5F7F
:100B10002317B9F79095941709F441DF10920A034F
:100B200008959ADF7ACD0F931F93CF93DF93FC0143
:100B3000738D76957170A685B7859585772329F095
:100B40008C91892309F454C004C08C91892309F045
:100B50004FC08389948920E001972FEF8F3F920740
:100B6000D9F7C589D689A685B785158560E031E0B6
:100B700040E050E000E0CE01202F01972FEF8F3FA3
:100B80009207D9F78C91812311F0632B03C0832F37
:100B900080956823330F4F5F5F4F4830510559F7F9
:100BA0008789908D20E001972FEF8F3F9207D9F72B
:100BB0007111609580917A0320917B0390E00196FA
:100BC0008F73907030E08217930779F0E0917A0389
:100BD000F0E0E65CFC4F608380917A0390E0019640
:100BE0008F73907080937A0303C0838D8160838FAD
:100BF000DF91CF911F910F9108951F920F920FB621
:100C00000F920BB60F9211242F933F934F935F9344
:100C10006F937F938F939F93AF93BF93EF93FF93C4
:100C20008091380390913903009709F07CDFFF91A0
:100C3000EF91BF91AF919F918F917F916F915F9154
:100C40004F913F912F910F900BBE0F900FBE0F90C1
:100C50001F9018951F920F920FB60F920BB60F921E
:100C600011242F933F934F935F936F937F938F93B1
:100C70009F93AF93BF93EF93FF938091380390912D
:100C80003903009709F04FDFFF91EF91BF91AF91CA
:100C90009F918F917F916F915F914F913F912F9194
:100CA0000F900BBE0F900FBE0F901F9018951F92C4
:100CB0000F920FB60F920BB60F9211242F933F9302
:100CC0004F935F936F937F938F939F93AF93BF9354
:100CD000EF93FF938091380390913903009709F0C7
:100CE00022DFFF91EF91BF91AF919F918F917F9103
:100CF0006F915F914F913F912F910F900BBE0F908D
:100D00000FBE0F901F9018951F920F920FB60F9263
:100D100011242F933F938F939F93AF93BF93809111
:100D2000800390918103A0918203B091830330915D
:100D300084030196A11DB11D232F2D5F2D3720F0B7
:100D40002D570196A11DB11D20938403809380032C
:100D500090938103A0938203B093830380917C03DB
:100D600090917D03A0917E03B0917F030196A11D18
:100D7000B11D80937C0390937D03A0937E03B09379
:100D80007F03BF91AF919F918F913F912F910F90D2
:100D90000FBE0F901F9018958FB7F8942091800385
:100DA0003091810340918203509183038FBFB90139
:100DB000CA0108959B01AC017FB7F89480917C0330
:100DC00090917D03A0917E03B0917F0366B5A89BAF
:100DD00005C06F3F19F00196A11DB11D7FBFBA2F4D
:100DE000A92F982F8827860F911DA11DB11D62E0A4
:100DF000880F991FAA1FBB1F6A95D1F7BC012DC090
:100E0000FFB7F89480917C0390917D03A0917E03BD
:100E1000B0917F03E6B5A89B05C0EF3F19F001969E
:100E2000A11DB11DFFBFBA2FA92F982F88278E0FA4
:100E3000911DA11DB11DE2E0880F991FAA1FBB1FC4
:100E4000EA95D1F7861B970B885E9340C8F2215034
:100E500030404040504068517C4F211531054105DC
:100E6000510571F60895789484B5826084BD84B587
:100E7000816084BD85B5826085BD85B5816085BD95
:100E8000EEE6F0E0808181608083E1E8F0E01082AE
:100E9000808182608083808181608083E0E8F0E0EF
:100EA000808181608083E1EBF0E0808184608083D9
:100EB000E0EBF0E0808181608083E1E9F0E0808117
:100EC00082608083808181608083E0E9F0E08081BE
:100ED00081608083E1EAF0E08081826080838081AC
:100EE00081608083E0EAF0E0808181608083E1E2DC
:100EF000F1E0808182608083808181608083E0E294
:100F0000F1E0808181608083EAE7F0E080818460A5
:100F10008083808182608083808181608083808102
:100F2000806880831092C10008951F920F920FB6BF
:100F30000F920BB60F9211242F933F934F938F93E1
:100F40009F93EF93FF938091C00082FD1DC040915D
:100F5000C6002091C5033091C6032F5F3F4F2F730A
:100F600030708091C7039091C8032817390771F03A
:100F7000E091C503F091C603EB57FC4F40833093DB
:100F8000C6032093C50302C08091C600FF91EF9174
:100F90009F918F914F913F912F910F900BBE0F908A
:100FA0000FBE0F901F90189508951F920F920FB6C5
:100FB0000F920BB60F9211242F933F934F938F9361
:100FC0009F93EF93FF938091C80082FD1DC04091D5
:100FD000CE0020914D0430914E042F5F3F4F2F7370
:100FE000307080914F04909150042817390771F0A8
:100FF000E0914D04F0914E04E35FFB4F408330934A
:101000004E0420934D0402C08091CE00FF91EF91D9
:101010009F918F914F913F912F910F900BBE0F9009
:101020000FBE0F901F90189508951F920F920FB644
:101030000F920BB60F9211242F933F934F938F93E0
:101040009F93EF93FF938091D00082FD1DC040914C
:10105000D6002091D5043091D6042F5F3F4F2F73D7
:1010600030708091D7049091D8042817390771F017
:10107000E091D504F091D604EB56FB4F40833093BA
:10108000D6042093D50402C08091D600FF91EF9141
:101090009F918F914F913F912F910F900BBE0F9089
:1010A0000FBE0F901F90189508951F920F920FB6C4
:1010B0000F920BB60F9211242F933F934F938F9360
:1010C0009F93EF93FF938091300182FD1DC040916B
:1010D000360120915D0530915E052F5F3F4F2F73E4
:1010E000307080915F05909160052817390771F085
:1010F000E0915D05F0915E05E35EFA4F4083309329
:101100005E0520935D0502C080913601FF91EF914D
:101110009F918F914F913F912F910F900BBE0F9008
:101120000FBE0F901F901895E091B105F091B20598
:10113000E05CFF4F8191919120813181805C9F4FD4
:10114000821B930B60E470E0B3D4892B09F040D884
:10115000E091D305F091D405E05CFF4F819191912E
:1011600020813181805C9F4F821B930B60E470E093
:101170009FD4892B09F018DFE091F505F091F60571
:10118000E05CFF4F8191919120813181805C9F4F84
:10119000821B930B60E470E08BD4892B09F044DF51
:1011A000E0911706F0911806E05CFF4F8191919154
:1011B00020813181805C9F4F821B930B60E470E043
:1011C00077D4892B09F070CF08951F920F920FB634
:1011D0000F920BB60F9211242F933F938F939F93EF
:1011E000EF93FF932091090430910A0480910B043E
:1011F00090910C042817390731F48091C1008F7D3C
:101200008093C10014C0E0910B04F0910C04E753EB
:10121000FC4F208180910B0490910C0401968F73F8
:10122000907090930C0480930B042093C600FF9160
:10123000EF919F918F913F912F910F900BBE0F9047
:101240000FBE0F901F9018951F920F920FB60F921E
:101250000BB60F9211242F933F938F939F93EF938D
:10126000FF93209191043091920480919304909186
:1012700094042817390731F48091C9008F7D809339
:10128000C90014C0E0919304F0919404EF5AFB4F0D
:101290002081809193049091940401968F739070B3
:1012A00090939404809393042093CE00FF91EF9148
:1012B0009F918F913F912F910F900BBE0F900FBE7A
:1012C0000F901F9018951F920F920FB60F920BB6AA
:1012D0000F9211242F933F938F939F93EF93FF933C
:1012E0002091190530911A0580911B0590911C05DC
:1012F0002817390731F48091D1008F7D8093D10078
:1013000014C0E0911B05F0911C05E752FB4F2081B2
:1013100080911B0590911C0501968F73907090939E
:101320001C0580931B052093D600FF91EF919F91A0
:101330008F913F912F910F900BBE0F900FBE0F908A
:101340001F9018951F920F920FB60F920BB60F9227
:1013500011242F933F938F939F93EF93FF932091AB
:10136000A1053091A2058091A3059091A4052817AD
:10137000390731F4809131018F7D8093310114C0A0
:10138000E091A305F091A405EF59FA4F20818091D7
:10139000A3059091A40501968F7390709093A40576
:1013A0008093A30520933601FF91EF919F918F9138
:1013B0003F912F910F900BBE0F900FBE0F901F907B
:1013C0001895AF92BF92DF92EF92FF920F931F9307
:1013D000CF93DF93EC017A018B01DD24403081EE65
:1013E000580780E0680780E0780711F0DD24D39487
:1013F00091E0A92EB12CEC89FD89DD2069F0C501B1
:1014000008A002C0880F991F0A94E2F7808360E069
:1014100079E08DE390E005C0108260E874E88EE129
:1014200090E0A801970157D32150304040405040F0
:10143000569547953795279580E12030380720F05D
:10144000DD2011F0DD24D7CFE889F9893083EA89DE
:10145000FB89208319A2EE89FF89408121E030E0D9
:10146000C9010C8C02C0880F991F0A94E2F7482B1F
:101470004083EE89FF894081C9010D8C02C0880F2D
:10148000991F0A94E2F7482B4083EE89FF89408137
:10149000C9010E8C02C0880F991F0A94E2F7482BED
:1014A0004083EE89FF8980810F8C02C0220F331F99
:1014B0000A94E2F7209528232083DF91CF911F9192
:1014C0000F91FF90EF90DF90BF90AF900895AF9293
:1014D000BF92CF92DF92EF92FF920F931F93CF9321
:1014E000DF93EC017A018B01C22EDD24403081EEC6
:1014F000580780E0680780E0780711F0DD24D39476
:1015000071E0A72EB12CEC89FD89DD2069F0C501C1
:1015100008A002C0880F991F0A94E2F7808360E058
:1015200079E08DE390E005C0108260E874E88EE118
:1015300090E0A8019701CFD2215030404040504068
:10154000569547953795279580E12030380720F04C
:10155000DD2011F0DD24D7CFE889F9893083EA89CD
:10156000FB892083E88DF98DC082EE89FF89408157
:1015700021E030E0C9010C8C02C0880F991F0A9449
:10158000E2F7482B4083EE89FF894081C9010D8C29
:1015900002C0880F991F0A94E2F7482B4083EE8916
:1015A000FF894081C9010E8C02C0880F991F0A94DF
:1015B000E2F7482B4083EE89FF8980810F8C02C0BF
:1015C000220F331F0A94E2F7209528232083DF910E
:1015D000CF911F910F91FF90EF90DF90CF90BF9030
:1015E000AF900895DC011C96ED91FC911D97E05C95
:1015F000FF4F8191919120813181805C9F4F821BAF
:10160000930B60E470E054C2DC011C96ED91FC91F8
:101610001D97E05CFF4F20813181E054F040DF01F5
:10162000AE5BBF4F8D919C9111972817390719F424
:101630002FEF3FEF07C08D919C91E80FF91F80813C
:10164000282F30E0C9010895DC011C96ED91FC9132
:101650001D97E05CFF4F20813181E054F040DF01B5
:10166000AE5BBF4F8D919C9111972817390719F4E4
:101670002FEF3FEF10C08D919C911197E80FF91F4C
:1016800020818D919C91119701968F739070119686
:101690009C938E9330E0C9010895DC0191968C9162
:1016A0009197882339F05496ED91FC91559780815C
:1016B00086FFF9CF91961C920895CF93DF93EC01AA
:1016C000EE85FF85E05CFF4F20813181E054F040E2
:1016D0002F5F3F4F2F733070DF01AE5BBF4F8D9197
:1016E0009C91119728173907D1F3E05CFF4F808157
:1016F0009181E054F040E80FF91F6083EE85FF858B
:10170000E05CFF4F31832083EE89FF89208181E0F7
:1017100090E00F8C02C0880F991F0A94E2F7282BE3
:10172000208381E089A3EC89FD89808180648083A6
:1017300081E090E0DF91CF9108951F931092A8056A
:101740001092A70528EE33E040E050E02093A90571
:101750003093AA054093AB055093AC0563E372E068
:101760007093A6056093A50585E893E09093B20574
:101770008093B10589EC93E09093B4058093B30511
:1017800085EC90E09093B6058093B50584EC90E0ED
:101790009093B8058093B70580EC90E09093BA05DC
:1017A0008093B90581EC90E09093BC058093BB05D4
:1017B00082EC90E09093BE058093BD0586EC90E0AE
:1017C0009093C0058093BF0514E01093C105B3E06A
:1017D000B093C205A7E0A093C305F5E0F093C4055C
:1017E000E1E0E093C5051092CA051092C905209367
:1017F000CB053093CC054093CD055093CE05709327
:10180000C8056093C7058DE094E09093D40580935C
:10181000D30581E594E09093D6058093D5058DECB2
:1018200090E09093D8058093D7058CEC90E090934E
:10183000DA058093D90588EC90E09093DC058093DD
:10184000DB0589EC90E09093DE058093DD058AEC62
:1018500090E09093E0058093DF058EEC90E090930C
:10186000E2058093E1051093E305B093E405A093AE
:10187000E505F093E605E093E7051092EC0510927C
:10188000EB052093ED053093EE054093EF05509363
:10189000F0057093EA056093E90585E994E090937B
:1018A000F6058093F50589ED94E09093F805809313
:1018B000F70585ED90E09093FA058093F90584EDA6
:1018C00090E09093FC058093FB0580ED90E0909371
:1018D000FE058093FD0581ED90E0909300068093D6
:1018E000FF0582ED90E0909302068093010686ED5D
:1018F00090E0909304068093030610930506B0933E
:101900000606A0930706F0930806E09309061092D6
:101910000E0610920D0620930F063093100640938A
:1019200011065093120670930C0660930B068DE11E
:1019300095E0909318068093170681E695E09093C2
:101940001A068093190685E391E090931C06809314
:101950001B0684E391E090931E0680931D0680E3AE
:1019600091E09093200680931F0681E391E090938D
:1019700022068093210682E391E0909324068093CF
:10198000230686E391E09093260680932506109324
:101990002706B0932806A0932906F0932A06E09321
:1019A0002B061F9108950895CF93DF935CDAFBDF38
:1019B0000E948703C4E9D8E0B4D82097E9F3B4DBE8
:1019C000FBCFCF92DF92EF92FF920F931F93CF93B3
:1019D000DF937C016B018A01C0E0D0E00FC0D6012B
:1019E0006D916D01D701ED91FC910190F081E02D99
:1019F000C7011995C80FD91F0150104001151105D5
:101A000071F7CE01DF91CF911F910F91FF90EF9071
:101A1000DF90CF900895EF92FF920F931F938C0168
:101A2000DC01ED91FC910190F081E02D6DE01995C4
:101A30007C01D801ED91FC910190F081E02DC8016D
:101A40006AE019959C012E0D3F1DC9011F910F9150
:101A5000FF90EF900895CF93DF93EC01611571052E
:101A600019F420E030E00FC0DB010D900020E9F711
:101A70001197A61BB70BE881F9810280F381E02D55
:101A8000AD0119959C01C901DF91CF910895EF92A5
:101A9000FF920F931F937C01DEDF8C01C701BBDF38
:101AA000080F191FC8011F910F91FF90EF90089523
:101AB00097FB092E07260AD077FD04D02ED006D03A
:101AC00000201AF4709561957F4F0895F6F7909570
:101AD00081959F4F0895A1E21A2EAA1BBB1BFD0101
:101AE0000DC0AA1FBB1FEE1FFF1FA217B307E407FD
:101AF000F50720F0A21BB30BE40BF50B661F771F55
:101B0000881F991F1A9469F7609570958095909534
:101B10009B01AC01BD01CF010895AA1BBB1B51E184
:101B200007C0AA1FBB1FA617B70710F0A61BB70B4D
:101B3000881F991F5A95A9F780959095BC01CD01F2
:101B40000895EE0FFF1F0590F491E02D1994F8947D
:021B5000FFCFC5
:101B520076616C00FFFF040200000001100011001A
:101B620022011000100122ED08005100000000EDDA
:101B72000801500001000001FFFF04010000000005
:101B82000000005D0BE10CF20A240B040B4D0B006C
:00000001FF
