:1000000072C000009CC000009AC0000098C00000B0
:1000100096C0000094C0000092C0000090C0000094
:100020008EC0000068C1000093C10000BEC1000086
:1000300086C0000084C0000082C0000080C00000B4
:100040007EC000007CC000007AC0000078C00000C4
:1000500076C0000074C0000072C00000D3C1000070
:100060006EC00000E1C200002FC4000068C00000A4
:1000700066C0000064C0000062C0000060C00000F4
:100080005EC000005CC000005AC0000058C0000004
:100090000BC3000058C4000052C0000050C0000054
:1000A0004EC000004CC000004AC0000048C0000024
:1000B00046C0000044C0000042C0000040C0000034
:1000C0003EC000003CC000003AC000002DC300004C
:1000D00079C4000034C0000067C30000B2C400004F
:1000E0002EC000001C0711241FBECFEFD1E2DEBFDF
:1000F000CDBF00E00CBF12E0A0E0B2E0E4EBF1E124
:1001000000E00BBF02C007900D92A031B107D9F7F4
:100110001BBE15E0A0E1B2E001C01D92AA30B107FC
:10012000E1F710E0C6EED0E004C02297FE010E9485
:10013000D408C43ED107C9F7B6D70C94D80860CF0D
:10014000EF92FF920F931F9380911402813001F17F
:10015000A1D19B01AC018091100290911102A0915C
:100160001202B091130279018A01E81AF90A0A0B06
:100170001B0BD801C701805D9740A040B04040F004
:1001800020931002309311024093120250931302F5
:100190001F910F91FF90EF90089582E894E0A1D510
:1001A000892B19F081E080931402CACF88EE94E085
:1001B00040E855E260E070E026E208C586EC94E095
:1001C00040E855E260E070E07BC4682F772767FD68
:1001D000709584EA94E0F0C584EA94E040E855E242
:1001E00060E070E026E2F2D460ED77E080E090E03D
:1001F0005FD182E0EADF68EE73E080E090E058D102
:100200008EE5E3DF68EE73E080E090E051C1E4DF6B
:10021000CDDFD4DF82E894E040E855E260E070E0B2
:100220004FC40F931F93CF93DF93FC01738D76958B
:100230007170A685B7859585772329F08C918923E0
:1002400009F454C004C08C91892309F04FC08389FC
:10025000948920E001972FEF8F3F9207D9F7C58946
:10026000D689A685B785158560E031E040E050E08D
:1002700000E0CE01202F01972FEF8F3F9207D9F793
:100280008C91812311F0632B03C0832F8095682309
:10029000330F4F5F5F4F4830510559F78789908D75
:1002A00020E001972FEF8F3F9207D9F771116095EA
:1002B000809157022091580290E001968F739070C0
:1002C00030E08217930779F0E0915702F0E0E95EA1
:1002D000FD4F60838091570290E001968F7390707C
:1002E0008093570203C0838D8160838FDF91CF910C
:1002F0001F910F9108951F920F920FB60F920BB698
:100300000F9211242F933F934F935F936F937F939B
:100310008F939F93AF93BF93EF93FF9380911502B9
:1003200090911602009709F07CDFFF91EF91BF9149
:10033000AF919F918F917F916F915F914F913F917D
:100340002F910F900BBE0F900FBE0F901F9018951E
:100350001F920F920FB60F920BB60F9211242F938C
:100360003F934F935F936F937F938F939F93AF933D
:10037000BF93EF93FF93809115029091160200971F
:1003800009F04FDFFF91EF91BF91AF919F918F9156
:100390007F916F915F914F913F912F910F900BBE85
:1003A0000F900FBE0F901F9018951F920F920FB6CF
:1003B0000F920BB60F9211242F933F934F935F939D
:1003C0006F937F938F939F93AF93BF93EF93FF931D
:1003D0008091150290911602009709F022DFFF919B
:1003E000EF91BF91AF919F918F917F916F915F91AD
:1003F0004F913F912F910F900BBE0F900FBE0F901A
:100400001F9018951F920F920FB60F9211242F93E1
:100410003F938F939F93AF93BF9380915D02909191
:100420005E02A0915F02B09160023091610201967C
:10043000A11DB11D232F2D5F2D3720F02D570196C3
:10044000A11DB11D2093610280935D0290935E0215
:10045000A0935F02B09360028091590290915A027A
:10046000A0915B02B0915C020196A11DB11D809329
:10047000590290935A02A0935B02B0935C02BF9121
:10048000AF919F918F913F912F910F900FBE0F9041
:100490001F9018958FB7F89420915D0230915E02FD
:1004A00040915F02509160028FBFB901CA01089567
:1004B0009B01AC017FB7F8948091590290915A0248
:1004C000A0915B02B0915C0266B5A89B05C06F3F2E
:1004D00019F00196A11DB11D7FBFBA2FA92F982F2A
:1004E0008827860F911DA11DB11D62E0880F991FFD
:1004F000AA1FBB1F6A95D1F7BC012DC0FFB7F894A6
:100500008091590290915A02A0915B02B0915C02D5
:10051000E6B5A89B05C0EF3F19F00196A11DB11DDE
:10052000FFBFBA2FA92F982F88278E0F911DA11DCD
:10053000B11DE2E0880F991FAA1FBB1FEA95D1F7F2
:10054000861B970B885E9340C8F221503040404094
:10055000504068517C4F211531054105510571F618
:100560000895789484B5826084BD84B5816084BD2B
:1005700085B5826085BD85B5816085BDEEE6F0E01C
:10058000808181608083E1E8F0E010828081826078
:100590008083808181608083E0E8F0E080818160F9
:1005A0008083E1EBF0E0808184608083E0EBF0E029
:1005B000808181608083E1E9F0E0808182608083D6
:1005C000808181608083E0E9F0E0808181608083C8
:1005D000E1EAF0E0808182608083808181608083B5
:1005E000E0EAF0E0808181608083E1E2F1E08081F7
:1005F00082608083808181608083E0E2F1E080819D
:1006000081608083EAE7F0E080818460808380817C
:100610008260808380818160808380818068808324
:100620001092C100089508951F920F920FB60F9275
:100630000BB60F9211242F933F934F938F939F9359
:10064000EF93FF938091C00082FD1DC04091C600D2
:100650002091A2023091A3022F5F3F4F2F73307081
:100660008091A4029091A5022817390771F0E091BA
:10067000A202F091A302EE59FD4F40833093A302F2
:100680002093A20202C08091C600FF91EF919F913A
:100690008F914F913F912F910F900BBE0F900FBEF6
:1006A0000F901F90189508951F920F920FB60F92FA
:1006B0000BB60F9211242F933F934F938F939F93D9
:1006C000EF93FF938091C80082FD1DC04091CE0042
:1006D00020912A0330912B032F5F3F4F2F733070EF
:1006E00080912C0390912D032817390771F0E09128
:1006F0002A03F0912B03E651FD4F408330932B03E7
:1007000020932A0302C08091CE00FF91EF919F9128
:100710008F914F913F912F910F900BBE0F900FBE75
:100720000F901F90189508951F920F920FB60F9279
:100730000BB60F9211242F933F934F938F939F9358
:10074000EF93FF938091D00082FD1DC04091D600B1
:100750002091B2033091B3032F5F3F4F2F7330705E
:100760008091B4039091B5032817390771F0E09197
:10077000B203F091B303EE58FC4F40833093B303C0
:100780002093B20302C08091D600FF91EF919F9118
:100790008F914F913F912F910F900BBE0F900FBEF5
:1007A0000F901F90189508951F920F920FB60F92F9
:1007B0000BB60F9211242F933F934F938F939F93D8
:1007C000EF93FF938091300182FD1DC0409136016F
:1007D00020913A0430913B042F5F3F4F2F733070CC
:1007E00080913C0490913D042817390771F0E09105
:1007F0003A04F0913B04E650FC4F408330933B04B5
:1008000020933A0402C080913601FF91EF919F91AD
:100810008F914F913F912F910F900BBE0F900FBE74
:100820000F901F901895E0918E04F0918F04E05C7A
:10083000FF4F8191919120813181805C9F4F821B7C
:10084000930B60E470E065D4892B09F0ECDEE09155
:10085000B004F091B104E05CFF4F8191919120814F
:100860003181805C9F4F821B930B60E470E051D418
:10087000892B09F018DFE091D204F091D304E05CF9
:10088000FF4F8191919120813181805C9F4F821B2C
:10089000930B60E470E03DD4892B09F044DFE091D4
:1008A000F404F091F504E05CFF4F81919191208177
:1008B0003181805C9F4F821B930B60E470E029D4F0
:1008C000892B09F070CF08951F920F920FB60F92E7
:1008D0000BB60F9211242F933F938F939F93EF9317
:1008E000FF932091E6023091E7028091E802909117
:1008F000E9022817390731F48091C1008F7D809378
:10090000C10014C0E091E802F091E902EA55FD4F00
:1009100020818091E8029091E90201968F73907096
:100920009093E9028093E8022093C600FF91EF9133
:100930009F918F913F912F910F900BBE0F900FBE03
:100940000F901F9018951F920F920FB60F920BB633
:100950000F9211242F933F938F939F93EF93FF93C5
:1009600020916E0330916F03809170039091710319
:100970002817390731F48091C9008F7D8093C90011
:1009800014C0E0917003F0917103E25DFC4F20818F
:10099000809170039091710301968F739070909382
:1009A0007103809370032093CE00FF91EF919F918C
:1009B0008F913F912F910F900BBE0F900FBE0F9014
:1009C0001F9018951F920F920FB60F920BB60F92B1
:1009D00011242F933F938F939F93EF93FF93209135
:1009E000F6033091F7038091F8039091F9032817EB
:1009F000390731F48091D1008F7D8093D10014C0EC
:100A0000E091F803F091F903EA54FC4F20818091C2
:100A1000F8039091F90301968F7390709093F90306
:100A20008093F8032093D600FF91EF919F918F91CF
:100A30003F912F910F900BBE0F900FBE0F901F9004
:100A400018951F920F920FB60F920BB60F921124AA
:100A50002F933F938F939F93EF93FF9320917E0467
:100A600030917F0480918004909181042817390788
:100A700031F4809131018F7D8093310114C0E09178
:100A80008004F0918104E25CFB4F2081809180041E
:100A90009091810401968F7390709093810480935C
:100AA000800420933601FF91EF919F918F913F91A8
:100AB0002F910F900BBE0F900FBE0F901F901895A7
:100AC000AF92BF92DF92EF92FF920F931F93CF935B
:100AD000DF93EC017A018B01DD24403081EE580771
:100AE00080E0680780E0780711F0DD24D39491E07E
:100AF000A92EB12CEC89FD89DD2069F0C50108A083
:100B000002C0880F991F0A94E2F7808360E079E0C1
:100B10008DE390E005C0108260E874E88EE190E01B
:100B2000A801970109D321503040404050405695CC
:100B300047953795279580E12030380720F0DD2054
:100B400011F0DD24D7CFE889F9893083EA89FB8960
:100B5000208319A2EE89FF89408121E030E0C9019C
:100B60000C8C02C0880F991F0A94E2F7482B40832F
:100B7000EE89FF894081C9010D8C02C0880F991F41
:100B80000A94E2F7482B4083EE89FF894081C9012E
:100B90000E8C02C0880F991F0A94E2F7482B4083FD
:100BA000EE89FF8980810F8C02C0220F331F0A94C7
:100BB000E2F7209528232083DF91CF911F910F9199
:100BC000FF90EF90DF90BF90AF900895AF92BF92EB
:100BD000CF92DF92EF92FF920F931F93CF93DF9309
:100BE000EC017A018B01C22EDD24403081EE5807E2
:100BF00080E0680780E0780711F0DD24D39471E08D
:100C0000A72EB12CEC89FD89DD2069F0C50108A073
:100C100002C0880F991F0A94E2F7808360E079E0B0
:100C20008DE390E005C0108260E874E88EE190E00A
:100C3000A801970181D22150304040405040569544
:100C400047953795279580E12030380720F0DD2043
:100C500011F0DD24D7CFE889F9893083EA89FB894F
:100C60002083E88DF98DC082EE89FF89408121E0E3
:100C700030E0C9010C8C02C0880F991F0A94E2F77A
:100C8000482B4083EE89FF894081C9010D8C02C049
:100C9000880F991F0A94E2F7482B4083EE89FF8959
:100CA0004081C9010E8C02C0880F991F0A94E2F797
:100CB000482B4083EE89FF8980810F8C02C0220F70
:100CC000331F0A94E2F7209528232083DF91CF91E8
:100CD0001F910F91FF90EF90DF90CF90BF90AF905A
:100CE0000895DC011C96ED91FC911D97E05CFF4F8F
:100CF0008191919120813181805C9F4F821B930B68
:100D000060E470E006C2DC011C96ED91FC911D9739
:100D1000E05CFF4F20813181E054F040DF01AE5BA9
:100D2000BF4F8D919C9111972817390719F42FEF18
:100D30003FEF07C08D919C91E80FF91F8081282F0C
:100D400030E0C9010895DC011C96ED91FC911D97DE
:100D5000E05CFF4F20813181E054F040DF01AE5B69
:100D6000BF4F8D919C9111972817390719F42FEFD8
:100D70003FEF10C08D919C911197E80FF91F2081D2
:100D80008D919C91119701968F73907011969C9301
:100D90008E9330E0C9010895DC0191968C91919772
:100DA000882339F05496ED91FC915597808186FF08
:100DB000F9CF91961C920895CF93DF93EC01EE85C5
:100DC000FF85E05CFF4F20813181E054F0402F5FD0
:100DD0003F4F2F733070DF01AE5BBF4F8D919C9101
:100DE000119728173907D1F3E05CFF4F808191817B
:100DF000E054F040E80FF91F6083EE85FF85E05C6A
:100E0000FF4F31832083EE89FF89208181E090E0CC
:100E10000F8C02C0880F991F0A94E2F7282B2083B9
:100E200081E089A3EC89FD8980818064808381E0F1
:100E300090E0DF91CF9108951F9310928504109256
:100E4000840428EE33E040E050E0209386043093A1
:100E50008704409388045093890464E072E070939F
:100E600083046093820482E692E090938F048093DF
:100E70008E0486EA92E0909391048093900485EC2E
:100E800090E0909393048093920484EC90E090938C
:100E900095048093940480EC90E090939704809361
:100EA000960481EC90E0909399048093980482ECEE
:100EB00090E090939B0480939A0486EC90E090934A
:100EC0009D0480939C0414E010939E04B3E0B093BF
:100ED0009F04A7E0A093A004F5E0F093A104E1E053
:100EE000E093A2041092A7041092A6042093A804F1
:100EF0003093A9044093AA045093AB047093A504C3
:100F00006093A4048AEE92E09093B1048093B004BD
:100F10008EE293E09093B3048093B2048DEC90E062
:100F20009093B5048093B4048CEC90E09093B70454
:100F30008093B60488EC90E09093B9048093B80451
:100F400089EC90E09093BB048093BA048AEC90E023
:100F50009093BD048093BC048EEC90E09093BF040A
:100F60008093BE041093C004B093C104A093C20444
:100F7000F093C304E093C4041092C9041092C8040F
:100F80002093CA043093CB044093CC045093CD04F7
:100F90007093C7046093C60482E793E09093D304F0
:100FA0008093D20486EB93E09093D5048093D4048D
:100FB00085ED90E09093D7048093D60484ED90E083
:100FC0009093D9048093D80480ED90E09093DB0453
:100FD0008093DA0481ED90E09093DD048093DC044B
:100FE00082ED90E09093DF048093DE0486ED90E044
:100FF0009093E1048093E0041093E204B093E3043F
:10100000A093E404F093E504E093E6041092EB046B
:101010001092EA042093EC043093ED044093EE0424
:101020005093EF047093E9046093E8048AEF93E02F
:101030009093F5048093F4048EE394E09093F70486
:101040008093F60485E391E09093F9048093F8048B
:1010500084E391E09093FB048093FA0480E391E0B1
:101060009093FD048093FC0481E391E09093FF044E
:101070008093FE0482E391E0909301058093000544
:1010800086E391E090930305809302051093040595
:10109000B0930505A0930605F0930705E0930805B6
:1010A0001F9108950895CF93DF935BDAFBDFAFD8EC
:1010B000C3E1D4E072D82097E9F3B5DBFBCFCF9240
:1010C000DF92EF92FF920F931F93CF93DF937C01F8
:1010D0006B018A01C0E0D0E00FC0D6016D916D01B7
:1010E000D701ED91FC910190F081E02DC701199598
:1010F000C80FD91F015010400115110571F7CE011D
:10110000DF91CF911F910F91FF90EF90DF90CF90E3
:10111000089597FB092E07260AD077FD04D02ED01C
:1011200006D000201AF4709561957F4F0895F6F768
:10113000909581959F4F0895A1E21A2EAA1BBB1B83
:10114000FD010DC0AA1FBB1FEE1FFF1FA217B30793
:10115000E407F50720F0A21BB30BE40BF50B661FA9
:10116000771F881F991F1A9469F76095709580956D
:1011700090959B01AC01BD01CF010895AA1BBB1B3B
:1011800051E107C0AA1FBB1FA617B70710F0A61B87
:10119000B70B881F991F5A95A9F780959095BC01A8
:1011A000CD010895EE0FFF1F0590F491E02D1994E5
:0411B000F894FFCFE1
:1011B40000000000DC065F087106A3068306CC0667
:00000001FF
