:1000000004C100002FC100002DC100002BC1000061
:1000100029C1000027C1000025C1000023C1000044
:1000200021C10000ACC20000D7C2000002C3000022
:1000300019C1000017C1000015C1000013C1000064
:1000400011C100000FC100000DC100000BC1000074
:1000500009C1000007C1000005C10000F4C4000090
:1000600001C10000E7C600000C946A08FBC0000054
:10007000F9C00000F7C00000F5C00000F3C00000A8
:10008000F1C00000EFC00000EDC00000EBC00000B8
:1000900011C700000C94A908E5C00000E3C00000EF
:1000A000E1C00000DFC00000DDC00000DBC00000D8
:1000B000D9C00000D7C00000D5C00000D3C00000E8
:1000C000D1C00000CFC00000CDC0000033C7000089
:1000D0000C94E808C7C000006DC700000C94270905
:1000E000C1C0000000002100240027002A002D00CC
:1000F0003000330001010000040107010A01000083
:100100002200250028002B002E00310034000201BF
:100110000000050108010B0100002000230026005B
:1001200029002C002F00320000010000030106010D
:10013000090105050505070508080808020202026D
:100140000A0A080804040404010101010101010173
:100150000303030303030303040707070C0C0C0C3E
:100160000C0C0C0C02020202060606060606060627
:100170000B0B0B0B0B0B0B0B0102102020080810B4
:100180002040102040800201020108040201010207
:1001900004081020408080402010080402018004E0
:1001A000020180402010080402010804020101023B
:1001B0000408102040800102040810204080000044
:1001C000090A02080B0C0D070603040100000000D9
:1001D000000000000000000000000000000000001F
:1001E0000000000000000000000011100F000000DF
:1001F00000000000000000000000000000000000FF
:10020000000000004D01970A480111241FBECFEFE6
:10021000D1E2DEBFCDBF00E00CBF13E0A0E0B2E052
:10022000ECE5F9E100E00BBF02C007900D92AA33A4
:10023000B107D9F71BBE16E0AAE3B3E001C01D92D7
:10024000A435B107E1F712E0C8E0D2E004C022977C
:10025000FE010E949E0CC430D107C9F70E94CE0B4C
:100260000C94A20CCDCE8130910549F46F5F7F4F85
:1002700071F483E493E06AE04BE020E0B8C3892B9B
:1002800031F46F5F7F4F19F483E493E03EC2089529
:1002900080E090E06FEF7FEFE6CF81E090E06FEFDE
:1002A0007FEFE1CF8F929F92AF92BF92CF92DF927A
:1002B000EF92FF920F931F93CF93DF93EC01062FE2
:1002C0007A0104C08EEE95E00E941E0A8EEE95E043
:1002D0000E94EC0918161906ACF3FDD34B015C0122
:1002E00010E06701EE24FF248EEE95E00E94EC09F9
:1002F000892B49F08EEE95E00E941E0AFE01E10F67
:10030000F11D80831F5F011751F0E5D3681979094A
:100310008A099B096C157D058E059F0528F3812FA1
:10032000DF91CF911F910F91FF90EF90DF90CF90D1
:10033000BF90AF909F908F9008958EEE95E040E82B
:1003400055E260E070E0C2C7F8DF8CEC95E040E871
:1003500055E260E070E0BAC7EF92FF920F931F93EF
:10036000CF93DF938C01C0E0D0E0E62EFF2414C0D1
:10037000F8016081772767FD70958EEE95E00E9409
:10038000570AF80161918F01772767FD70958CEC12
:1003900095E00E94570A2196CE15DF054CF3DF91B8
:1003A000CF911F910F91FF90EF900895EF92FF92E0
:1003B0000F931F93DF93CF93CDB7DEB72A970FB676
:1003C000F894DEBF0FBECDBF582F40911803AAE3AB
:1003D000B3E020E030E090E0F901E05FFC4F808185
:1003E0008C932230310519F440933C030BC0253027
:1003F000310519F450933F0305C02730310511F43E
:10040000909341038D9198272F5F3F4F28303105FE
:1004100019F7909342038AE393E068E09DDF8091AF
:1004200018038F5F809318038E010F5F1F4FC80161
:1004300068E048E853E136DF8630C0F07801E80E26
:10044000F11C10C0F80161918F01772767FD70954D
:100450008CEC95E00E94570A8CEC95E062EC72E01F
:100460000E94420C0E151F0569F706C08CEC95E042
:1004700061ED72E00E94420C2A960FB6F894DEBF3E
:100480000FBECDBFCF91DF911F910F91FF90EF90E5
:10049000089581E090E08ADF68EE73E080E090E00C
:1004A00028D381E090E082DFFFCF0F931F93CF939B
:1004B000DF93FC01738D76957170A685B785958560
:1004C000772329F08C91892309F454C004C08C91BE
:1004D000892309F04FC08389948920E001972FEF89
:1004E0008F3F9207D9F7C589D689A685B785158527
:1004F00060E031E040E050E000E0CE01202F0197C5
:100500002FEF8F3F9207D9F78C91812311F0632B46
:1005100003C0832F80956823330F4F5F5F4F4830B0
:10052000510559F78789908D20E001972FEF8F3F74
:100530009207D9F7711160958091A1032091A203D0
:1005400090E001968F73907030E08217930779F0F6
:10055000E091A103F0E0EF59FC4F60838091A1038B
:1005600090E001968F7390708093A10303C0838DF8
:100570008160838FDF91CF911F910F9108951F921A
:100580000F920FB60F920BB60F9211242F933F9339
:100590004F935F936F937F938F939F93AF93BF938B
:1005A000EF93FF9380915F0390916003009709F0B0
:1005B0007CDFFF91EF91BF91AF919F918F917F91E0
:1005C0006F915F914F913F912F910F900BBE0F90C4
:1005D0000FBE0F901F9018951F920F920FB60F929B
:1005E0000BB60F9211242F933F934F935F936F930A
:1005F0007F938F939F93AF93BF93EF93FF938091DC
:100600005F0390916003009709F04FDFFF91EF9136
:10061000BF91AF919F918F917F916F915F914F911A
:100620003F912F910F900BBE0F900FBE0F901F9018
:1006300018951F920F920FB60F920BB60F921124BE
:100640002F933F934F935F936F937F938F939F93DA
:10065000AF93BF93EF93FF9380915F0390916003FB
:10066000009709F022DFFF91EF91BF91AF919F9129
:100670008F917F916F915F914F913F912F910F904B
:100680000BBE0F900FBE0F901F901895FC01248594
:10069000922F9A50943060F0822F8253843040F031
:1006A0008C50883088F5EDE6F0E0ADE6B0E004C0AF
:1006B000EBE6F0E0ABE6B0E04081943020F430E0CF
:1006C0002650304015C0223311F487EF1BC023336E
:1006D00011F48BEF17C0243311F48DEF13C02533C1
:1006E00081F0822F8E53883060F430E02E533040FA
:1006F00081E090E002C0880F991F2A95E2F780956B
:1007000001C08EEF84238C930895FC018DE193E06A
:1007100091838083CF01BACF20915F033091600332
:100720002817390731F49091A2038091A1039817FB
:1007300019F42FEF3FEF0FC0E091A203F0E0EF5963
:10074000FC4F20818091A20390E001968F739070FE
:100750008093A20330E0C901089520915F03309196
:1007600060032817390719F020E030E00EC08091AF
:10077000A1032091A20390E0805C9F4F821B91090E
:1007800060E470E00E94530C9C01C90108950F932E
:100790001F93DC0159968D919C915A97892B49F4AE
:1007A00081E090E013969C938E93129720E030E0C6
:1007B00097C00FB7F8945B968C915B975196ED912B
:1007C000FC91529750962C91509781FF8DC080815B
:1007D000822B808359968D919C915A97059620E0A3
:1007E00001972FEF8F3F9207D9F75B968C915B971C
:1007F00081FF35C031E040E050E070E010E0832F31
:1008000090E0862397235196ED91FC915297509654
:100810002C915097892B29F08081209528232083C3
:1008200003C08081822B808359968D919C915A9729
:10083000212F01972FEF8F3F9207D9F7330F4F5F8B
:100840005F4F48305105D9F65196ED91FC91529782
:10085000908150968C9150978095892333C031E0D8
:1008600040E050E070E010E0832F90E08623972373
:100870005196ED91FC91529750962C915097892B5F
:1008800021F08081822B808304C0808120952823E1
:10089000208359968D919C915A97212F01972FEF84
:1008A0008F3F9207D9F7330F4F5F5F4F48305105A5
:1008B000D9F65196ED91FC915297808150969C917A
:1008C0005097892B80830FBF59968D919C915A9791
:1008D00020E001972FEF8F3F9207D9F721E030E01A
:1008E000C9011F910F9108958081209528232083AD
:1008F00071CF20915F03309160032817390749F4C5
:100900009FB7F8941092A1038091A1038093A20352
:100910009FBF089520915F03309160032817390726
:1009200031F49091A2038091A103981719F42FEF4D
:100930003FEF0AC0E091A203F0E0EF59FC4F808145
:10094000282F332727FD3095C90108951F93CF9392
:10095000DF93EC01162F862F60E086D18B8D81FD11
:1009600003C0812F61E033D21C87212F30E0C90101
:1009700088589E4FFC0184918D872E5C3E4FF90173
:100980006491E62FF0E0EE0FFF1FE85EFE4F8591C9
:1009900094919F878E87DF91CF911F9108951F9328
:1009A000CF93DF93EC01162F862F61E05DD160E0DD
:1009B0008B8D81FF61E0812F0AD2212F30E0C901A8
:1009C00088589E4FFC018491888B2E5C3E4FF90124
:1009D0006491E62FF0E0EE0FFF1FE250FF4F85918C
:1009E00094919A8B898BDF91CF911F910895FF92FB
:1009F0000F931F938C01F62EFC011382128288EE56
:100A000093E0A0E0B0E084839583A683B7838DE173
:100A100093E091838083148A138A168A158A108E34
:100A2000178A128E118E838D2170220F8C7F822B5C
:100A3000838FC801642FB3DFC8016F2D87DF1F913B
:100A40000F91FF9008951F920F920FB60F921124ED
:100A50002F933F938F939F93AF93BF938091A7035F
:100A60009091A803A091A903B091AA033091AB0380
:100A70000196A11DB11D232F2D5F2D3720F02D577D
:100A80000196A11DB11D2093AB038093A703909302
:100A9000A803A093A903B093AA038091A303909104
:100AA000A403A091A503B091A6030196A11DB11DB9
:100AB0008093A3039093A403A093A503B093A603EC
:100AC000BF91AF919F918F913F912F910F900FBE4A
:100AD0000F901F9018958FB7F8942091A70330912D
:100AE000A8034091A9035091AA038FBFB901CA017D
:100AF00008959B01AC017FB7F8948091A303909176
:100B0000A403A091A503B091A60366B5A89B05C058
:100B10006F3F19F00196A11DB11D7FBFBA2FA92FFC
:100B2000982F8827860F911DA11DB11D62E0880FA7
:100B3000991FAA1FBB1F6A95D1F7BC012DC0FFB733
:100B4000F8948091A3039091A403A091A503B09180
:100B5000A603E6B5A89B05C0EF3F19F00196A11DBD
:100B6000B11DFFBFBA2FA92F982F88278E0F911D77
:100B7000A11DB11DE2E0880F991FAA1FBB1FEA95B6
:100B8000D1F7861B970B885E9340C8F22150304006
:100B90004040504068517C4F2115310541055105B9
:100BA00071F60895789484B5826084BD84B58160BF
:100BB00084BD85B5826085BD85B5816085BDEEE665
:100BC000F0E0808181608083E1E8F0E01082808144
:100BD00082608083808181608083E0E8F0E08081B2
:100BE00081608083E1EBF0E0808184608083E0EBD2
:100BF000F0E0808181608083E1E9F0E080818260C3
:100C00008083808181608083E0E9F0E08081816081
:100C10008083E1EAF0E0808182608083808181606E
:100C20008083E0EAF0E0808181608083E1E2F1E0AE
:100C3000808182608083808181608083E0E2F1E056
:100C4000808181608083EAE7F0E080818460808336
:100C500080818260808380818160808380818068E0
:100C600080831092C1000895CF93DF93482F50E006
:100C7000CA0188589E4FFC0134914E5C5E4FFA01C8
:100C80008491882369F190E0880F991FFC01EC5151
:100C9000FF4FA591B491FC01E250FF4FC591D49153
:100CA000662351F42FB7F8948C91932F9095892354
:100CB0008C93888189230BC0623061F42FB7F8943C
:100CC0008C91932F909589238C938881832B888393
:100CD0002FBF06C09FB7F8948C91832B8C939FBF36
:100CE000DF91CF910895893009F449C08A30A0F48A
:100CF000843051F1853040F4823079F1833000F551
:100D0000813009F063C026C0873079F1883098F5CA
:100D1000863009F05BC025C08D3009F442C08E30AA
:100D200028F48B30B1F18C30C0F52DC0803109F43E
:100D300042C0813109F445C08F3009F047C037C047
:100D4000809180008F7703C0809180008F7D809399
:100D50008000089584B58F7702C084B58F7D84BDEF
:100D600008958091B0008F7703C08091B0008F7D8F
:100D70008093B0000895809190008F7707C0809194
:100D800090008F7D03C080919000877F80939000BA
:100D900008958091A0008F7707C08091A0008F7D7B
:100DA00003C08091A000877F8093A0000895809168
:100DB00020018F7703C0809120018F7D80932001D7
:100DC000089580912001877F809320010895FF92EC
:100DD0000F931F93F62E482F50E0CA0182549E4F66
:100DE000FC012491CA0188589E4FFC0114914E5C6D
:100DF0005E4FFA0104910023C1F0222311F0822FEB
:100E000072DFE02FF0E0EE0FFF1FE250FF4FA591E1
:100E1000B4919FB7F894FF2021F48C911095812311
:100E200002C08C91812B8C939FBF1F910F91FF90DB
:100E3000089508951F920F920FB60F920BB60F925E
:100E400011242F933F934F938F939F93EF93FF938F
:100E50008091C00082FD1DC04091C6002091EC032E
:100E60003091ED032F5F3F4F2F7330708091EE0371
:100E70009091EF032817390771F0E091EC03F0919E
:100E8000ED03E455FC4F40833093ED032093EC03D6
:100E900002C08091C600FF91EF919F918F914F9179
:100EA0003F912F910F900BBE0F900FBE0F901F9090
:100EB000189508951F920F920FB60F920BB60F92CE
:100EC00011242F933F934F938F939F93EF93FF930F
:100ED0008091C80082FD1DC04091CE002091740415
:100EE000309175042F5F3F4F2F73307080917604DF
:100EF000909177042817390771F0E0917404F0910C
:100F00007504EC5CFB4F40833093750420937404AC
:100F100002C08091CE00FF91EF919F918F914F91F0
:100F20003F912F910F900BBE0F900FBE0F901F900F
:100F3000189508951F920F920FB60F920BB60F924D
:100F400011242F933F934F938F939F93EF93FF938E
:100F50008091D00082FD1DC04091D6002091FC04FC
:100F60003091FD042F5F3F4F2F7330708091FE044E
:100F70009091FF042817390771F0E091FC04F0917B
:100F8000FD04E454FB4F40833093FD042093FC04A4
:100F900002C08091D600FF91EF919F918F914F9168
:100FA0003F912F910F900BBE0F900FBE0F901F908F
:100FB000189508951F920F920FB60F920BB60F92CD
:100FC00011242F933F934F938F939F93EF93FF930E
:100FD0008091300182FD1DC0409136012091840531
:100FE000309185052F5F3F4F2F73307080918605BC
:100FF000909187052817390771F0E0918405F091E9
:101000008505EC5BFA4F408330938505209384057A
:1010100002C080913601FF91EF919F918F914F9186
:101020003F912F910F900BBE0F900FBE0F901F900E
:101030001895E091D805F091D905E05CFF4F8191BA
:10104000919120813181805C9F4F821B930B60E4E2
:1010500070E029D4892B09F0ECDEE091FA05F091DB
:10106000FB05E05CFF4F8191919120813181805C93
:101070009F4F821B930B60E470E015D4892B09F01D
:1010800018DFE0911C06F0911D06E05CFF4F819196
:10109000919120813181805C9F4F821B930B60E492
:1010A00070E001D4892B09F044DFE0913E06F09115
:1010B0003F06E05CFF4F8191919120813181805CFE
:1010C0009F4F821B930B60E470E0EDD3892B09F0F6
:1010D00070CF08951F920F920FB60F920BB60F921A
:1010E00011242F933F938F939F93EF93FF9320911E
:1010F00030043091310480913204909133042817E8
:10110000390731F48091C1008F7D8093C10014C0F4
:10111000E0913204F0913304E051FC4F2081809142
:1011200032049091330401968F739070909333043E
:10113000809332042093C600FF91EF919F918F918D
:101140003F912F910F900BBE0F900FBE0F901F90ED
:1011500018951F920F920FB60F920BB60F92112493
:101160002F933F938F939F93EF93FF932091B80416
:101170003091B9048091BA049091BB0428173907C3
:1011800031F48091C9008F7D8093C90014C0E09133
:10119000BA04F091BB04E858FB4F20818091BA0457
:1011A0009091BB0401968F7390709093BB048093D1
:1011B000BA042093CE00FF91EF919F918F913F91C0
:1011C0002F910F900BBE0F900FBE0F901F90189590
:1011D0001F920F920FB60F920BB60F9211242F93FE
:1011E0003F938F939F93EF93FF932091400530910E
:1011F000410580914205909143052817390731F444
:101200008091D1008F7D8093D10014C0E091420580
:10121000F0914305E050FB4F208180914205909171
:10122000430501968F739070909343058093420518
:101230002093D600FF91EF919F918F913F912F9135
:101240000F900BBE0F900FBE0F901F9018951F921E
:101250000F920FB60F920BB60F9211242F933F935C
:101260008F939F93EF93FF932091C8053091C90509
:101270008091CA059091CB052817390731F48091E8
:1012800031018F7D8093310114C0E091CA05F09146
:10129000CB05E857FA4F20818091CA059091CB0584
:1012A00001968F7390709093CB058093CA0520931D
:1012B0003601FF91EF919F918F913F912F910F9068
:1012C0000BBE0F900FBE0F901F901895AF92BF925C
:1012D000DF92EF92FF920F931F93CF93DF93EC0176
:1012E0007A018B01DD24403081EE580780E06807E9
:1012F00080E0780711F0DD24D39491E0A92EB12C81
:10130000EC89FD89DD2069F0C50108A002C0880FC5
:10131000991F0A94E2F7808360E079E08DE390E022
:1013200005C0108260E874E88EE190E0A8019701A2
:10133000CDD221503040404050405695479537958A
:10134000279580E12030380720F0DD2011F0DD24E2
:10135000D7CFE889F9893083EA89FB89208319A2EC
:10136000EE89FF89408121E030E0C9010C8C02C088
:10137000880F991F0A94E2F7482B4083EE89FF8972
:101380004081C9010D8C02C0880F991F0A94E2F7B1
:10139000482B4083EE89FF894081C9010E8C02C031
:1013A000880F991F0A94E2F7482B4083EE89FF8942
:1013B00080810F8C02C0220F331F0A94E2F7209520
:1013C00028232083DF91CF911F910F91FF90EF9001
:1013D000DF90BF90AF900895DC011C96ED91FC91D9
:1013E0001D97E05CFF4F8191919120813181805C5C
:1013F0009F4F821B930B60E470E055C2DC011C968A
:10140000ED91FC911D97E05CFF4F20813181E0540C
:10141000F040DF01AE5BBF4F8D919C911197281773
:10142000390719F42FEF3FEF07C08D919C91E80F1A
:10143000F91F8081282F30E0C9010895DC011C9636
:10144000ED91FC911D97E05CFF4F20813181E054CC
:10145000F040DF01AE5BBF4F8D919C911197281733
:10146000390719F42FEF3FEF10C08D919C91119720
:10147000E80FF91F20818D919C91119701968F7330
:10148000907011969C938E9330E0C9010895DC0111
:1014900091968C919197882339F05496ED91FC9117
:1014A0005597808186FFF9CF91961C920895CF932E
:1014B000DF93EC01EE85FF85E05CFF4F20813181F9
:1014C000E054F0402F5F3F4F2F733070DF01AE5B71
:1014D000BF4F8D919C91119728173907D1F3E05C8C
:1014E000FF4F80819181E054F040E80FF91F608345
:1014F000EE85FF85E05CFF4F31832083EE89FF8915
:10150000208181E090E00F8C02C0880F991F0A941F
:10151000E2F7282B208381E089A3EC89FD89808173
:101520008064808381E090E0DF91CF9108951F93E4
:101530001092CF051092CE0528EE33E040E050E047
:101540002093D0053093D1054093D2055093D30515
:101550006DE273E07093CD056093CC058CEA93E067
:101560009093D9058093D80580EF93E09093DB05A5
:101570008093DA0585EC90E09093DD058093DC059F
:1015800084EC90E09093DF058093DE0580EC90E0A2
:101590009093E1058093E00581EC90E09093E30562
:1015A0008093E20582EC90E09093E5058093E4055A
:1015B00086EC90E09093E7058093E60514E01093A5
:1015C000E805B3E0B093E905A7E0A093EA05F5E0EC
:1015D000F093EB05E1E0E093EC051092F105109239
:1015E000F0052093F2053093F3054093F4055093F2
:1015F000F5057093EF056093EE0584E394E0909316
:10160000FB058093FA0588E794E09093FD058093AD
:10161000FC058DEC90E09093FF058093FE058CEC2B
:1016200090E0909301068093000688EC90E0909300
:1016300003068093020689EC90E090930506809360
:1016400004068AEC90E090930706809306068EECE1
:1016500090E0909309068093080610930A06B093D1
:101660000B06A0930C06F0930D06E0930E06109265
:101670001306109212062093140630931506409319
:1016800016065093170670931106609310068CEBA4
:1016900094E090931D0680931C0680E095E0909363
:1016A0001F0680931E0685ED90E09093210680939F
:1016B000200684ED90E0909323068093220680ED2F
:1016C00090E0909325068093240681ED90E090931E
:1016D00027068093260682ED90E09093290680935A
:1016E000280686ED90E090932B0680932A061093AF
:1016F0002C06B0932D06A0932E06F0932F06E093B0
:101700003006109235061092340620933606309338
:10171000370640933806509339067093330660932A
:10172000320684E495E090933F0680933E0688E875
:1017300095E0909341068093400685E391E0909375
:1017400043068093420684E391E09093450680939C
:10175000440680E391E0909347068093460681E338
:1017600091E0909349068093480682E391E090933C
:101770004B0680934A0686E391E090934D06809352
:101780004C0610934E06B0934F06A0935006F0936C
:101790005106E09352061F9108950895CF93DF9369
:1017A00001DAFBDF0E94A401C9E1D8E00E944902EE
:1017B0002097E1F33EDCFACFCF92DF92EF92FF92D7
:1017C0000F931F93CF93DF937C016B018A01C0E0DD
:1017D000D0E00FC0D6016D916D01D701ED91FC9164
:1017E0000190F081E02DC7011995C80FD91F015054
:1017F00010400115110571F7CE01DF91CF911F91B6
:101800000F91FF90EF90DF90CF900895EF92FF92AD
:101810000F931F938C01DC01ED91FC910190F081FD
:10182000E02D6DE019957C01D801ED91FC910190BE
:10183000F081E02DC8016AE019959C012E0D3F1D35
:10184000C9011F910F91FF90EF900895CF93DF93FF
:10185000EC016115710519F420E030E00FC0DB01E7
:101860000D900020E9F71197A61BB70BE881F981CD
:101870000280F381E02DAD0119959C01C901DF9132
:10188000CF910895EF92FF920F931F937C01DEDFBB
:101890008C01C701BBDF080F191FC8011F910F91F1
:1018A000FF90EF90089597FB092E07260AD077FD49
:1018B00004D02ED006D000201AF4709561957F4F89
:1018C0000895F6F7909581959F4F0895A1E21A2EFD
:1018D000AA1BBB1BFD010DC0AA1FBB1FEE1FFF1FD4
:1018E000A217B307E407F50720F0A21BB30BE40B24
:1018F000F50B661F771F881F991F1A9469F760956B
:101900007095809590959B01AC01BD01CF01089524
:10191000AA1BBB1B51E107C0AA1FBB1FA617B70715
:1019200010F0A61BB70B881F991F5A95A9F7809531
:101930009095BC01CD010895EE0FFF1F0590F49125
:10194000E02D199412E0C8E0D2E003C0FE01F6DFFA
:0C1950002296CA30D107D1F7F894FFCFDF
:10195C005061794F75745375636365737366756CF9
:10196C00005061794F75744661696C0053746174F1
:10197C00757346696E6500456D7074794E6F74654C
:10198C000053746F636B4C657373004E6F74654AD0
:10199C00616D004F7665724C656E677468004E6FB2
:1019AC0074654E6F74457869740053656E736F720D
:1019BC004572726F7200446F75626C654E6F746520
:1019CC004572726F72004D6F746F724572726F72E6
:1019DC000044697370656E73696E67427573790044
:1019EC0053656E736F7241646A757374696E6700C8
:1019FC00436865636B53756D4572726F72004C6F03
:101A0C0077506F7765724572726F720068656C6C97
:101A1C006F00506179436F696E2072657475726ED8
:101A2C0000506179436F696E2054696D65204F7564
:101A3C007400436865636B5374617475735061799A
:101A4C0042696C6C2054696D65204F757420005090
:101A5C00617962696C6C2054696D65204F757400F6
:101A6C00ED080150000100000100000000C703DC7C
:101A7C000BAD038C038A04790400000000570ADCC8
:0A1A8C000BEC091E0AFE09470A00D0
:00000001FF
