:1000000072C000009DC000009BC0000099C00000AD
:1000100097C0000095C0000093C0000091C0000090
:100020008FC000008DC000008BC0000089C00000A0
:1000300087C0000085C0000083C0000081C00000B0
:100040007FC000007DC000007BC0000079C00000C0
:1000500077C0000075C0000073C0000092C50000AA
:100060006FC000009FC60000EDC7000069C000001F
:1000700067C0000065C0000063C0000061C00000F0
:100080005FC000005DC000005BC0000059C0000000
:10009000C9C600000C94610853C0000051C00000A4
:1000A0004FC000004DC000004BC0000049C0000020
:1000B00047C0000045C0000043C0000041C0000030
:1000C0003FC000003DC000003BC00000EBC6000088
:1000D0000C94A00835C0000025C700000C94DF0870
:1000E0002FC00000DA0A11241FBECFEFD1E2DEBF1D
:1000F000CDBF00E00CBF12E0A0E0B2E0E0E3F9E128
:1001000000E00BBF02C007900D92A834B107D9F7E9
:100110001BBE16E0A8E4B2E001C01D92A135B107F4
:10012000E1F710E0C6EED0E004C02297FE010E9485
:10013000920CC43ED107C9F70E94110C0C94960C86
:100140005FCF873071F1883070F4833051F18430A3
:1001500028F4813031F18230C8F415C0853009F1BE
:100160008630C0F415C08B30E1F08C3028F4893033
:10017000C1F08A3098F410C08A3A99F08B3B89F02C
:100180008C3071F40EC0109228030DC082E009C0BB
:1001900084E007C086E005C088E003C08AE001C0B3
:1001A0008EEF80932803809128030895823459F0BC
:1001B000833428F4803439F0813439F404C0833432
:1001C00011F0843411F4809336038091360308953E
:1001D000CF93DF9315C080911003C82FD0E089EC36
:1001E00095E00E94610AC85BDD4F8883809110030F
:1001F000873C19F41092100303C08F5F80931003A3
:1002000089EC95E00E942F0A892B29F7DF91CF9185
:100210000895AF92BF92CF92DF92EF92FF920F9329
:100220001F93CF93DF93EC018B0104C08BEE95E01D
:100230000E94610A8BEE95E00E942F0A181619069B
:10024000ACF3E7D45B016C01780100E010E08BEEC9
:1002500095E00E942F0A892B49F08BEE95E00E94D1
:10026000610A8883882311F081E00BC0D2D46A1917
:100270007B098C099D096E157F058007910738F36E
:1002800080E0DF91CF911F910F91FF90EF90DF9071
:10029000CF90BF90AF9008958F929F92AF92BF92F0
:1002A000CF92DF92EF92FF920F931F93CF93DF9342
:1002B000EC01062F7A0104C08DE096E00E94610AED
:1002C0008DE096E00E942F0A18161906ACF3A1D40F
:1002D0004B015C0110E06701EE24FF248DE096E005
:1002E0000E942F0A892B49F08DE096E00E94610A56
:1002F000FE01E10FF11D80831F5F011751F089D4CA
:10030000681979098A099B096C157D058E059F0579
:1003100028F3812FDF91CF911F910F91FF90EF90E4
:10032000DF90CF90BF90AF909F908F9008958F9265
:100330009F92AF92BF92CF92DF92EF92FF920F9374
:100340001F93CF93DF93EC01062F7A0104C08FE255
:1003500096E00E94610A8FE296E00E942F0A18162A
:100360001906ACF356D44B015C0110E06701EE2492
:10037000FF248FE296E00E942F0A892B49F08FE23A
:1003800096E00E94610AFE01E10FF11D80831F5F6C
:10039000011751F03ED4681979098A099B096C1537
:1003A0007D058E059F0528F3812FDF91CF911F9149
:1003B0000F91FF90EF90DF90CF90BF90AF909F9004
:1003C0008F9008958BEE95E040E855E260E070E094
:1003D00026E2BAC78FE296E040E855E260E070E0BE
:1003E00026E2B2C7EF92FF920F931F93CF93DF9352
:1003F0007C01C0E0D0E0062F10E00CC0F701EC0F4C
:10040000FD1F6081772767FD70958FE296E00E945F
:100410009A0A2196C017D1078CF3DF91CF911F91D3
:100420000F91FF90EF9008958DE092E066E0DACFB3
:10043000EF92FF920F931F93CF93DF937C01C0E065
:10044000D0E0062F10E00CC0F701EC0FFD1F60811B
:10045000772767FD70958DE096E00E949A0A2196B5
:10046000C017D1078CF3DF91CF911F910F91FF90AF
:10047000EF900895409130024F5FABE2B3E020E08F
:1004800030E090E0F901E05EFD4F80818C932230F6
:10049000310519F440932D0305C02730310511F4BF
:1004A000909332038D9198272F5F3F4F283031056D
:1004B00049F7909333038BE293E068E0B9DF8091D2
:1004C00030028F5F8093300208950F931F93DF9364
:1004D000CF93CDB7DEB72A970FB6F894DEBF0FBE25
:1004E000CDBF8C01C7DFCE01019668E048E853E13B
:1004F000D3DE9FEFF80190839183863028F08C81C2
:1005000080838E81818303C08DEFF80180832A96DA
:100510000FB6F894DEBF0FBECDBFCF91DF911F9114
:100520000F910895682F772767FD70958BEE95E002
:100530000C949A0A8EE3F6CF8EE5F4CF10929F03C7
:1005400080E3F0CFDF93CF930F92CDB7DEB78CE08F
:10055000E9DF8FEF8983CE01019668E873E159DE08
:10056000882389F18981873279F1883280F4833256
:1005700059F1843238F4813239F18232D0F4803248
:1005800001F522C0853201F18632B8F414C08E32F2
:10059000D9F08F3238F48932B9F0893280F08A325A
:1005A00081F412C08E3381F08E3581F08F3249F4A0
:1005B0000BC082E209C084E207C086E205C088E27F
:1005C00003C08EEF01C08DEF80933503809135031A
:1005D0000F90CF91DF910895EF92FF920F931F93A9
:1005E00018D37B018C018091150390911603A09183
:1005F0001703B0911803A8019701281B390B4A0B68
:100600005B0BDA01C90180529F4BA240B04048F019
:10061000E0921503F092160300931703109318034A
:1006200091DF8091190390911A03A0911B03B0915F
:100630001C03A8019701281B390B4A0B5B0BDA013D
:10064000C901805F964CA240B04040F0E09219038F
:10065000F0921A0300931B0310931C0380911D0357
:1006600090911E03A0911F03B0912003A801970150
:10067000281B390B4A0B5B0BDA01C901805C9E4CCD
:10068000A240B04040F0E0921D03F0921E030093A0
:100690001F03109320031F910F91FF90EF90089577
:1006A000CF93DF930CC08BEE95E00BD7FE01E95C96
:1006B000FC4F80832196D0939C03C0939B038BEEC9
:1006C00095E0CDD6C0919B03D0919C03892B59F71F
:1006D00020919D0330919E03C217D307A9F0F90121
:1006E000E95CFC4F80812F5F3F4F30939E03209346
:1006F0009D038F3849F482E015DF60ED77E080E0FC
:1007000090E095D28EE50EDFDF91CF910895EF92C4
:10071000FF920F931F93CF93DF937C01C0E0D0E053
:10072000062F10E00BC0F701EC0FFD1F608177274B
:1007300067FD709589EC95E0FDD62196C017D1072D
:1007400094F3DF91CF911F910F91FF90EF90089557
:1007500080931D0260931E0290911B0220911C0247
:10076000920F980F960F90932A03909590931F02E3
:1007700089E192E067E0CBCF80930402909102027E
:1007800020910302920F980F80910502980F80919B
:100790000602980F9093210390959093060280E0B3
:1007A00092E067E0B4CFDF93CF93CDB7DEB72A975F
:1007B0000FB6F894DEBF0FBECDBF87E092E066E0D3
:1007C00011DECE01019666E048E853E1B0DD8630E7
:1007D00020F08C81B6DC67E0CFDF2A960FB6F89464
:1007E000DEBF0FBECDBFCF91DF910895DF93CF93D2
:1007F000CDB7DEB72A970FB6F894DEBF0FBECDBFD8
:10080000482FA2E2B3E020E030E090E0F901ED5E95
:10081000FD4F80818C932430310519F440932603D9
:1008200005C02530310511F4909327038D91982749
:100830002F5F3F4F2630310549F79093290382E21D
:1008400093E066E0CFDDCE01019666E048E853E133
:100850006EDD863038F08C818B3B51F072DC67E0C6
:100860008BDF07C068EE73E080E090E0E0D19BDFB3
:10087000DBDD2A960FB6F894DEBF0FBECDBFCF9159
:10088000DF910895809335029091330220913402D4
:10089000920F980F80913602980F909334039095A1
:1008A0009093370281E392E067E031CFFF920F939C
:1008B0001F93DF93CF930F92CDB7DEB73BDE42DEBF
:1008C0008E3319F067E0DEDF2DC08FEF89838E0154
:1008D0000F5F1F4FC80160E375E79BDC8823D1F0F1
:1008E00089818138C1F4C80160ED77E092DC88230A
:1008F00089F0F98082E016DEC80160ED77E089DCDE
:10090000882359F08981803119F48F2D4FDC03C081
:1009100081E101C08DEF67E0B5DF64EF71E080E059
:1009200090E085D109DE0F90CF91DF911F910F915B
:10093000FF9008951F93DF93CF93CDB7DEB72C9729
:100940000FB6F894DEBF0FBECDBF182F80913002D6
:1009500080932A028F5F8093300210932D02E8E289
:10096000F2E090E08191982782E0EF32F807D1F72A
:100970009093330390838FEF89838A83CF01079706
:1009800068E056DD89EC95E0612FD4D58091300286
:100990008F3F11F410923002CE01039666E048E8D2
:1009A00053E17ADC182F89EC95E061E1C3D589EC3D
:1009B00095E0612FBFD58FEF8A838983163078F059
:1009C0006E81698389EC95E0B5D589EC95E06A8103
:1009D000B1D58981882319F48EEF6F8114C0898184
:1009E000813019F48DEF64E00EC068EE73E080E0B2
:1009F00090E01DD1CE01019668DD89818D3F11F413
:100A000065E001C06A81A4DE2C960FB6F894DEBFC3
:100A10000FBECDBFCF91DF911F910895FAD06093A3
:100A20001D0370931E0380931F0390932003609314
:100A3000190370931A0380931B0390931C03609314
:100A40001503709316038093170390931803E09196
:100A50001303F0E0E85BFD4F2481858193819230A0
:100A600071F0933081F0913091F4233029F02430EB
:100A700021F0213061F41ACF61CD82E053CD2130D5
:100A800031F490E0B3CE213011F490E053CF0895CB
:100A90009091110380911003981709F45DC0E92F1C
:100AA000F0E0E85BFD4F4081973C19F41092110390
:100AB00003C09F5F90931103809112038230E9F08D
:100AC000833030F4882351F0813009F045C00AC0EA
:100AD0008330E9F0843009F03FC024C04F3FE1F596
:100AE00081E01DC04F3F81F482E08093120380912A
:100AF000110382508093130308954093140383E0FD
:100B000080931203453140F11092120308958091B1
:100B100014038150809314038130F1F484E08093B6
:100B200012030895E09113032E2F2E5FF0E0E85B8F
:100B3000FD4F3281320F90E007C0E22FF0E0E85B1A
:100B4000FD4F8081980F2F5F2317B9F79095941769
:100B500009F464DF109212030895A2DD99DF3CCD01
:100B60008DE096E040E855E260E070E067C32ADC83
:100B700031DCF6DF89EC95E040E855E260E070E0BA
:100B80005DC31F920F920FB60F9211242F933F93C4
:100B90008F939F93AF93BF938091A4039091A503EC
:100BA000A091A603B091A7033091A8030196A11DBF
:100BB000B11D232F2D5F2D3720F02D570196A11D3C
:100BC000B11D2093A8038093A4039093A503A09341
:100BD000A603B093A7038091A0039091A103A091D5
:100BE000A203B091A3030196A11DB11D8093A003A0
:100BF0009093A103A093A203B093A303BF91AF91DD
:100C00009F918F913F912F910F900FBE0F901F904A
:100C100018958FB7F8942091A4033091A5034091C3
:100C2000A6035091A7038FBFB901CA0108959B0184
:100C3000AC017FB7F8948091A0039091A103A0919B
:100C4000A203B091A30366B5A89B05C06F3F19F03E
:100C50000196A11DB11D7FBFBA2FA92F982F8827FC
:100C6000860F911DA11DB11D62E0880F991FAA1F5B
:100C7000BB1F6A95D1F7BC012DC0FFB7F8948091D6
:100C8000A0039091A103A091A203B091A303E6B5A4
:100C9000A89B05C0EF3F19F00196A11DB11DFFBF34
:100CA000BA2FA92F982F88278E0F911DA11DB11D36
:100CB000E2E0880F991FAA1FBB1FEA95D1F7861B98
:100CC000970B885E9340C8F221503040404050401E
:100CD00068517C4F211531054105510571F6089584
:100CE000789484B5826084BD84B5816084BD85B507
:100CF000826085BD85B5816085BDEEE6F0E08081CE
:100D000081608083E1E8F0E01082808182608083EE
:100D1000808181608083E0E8F0E080818160808371
:100D2000E1EBF0E0808184608083E0EBF0E08081A3
:100D300081608083E1E9F0E080818260808380814E
:100D400081608083E0E9F0E0808181608083E1EA76
:100D5000F0E0808182608083808181608083E0EA2E
:100D6000F0E0808181608083E1E2F1E08081826057
:100D70008083808181608083E0E2F1E08081816016
:100D80008083EAE7F0E080818460808380818260F4
:100D900080838081816080838081806880831092DD
:100DA000C10008951F920F920FB60F920BB60F92CB
:100DB00011242F933F934F938F939F93EF93FF9320
:100DC0008091C00082FD1DC04091C6002091E903C2
:100DD0003091EA032F5F3F4F2F7330708091EB0308
:100DE0009091EC032817390771F0E091E903F09135
:100DF000EA03E755FC4F40833093EA032093E9036D
:100E000002C08091C600FF91EF919F918F914F9109
:100E10003F912F910F900BBE0F900FBE0F901F9020
:100E2000189508951F920F920FB60F920BB60F925E
:100E300011242F933F934F938F939F93EF93FF939F
:100E40008091C80082FD1DC04091CE0020917104A8
:100E5000309172042F5F3F4F2F7330708091730475
:100E6000909174042817390771F0E0917104F091A2
:100E70007204EF5CFB4F4083309372042093710443
:100E800002C08091CE00FF91EF919F918F914F9181
:100E90003F912F910F900BBE0F900FBE0F901F90A0
:100EA000189508951F920F920FB60F920BB60F92DE
:100EB00011242F933F934F938F939F93EF93FF931F
:100EC0008091D00082FD1DC04091D6002091F90490
:100ED0003091FA042F5F3F4F2F7330708091FB04E5
:100EE0009091FC042817390771F0E091F904F09112
:100EF000FA04E754FB4F40833093FA042093F9043B
:100F000002C08091D600FF91EF919F918F914F91F8
:100F10003F912F910F900BBE0F900FBE0F901F901F
:100F2000189508951F920F920FB60F920BB60F925D
:100F300011242F933F934F938F939F93EF93FF939E
:100F40008091300182FD1DC04091360120918105C4
:100F5000309182052F5F3F4F2F7330708091830552
:100F6000909184052817390771F0E0918105F0917F
:100F70008205EF5BFA4F4083309382052093810511
:100F800002C080913601FF91EF919F918F914F9117
:100F90003F912F910F900BBE0F900FBE0F901F909F
:100FA0001895E091D505F091D605E05CFF4F819151
:100FB000919120813181805C9F4F821B930B60E473
:100FC00070E065D4892B09F003D9E091F705F09121
:100FD000F805E05CFF4F8191919120813181805C27
:100FE0009F4F821B930B60E470E051D4892B09F072
:100FF00018DFE0911906F0911A06E05CFF4F81912D
:10100000919120813181805C9F4F821B930B60E422
:1010100070E03DD4892B09F044DFE0913B06F0916C
:101020003C06E05CFF4F8191919120813181805C91
:101030009F4F821B930B60E470E029D4892B09F049
:1010400070CF08951F920F920FB60F920BB60F92AA
:1010500011242F933F938F939F93EF93FF932091AE
:101060002D0430912E0480912F0490913004281784
:10107000390731F48091C1008F7D8093C10014C085
:10108000E0912F04F0913004E351FC4F20818091D6
:101090002F049091300401968F73907090933004D8
:1010A00080932F042093C600FF91EF919F918F9121
:1010B0003F912F910F900BBE0F900FBE0F901F907E
:1010C00018951F920F920FB60F920BB60F92112424
:1010D0002F933F938F939F93EF93FF932091B504AA
:1010E0003091B6048091B7049091B804281739075D
:1010F00031F48091C9008F7D8093C90014C0E091C4
:10110000B704F091B804EB58FB4F20818091B704ED
:101110009091B80401968F7390709093B804809367
:10112000B7042093CE00FF91EF919F918F913F9153
:101130002F910F900BBE0F900FBE0F901F90189520
:101140001F920F920FB60F920BB60F9211242F938E
:101150003F938F939F93EF93FF9320913D053091A1
:101160003E0580913F05909140052817390731F4DD
:101170008091D1008F7D8093D10014C0E0913F0514
:10118000F0914005E350FB4F208180913F05909105
:10119000400501968F7390709093400580933F05B2
:1011A0002093D600FF91EF919F918F913F912F91C6
:1011B0000F900BBE0F900FBE0F901F9018951F92AF
:1011C0000F920FB60F920BB60F9211242F933F93ED
:1011D0008F939F93EF93FF932091C5053091C605A0
:1011E0008091C7059091C8052817390731F480917F
:1011F00031018F7D8093310114C0E091C705F091DA
:10120000C805EB57FA4F20818091C7059091C8051A
:1012100001968F7390709093C8058093C7052093B3
:101220003601FF91EF919F918F913F912F910F90F8
:101230000BBE0F900FBE0F901F901895AF92BF92EC
:10124000DF92EF92FF920F931F93CF93DF93EC0106
:101250007A018B01DD24403081EE580780E0680779
:1012600080E0780711F0DD24D39491E0A92EB12C11
:10127000EC89FD89DD2069F0C50108A002C0880F56
:10128000991F0A94E2F7808360E079E08DE390E0B3
:1012900005C0108260E874E88EE190E0A801970133
:1012A00009D32150304040405040569547953795DE
:1012B000279580E12030380720F0DD2011F0DD2473
:1012C000D7CFE889F9893083EA89FB89208319A27D
:1012D000EE89FF89408121E030E0C9010C8C02C019
:1012E000880F991F0A94E2F7482B4083EE89FF8903
:1012F0004081C9010D8C02C0880F991F0A94E2F742
:10130000482B4083EE89FF894081C9010E8C02C0C1
:10131000880F991F0A94E2F7482B4083EE89FF89D2
:1013200080810F8C02C0220F331F0A94E2F72095B0
:1013300028232083DF91CF911F910F91FF90EF9091
:10134000DF90BF90AF900895AF92BF92CF92DF929F
:10135000EF92FF920F931F93CF93DF93EC017A01EB
:101360008B01C22EDD24403081EE580780E06807F3
:1013700080E0780711F0DD24D39471E0A72EB12C22
:10138000EC89FD89DD2069F0C50108A002C0880F45
:10139000991F0A94E2F7808360E079E08DE390E0A2
:1013A00005C0108260E874E88EE190E0A801970122
:1013B00081D2215030404040504056954795379556
:1013C000279580E12030380720F0DD2011F0DD2462
:1013D000D7CFE889F9893083EA89FB892083E88DB2
:1013E000F98DC082EE89FF89408121E030E0C9019A
:1013F0000C8C02C0880F991F0A94E2F7482B408397
:10140000EE89FF894081C9010D8C02C0880F991FA8
:101410000A94E2F7482B4083EE89FF894081C90195
:101420000E8C02C0880F991F0A94E2F7482B408364
:10143000EE89FF8980810F8C02C0220F331F0A942E
:10144000E2F7209528232083DF91CF911F910F9100
:10145000FF90EF90DF90CF90BF90AF900895DC01A8
:101460001C96ED91FC911D97E05CFF4F819191914D
:1014700020813181805C9F4F821B930B60E470E080
:1014800006C2DC011C96ED91FC911D97E05CFF4FBC
:1014900020813181E054F040DF01AE5BBF4F8D9180
:1014A0009C9111972817390719F42FEF3FEF07C0C8
:1014B0008D919C91E80FF91F8081282F30E0C901A0
:1014C0000895DC011C96ED91FC911D97E05CFF4FA7
:1014D00020813181E054F040DF01AE5BBF4F8D9140
:1014E0009C9111972817390719F42FEF3FEF10C07F
:1014F0008D919C911197E80FF91F20818D919C91FE
:10150000119701968F73907011969C938E9330E093
:10151000C9010895DC0191968C919197882339F047
:101520005496ED91FC915597808186FFF9CF919665
:101530001C920895CF93DF93EC01EE85FF85E05C6C
:10154000FF4F20813181E054F0402F5F3F4F2F73D8
:101550003070DF01AE5BBF4F8D919C9111972817C2
:101560003907D1F3E05CFF4F80819181E054F04076
:10157000E80FF91F6083EE85FF85E05CFF4F318344
:101580002083EE89FF89208181E090E00F8C02C0EA
:10159000880F991F0A94E2F7282B208381E089A302
:1015A000EC89FD8980818064808381E090E0DF9117
:1015B000CF9108951F931092CC051092CB0528EE81
:1015C00033E040E050E02093CD053093CE054093CA
:1015D000CF055093D0056CE372E07093CA05609319
:1015E000C90589EA93E09093D6058093D5058DEEE1
:1015F00093E09093D8058093D70585EC90E0909385
:10160000DA058093D90584EC90E09093DC05809313
:10161000DB0580EC90E09093DE058093DD0581ECA6
:1016200090E09093E0058093DF0582EC90E090934A
:10163000E2058093E10586EC90E09093E4058093C9
:10164000E30514E01093E505B3E0B093E605A7E0E9
:10165000A093E705F5E0F093E805E1E0E093E90504
:101660001092EE051092ED052093EF053093F005F2
:101670004093F1055093F2057093EC056093EB05F0
:1016800081E394E09093F8058093F70585E794E073
:101690009093FA058093F9058DEC90E09093FC050A
:1016A0008093FB058CEC90E09093FE058093FD0504
:1016B00088EC90E0909300068093FF0589EC90E021
:1016C00090930206809301068AEC90E090930406C2
:1016D000809303068EEC90E09093060680930506B7
:1016E00010930706B0930806A0930906F0930A0624
:1016F000E0930B061092100610920F06209311062D
:1017000030931206409313065093140670930E06FE
:1017100060930D0689EB94E090931A068093190666
:101720008DEF94E090931C0680931B0685ED90E06E
:1017300090931E0680931D0684ED90E09093200602
:1017400080931F0680ED90E09093220680932106FF
:1017500081ED90E0909324068093230682ED90E043
:10176000909326068093250686ED90E090932806B8
:101770008093270610932906B0932A06A0932B0680
:10178000F0932C06E0932D0610923206109231064B
:101790002093330630933406409335065093360633
:1017A0007093300660932F0681E495E090933C0699
:1017B00080933B0685E895E090933E0680933D0636
:1017C00085E391E09093400680933F0684E391E0A7
:1017D000909342068093410680E391E09093440603
:1017E0008093430681E391E09093460680934506FB
:1017F00082E391E0909348068093470686E391E068
:1018000090934A068093490610934B06B0934C067A
:10181000A0934D06F0934E06E0934F061F91089556
:101820000895CF93DF935CDAFBDFA1D9C1EDD7E058
:1018300094D92097E9F3B5DBFBCFCF92DF92EF92FB
:10184000FF920F931F93CF93DF937C016B018A016B
:10185000C0E0D0E00FC0D6016D916D01D701ED91D0
:10186000FC910190F081E02DC7011995C80FD91F97
:10187000015010400115110571F7CE01DF91CF9194
:101880001F910F91FF90EF90DF90CF90089597FBFD
:10189000092E07260AD077FD04D02ED006D00020CE
:1018A0001AF4709561957F4F0895F6F7909581959C
:1018B0009F4F0895A1E21A2EAA1BBB1BFD010DC06C
:1018C000AA1FBB1FEE1FFF1FA217B307E407F507F0
:1018D00020F0A21BB30BE40BF50B661F771F881FCC
:1018E000991F1A9469F760957095809590959B0162
:1018F000AC01BD01CF010895AA1BBB1B51E107C07C
:10190000AA1FBB1FA617B70710F0A61BB70B881F8F
:10191000991F5A95A9F780959095BC01CD0108951E
:10192000EE0FFF1F0590F491E02D1994F894FFCF6E
:10193000FFFF04020000000110001100220110004E
:10194000120023011000100122FFFF040300000019
:10195000ED08005100000000ED08015000010000FA
:1019600001FFFF0401000000000000009A0A1D0CA6
:081970002F0A610A410A8A0AEC
:00000001FF
