:1000000072C000009DC000009BC0000099C00000AD
:1000100097C0000095C0000093C0000091C0000090
:100020008FC00000CFC50000FAC5000025C6000043
:1000300087C0000085C0000083C0000081C00000B0
:100040007FC000007DC000007BC0000079C00000C0
:1000500077C0000075C0000073C000003AC6000001
:100060006FC0000047C700000C94CA0869C00000B8
:1000700067C0000065C0000063C0000061C00000F0
:100080005FC000005DC000005BC0000059C0000000
:1000900071C700000C94090953C0000051C0000052
:1000A0004FC000004DC000004BC0000049C0000020
:1000B00047C0000045C0000043C0000041C0000030
:1000C0003FC000003DC000003BC0000093C70000DF
:1000D0000C94480935C00000CDC700000C94870976
:1000E0002FC00000820B11241FBECFEFD1E2DEBF74
:1000F000CDBF00E00CBF12E0A0E0B2E0E2E8FAE120
:1001000000E00BBF02C007900D92AC33B107D9F7E6
:100110001BBE16E0ACE3B2E001C01D92A932B107EC
:10012000E1F710E0C6EED0E004C02297FE010E9485
:100130003B0DC43ED107C9F70E94B90C0C943F0D8A
:100140005FCF873071F1883070F4833051F18430A3
:1001500028F4813031F18230C8F415C0853009F1BE
:100160008630C0F415C08B30E1F08C3028F4893033
:10017000C1F08A3098F410C08A3A99F08B3B89F02C
:100180008C3071F40EC010921C030DC082E009C0C7
:1001900084E007C086E005C088E003C08AE001C0B3
:1001A0008EEF80931C0380911C030895823459F0D4
:1001B000833428F4803439F0813439F404C0833432
:1001C00011F0843411F48093320380913203089546
:1001D000CF93DF9315C080910403C82FD0E081EA4C
:1001E00095E00E94090BC45CDD4F88838091040375
:1001F000873C19F41092040303C08F5F80930403BB
:1002000081EA95E00E94D70A892B29F7DF91CF91E7
:100210000895AF92BF92CF92DF92EF92FF920F9329
:100220001F93CF93DF93EC018B0104C083EC95E027
:100230000E94090B83EC95E00E94D70A1816190654
:10024000ACF38FD55B016C01780100E010E083EC2A
:1002500095E00E94D70A892B39F083EC95E00E9443
:10026000090B888381E00BC07CD56A197B098C0956
:100270009D096E157F058007910748F380E0DF91A7
:10028000CF911F910F91FF90EF90DF90CF90BF9093
:10029000AF9008958F929F92AF92BF92CF92DF92CC
:1002A000EF92FF920F931F93CF93DF93EC01062FF2
:1002B0007A0104C085EE95E00E94090B85EE95E079
:1002C0000E94D70A18161906ACF34BD54B015C01F6
:1002D00010E06701EE24FF2485EE95E00E94D70A26
:1002E000892B49F085EE95E00E94090BFE01E10F94
:1002F000F11D80831F5F011751F033D5681979090B
:100300008A099B096C157D058E059F0528F3812FB1
:10031000DF91CF911F910F91FF90EF90DF90CF90E1
:10032000BF90AF909F908F9008958F929F92AF92C1
:10033000BF92CF92DF92EF92FF920F931F93CF93D2
:10034000DF93EC01062F7A0104C087E096E00E945B
:10035000090B87E096E00E94D70A18161906ACF33D
:1003600000D54B015C0110E06701EE24FF2487E01B
:1003700096E00E94D70A892B49F087E096E00E9418
:10038000090BFE01E10FF11D80831F5F011751F082
:10039000E8D4681979098A099B096C157D058E05D1
:1003A0009F0528F3812FDF91CF911F910F91FF902F
:1003B000EF90DF90CF90BF90AF909F908F90089577
:1003C00087E096E040E855E260E070E026E20C94B9
:1003D0004C0A85EE95E040E855E260E070E0D6C753
:1003E000EF92FF920F931F93CF93DF937C01C0E0B6
:1003F000D0E0062F10E00CC0F701EC0FFD1F60816C
:10040000772767FD709587E096E00E94420B219662
:10041000C017D1078CF3DF91CF911F910F91FF90FF
:10042000EF900895DF93CF93CDB7DEB72A970FB63D
:10043000F894DEBF0FBECDBF87E092E066E0D0DF6C
:10044000CE01019666E048E853E16FDF2A960FB6C9
:10045000F894DEBF0FBECDBFCF91DF910895EF922C
:10046000FF920F931F93CF93DF938C01C0E0D0E0F6
:10047000E62EFF2414C0F8016081772767FD709590
:1004800085EE95E00E94420BF80161918F0177277C
:1004900067FD709581EA95E00E94420B2196CE158A
:1004A000DF054CF3DF91CF911F910F91FF90EF90FB
:1004B0000895409123024F5FA7E2B3E020E030E0CF
:1004C00090E0F901ED5EFD4F80818C932230310583
:1004D00019F44093290305C02730310511F4909396
:1004E0002E038D9198272F5F3F4F2830310549F714
:1004F00090932F0387E293E068E0B1DF80912302BD
:100500008F5F809323020895DF93CF93CDB7DEB73B
:100510002A970FB6F894DEBF0FBECDBFCADFCE015B
:10052000019668E048E853E1B5DE863048F08C81FA
:10053000883239F0893229F0803219F08EEF01C00B
:100540008DEF80931E032A960FB6F894DEBF0FBE80
:10055000CDBFCF91DF910895682F772767FD709504
:1005600083EC95E00C94420B8EE5F6CF80E3F4DF4C
:1005700068EE73E080E090E002D482E0EDCFDF939C
:10058000CF930F92CDB7DEB78CE0E6DF8FEF898394
:10059000CE01019668E873E13CDE8823A9F18981E8
:1005A000873299F1883280F4833279F1843238F4D9
:1005B000813259F18232D0F4803221F526C0853261
:1005C00021F18632B8F414C08E32F9F08F3238F44B
:1005D0008932D9F0893280F08A32A1F416C08E3384
:1005E000A1F08E3559F08F3269F40FC082E20DC050
:1005F00084E20BC086E209C088E207C081E08093F4
:10060000330305C08EEF01C08DEF809331038091DD
:1006100031030F90CF91DF910895EF92FF920F93E6
:100620001F939FD37B018C018091090390910A0352
:10063000A0910B03B0910C03A8019701281B390B63
:100640004A0B5B0BDA01C90180529F4BA240B040BC
:1006500048F0E0920903F0920A0300930B03109311
:100660000C038DDF80910D0390910E03A0910F0379
:10067000B0911003A8019701281B390B4A0B5B0BA3
:10068000DA01C901805F964CA240B04040F0E09290
:100690000D03F0920E0300930F031093100380914B
:1006A000110390911203A0911303B0911403A801B8
:1006B0009701281B390B4A0B5B0BDA01C901805CDF
:1006C0009E4CA240B04040F0E0921103F092120321
:1006D00000931303109314031F910F91FF90EF9059
:1006E000089583EC95E040E855E260E070E026E292
:1006F000D3D660ED77E080E090E041D382E02CDF5C
:1007000068EE73E080E090E03AD38EE525CFE9DF34
:1007100057DE5FDE81EA95E040E855E260E070E098
:1007200035C6EF92FF920F931F93CF93DF937C0117
:10073000C0E0D0E0062F10E00BC0F701EC0FFD1F6A
:100740006081772767FD709581EA95E09BD72196B8
:10075000C017D10794F3DF91CF911F910F91FF90B4
:10076000EF900895482F20E030E090E070E012C054
:100770002430310519F44093040205C026303105B8
:1007800011F490930602F901E050FE4F8081982702
:100790002F5F3F4F261737075CF39093150380E0D8
:1007A00092E067E0BECFDF93CF93CDB7DEB72A9755
:1007B0000FB6F894DEBF0FBECDBF482FA6E1B3E061
:1007C00020E030E090E0F901E35FFD4F80818C9301
:1007D0002430310519F440931A0305C02530310542
:1007E00011F490931B038D9198272F5F3F4F263074
:1007F000310549F790931D0386E193E066E0F0DD53
:10080000CE01019666E048E853E18FDD863018F0AE
:100810008C8197DC01C08DEF67E0A4DF2A960FB6CC
:10082000F894DEBF0FBECDBFCF91DF910895482F62
:1008300020E030E090E070E012C02430310519F47F
:100840004093280205C02630310511F490932A0206
:10085000F901EC5DFD4F808198272F5F3F4F2617F0
:1008600037075CF39093300384E292E067E059CF5E
:100870000F931F93DF93CF930F92CDB7DEB776DE42
:100880007EDE8E3F11F472DE02C067E0D0DF8FEFB4
:1008900089838E010F5F1F4FC80168E873E1B9DCDF
:1008A000882371F08981813879F4C80168EC70E09F
:1008B000B0DC882311F082E04FDE898177DC01C053
:1008C0008DEF67E0B4DF50DE109233030F90CF91CD
:1008D000DF911F910F910895EF92FF920F931F9355
:1008E000DF93CF93CDB7DEB72A970FB6F894DEBF6C
:1008F0000FBECDBF582F40912302AFE1B3E020E0FF
:1009000030E090E0F901E55EFD4F80818C9322306C
:10091000310519F4409321030BC02530310519F43A
:100920005093240305C02730310511F4909326031A
:100930008D9198272F5F3F4F2830310519F79093FD
:100940002F038FE193E068E08ADD809123028F5FBF
:10095000809323028E010F5F1F4FC80168E048E8B3
:1009600053E198DC863088F07801E80EF11C09C06C
:10097000F80161918F01772767FD709581EA95E015
:1009800081D60E151F05A1F701C0BEDD2A960FB650
:10099000F894DEBF0FBECDBFCF91DF911F910F91B5
:1009A000FF90EF900895DDD16093110370931203CF
:1009B000809313039093140360930D0370930E03BD
:1009C00080930F03909310036093090370930A03BD
:1009D00080930B0390930C03E0910703F0E0E45C39
:1009E000FD4F248185819381923059F0933089F0B5
:1009F0009130B1F4213019F0223091F401C038CF98
:100A0000BECD213019F0223059F402C090E0CBCE97
:100A100009CD223021F0233019F490E05DCF74CD60
:100A200008959091050380910403981709F45DC01F
:100A3000E92FF0E0E45CFD4F4081973C19F41092FF
:100A4000050303C09F5F90930503809106038230E6
:100A5000E9F0833030F4882351F0813009F045C04B
:100A60000AC08330E9F0843009F03FC024C04F3F12
:100A7000E1F581E01DC04F3F81F482E080930603E1
:100A800080910503825080930703089540930803E3
:100A900083E080930603453140F1109206030895E8
:100AA000809108038150809308038130F1F484E041
:100AB000809306030895E09107032E2F2E5FF0E048
:100AC000E45CFD4F3281320F90E007C0E22FF0E08E
:100AD000E45CFD4F8081980F2F5F2317B9F7909545
:100AE000941709F460DF1092060308959ADF95CDFC
:100AF0000F931F93CF93DF93FC01738D76957170E5
:100B0000A685B7859585772329F08C91892309F4EB
:100B100054C004C08C91892309F04FC08389948903
:100B200020E001972FEF8F3F9207D9F7C589D6892B
:100B3000A685B785158560E031E040E050E000E033
:100B4000CE01202F01972FEF8F3F9207D9F78C917D
:100B5000812311F0632B03C0832F80956823330F0B
:100B60004F5F5F4F4830510559F78789908D20E0DE
:100B700001972FEF8F3F9207D9F771116095809100
:100B800076032091770390E001968F73907030E0A8
:100B90008217930779F0E0917603F0E0EA5CFC4F6E
:100BA00060838091760390E001968F7390708093BC
:100BB000760303C0838D8160838FDF91CF911F9176
:100BC0000F9108951F920F920FB60F920BB60F92CE
:100BD00011242F933F934F935F936F937F938F9342
:100BE0009F93AF93BF93EF93FF93809134039091C2
:100BF0003503009709F07CDFFF91EF91BF91AF9132
:100C00009F918F917F916F915F914F913F912F9124
:100C10000F900BBE0F900FBE0F901F9018951F9254
:100C20000F920FB60F920BB60F9211242F933F9392
:100C30004F935F936F937F938F939F93AF93BF93E4
:100C4000EF93FF938091340390913503009709F05F
:100C50004FDFFF91EF91BF91AF919F918F917F9166
:100C60006F915F914F913F912F910F900BBE0F901D
:100C70000FBE0F901F9018951F920F920FB60F92F4
:100C80000BB60F9211242F933F934F935F936F9363
:100C90007F938F939F93AF93BF93EF93FF93809135
:100CA000340390913503009709F022DFFF91EF9113
:100CB000BF91AF919F918F917F916F915F914F9174
:100CC0003F912F910F900BBE0F900FBE0F901F9072
:100CD00018951F920F920FB60F9211242F933F93E6
:100CE0008F939F93AF93BF9380917C0390917D03EB
:100CF000A0917E03B0917F03309180030196A11DE6
:100D0000B11D232F2D5F2D3720F02D570196A11DEA
:100D1000B11D2093800380937C0390937D03A09367
:100D20007E03B0937F038091780390917903A09123
:100D30007A03B0917B030196A11DB11D80937803C6
:100D400090937903A0937A03B0937B03BF91AF9103
:100D50009F918F913F912F910F900FBE0F901F90F9
:100D600018958FB7F89420917C0330917D034091C2
:100D70007E0350917F038FBFB901CA0108959B0183
:100D8000AC017FB7F8948091780390917903A0919A
:100D90007A03B0917B0366B5A89B05C06F3F19F03D
:100DA0000196A11DB11D7FBFBA2FA92F982F8827AB
:100DB000860F911DA11DB11D62E0880F991FAA1F0A
:100DC000BB1F6A95D1F7BC012DC0FFB7F894809185
:100DD000780390917903A0917A03B0917B03E6B5F3
:100DE000A89B05C0EF3F19F00196A11DB11DFFBFE3
:100DF000BA2FA92F982F88278E0F911DA11DB11DE5
:100E0000E2E0880F991FAA1FBB1FEA95D1F7861B46
:100E1000970B885E9340C8F22150304040405040CC
:100E200068517C4F211531054105510571F6089532
:100E3000789484B5826084BD84B5816084BD85B5B5
:100E4000826085BD85B5816085BDEEE6F0E080817C
:100E500081608083E1E8F0E010828081826080839D
:100E6000808181608083E0E8F0E080818160808320
:100E7000E1EBF0E0808184608083E0EBF0E0808152
:100E800081608083E1E9F0E08081826080838081FD
:100E900081608083E0E9F0E0808181608083E1EA25
:100EA000F0E0808182608083808181608083E0EADD
:100EB000F0E0808181608083E1E2F1E08081826006
:100EC0008083808181608083E0E2F1E080818160C5
:100ED0008083EAE7F0E080818460808380818260A3
:100EE000808380818160808380818068808310928C
:100EF000C10008951F920F920FB60F920BB60F927A
:100F000011242F933F934F938F939F93EF93FF93CE
:100F10008091C00082FD1DC04091C6002091C10398
:100F20003091C2032F5F3F4F2F7330708091C30306
:100F30009091C4032817390771F0E091C103F09133
:100F4000C203EF57FC4F40833093C2032093C10389
:100F500002C08091C600FF91EF919F918F914F91B8
:100F60003F912F910F900BBE0F900FBE0F901F90CF
:100F7000189508951F920F920FB60F920BB60F920D
:100F800011242F933F934F938F939F93EF93FF934E
:100F90008091C80082FD1DC04091CE00209149047F
:100FA00030914A042F5F3F4F2F73307080914B0474
:100FB00090914C042817390771F0E0914904F091A1
:100FC0004A04E75FFB4F408330934A04209349046F
:100FD00002C08091CE00FF91EF919F918F914F9130
:100FE0003F912F910F900BBE0F900FBE0F901F904F
:100FF000189508951F920F920FB60F920BB60F928D
:1010000011242F933F934F938F939F93EF93FF93CD
:101010008091D00082FD1DC04091D6002091D10466
:101020003091D2042F5F3F4F2F7330708091D304E3
:101030009091D4042817390771F0E091D104F09110
:10104000D204EF56FB4F40833093D2042093D10457
:1010500002C08091D600FF91EF919F918F914F91A7
:101060003F912F910F900BBE0F900FBE0F901F90CE
:10107000189508951F920F920FB60F920BB60F920C
:1010800011242F933F934F938F939F93EF93FF934D
:101090008091300182FD1DC040913601209159059B
:1010A00030915A052F5F3F4F2F73307080915B0551
:1010B00090915C052817390771F0E0915905F0917E
:1010C0005A05E75EFA4F408330935A05209359053D
:1010D00002C080913601FF91EF919F918F914F91C6
:1010E0003F912F910F900BBE0F900FBE0F901F904E
:1010F0001895E091AD05F091AE05E05CFF4F819150
:10110000919120813181805C9F4F821B930B60E421
:1011100070E066D4892B09F05BD8E091CF05F0919F
:10112000D005E05CFF4F8191919120813181805CFD
:101130009F4F821B930B60E470E052D4892B09F01F
:1011400018DFE091F105F091F205E05CFF4F81912D
:10115000919120813181805C9F4F821B930B60E4D1
:1011600070E03ED4892B09F044DFE0911306F09142
:101170001406E05CFF4F8191919120813181805C68
:101180009F4F821B930B60E470E02AD4892B09F0F7
:1011900070CF08951F920F920FB60F920BB60F9259
:1011A00011242F933F938F939F93EF93FF9320915D
:1011B00005043091060480910704909108042817D3
:1011C000390731F48091C1008F7D8093C10014C034
:1011D000E0910704F0910804EB53FC4F20818091CB
:1011E00007049091080401968F73907090930804FF
:1011F000809307042093C600FF91EF919F918F91F8
:101200003F912F910F900BBE0F900FBE0F901F902C
:1012100018951F920F920FB60F920BB60F921124D2
:101220002F933F938F939F93EF93FF9320918D0480
:1012300030918E0480918F04909190042817390783
:1012400031F48091C9008F7D8093C90014C0E09172
:101250008F04F0919004E35BFB4F208180918F0419
:101260009091900401968F73907090939004809366
:101270008F042093CE00FF91EF919F918F913F912A
:101280002F910F900BBE0F900FBE0F901F901895CF
:101290001F920F920FB60F920BB60F9211242F933D
:1012A0003F938F939F93EF93FF9320911505309178
:1012B000160580911705909118052817390731F404
:1012C0008091D1008F7D8093D10014C0E0911705EB
:1012D000F0911805EB52FB4F2081809117059091FA
:1012E000180501968F7390709093180580931705D9
:1012F0002093D600FF91EF919F918F913F912F9175
:101300000F900BBE0F900FBE0F901F9018951F925D
:101310000F920FB60F920BB60F9211242F933F939B
:101320008F939F93EF93FF9320919D0530919E059E
:1013300080919F059091A0052817390731F480917D
:1013400031018F7D8093310114C0E0919F05F091B0
:10135000A005E35AFA4F208180919F059091A00546
:1013600001968F7390709093A00580939F052093B2
:101370003601FF91EF919F918F913F912F910F90A7
:101380000BBE0F900FBE0F901F901895AF92BF929B
:10139000DF92EF92FF920F931F93CF93DF93EC01B5
:1013A0007A018B01DD24403081EE580780E0680728
:1013B00080E0780711F0DD24D39491E0A92EB12CC0
:1013C000EC89FD89DD2069F0C50108A002C0880F05
:1013D000991F0A94E2F7808360E079E08DE390E062
:1013E00005C0108260E874E88EE190E0A8019701E2
:1013F0000AD321503040404050405695479537958C
:10140000279580E12030380720F0DD2011F0DD2421
:10141000D7CFE889F9893083EA89FB89208319A22B
:10142000EE89FF89408121E030E0C9010C8C02C0C7
:10143000880F991F0A94E2F7482B4083EE89FF89B1
:101440004081C9010D8C02C0880F991F0A94E2F7F0
:10145000482B4083EE89FF894081C9010E8C02C070
:10146000880F991F0A94E2F7482B4083EE89FF8981
:1014700080810F8C02C0220F331F0A94E2F720955F
:1014800028232083DF91CF911F910F91FF90EF9040
:10149000DF90BF90AF900895AF92BF92CF92DF924E
:1014A000EF92FF920F931F93CF93DF93EC017A019A
:1014B0008B01C22EDD24403081EE580780E06807A2
:1014C00080E0780711F0DD24D39471E0A72EB12CD1
:1014D000EC89FD89DD2069F0C50108A002C0880FF4
:1014E000991F0A94E2F7808360E079E08DE390E051
:1014F00005C0108260E874E88EE190E0A8019701D1
:1015000082D2215030404040504056954795379503
:10151000279580E12030380720F0DD2011F0DD2410
:10152000D7CFE889F9893083EA89FB892083E88D60
:10153000F98DC082EE89FF89408121E030E0C90148
:101540000C8C02C0880F991F0A94E2F7482B408345
:10155000EE89FF894081C9010D8C02C0880F991F57
:101560000A94E2F7482B4083EE89FF894081C90144
:101570000E8C02C0880F991F0A94E2F7482B408313
:10158000EE89FF8980810F8C02C0220F331F0A94DD
:10159000E2F7209528232083DF91CF911F910F91AF
:1015A000FF90EF90DF90CF90BF90AF900895DC0157
:1015B0001C96ED91FC911D97E05CFF4F81919191FC
:1015C00020813181805C9F4F821B930B60E470E02F
:1015D00007C2DC011C96ED91FC911D97E05CFF4F6A
:1015E00020813181E054F040DF01AE5BBF4F8D912F
:1015F0009C9111972817390719F42FEF3FEF07C077
:101600008D919C91E80FF91F8081282F30E0C9014E
:101610000895DC011C96ED91FC911D97E05CFF4F55
:1016200020813181E054F040DF01AE5BBF4F8D91EE
:101630009C9111972817390719F42FEF3FEF10C02D
:101640008D919C911197E80FF91F20818D919C91AC
:10165000119701968F73907011969C938E9330E042
:10166000C9010895DC0191968C919197882339F0F6
:101670005496ED91FC915597808186FFF9CF919614
:101680001C920895CF93DF93EC01EE85FF85E05C1B
:10169000FF4F20813181E054F0402F5F3F4F2F7387
:1016A0003070DF01AE5BBF4F8D919C911197281771
:1016B0003907D1F3E05CFF4F80819181E054F04025
:1016C000E80FF91F6083EE85FF85E05CFF4F3183F3
:1016D0002083EE89FF89208181E090E00F8C02C099
:1016E000880F991F0A94E2F7282B208381E089A3B1
:1016F000EC89FD8980818064808381E090E0DF91C6
:10170000CF9108951F931092A4051092A30528EE7F
:1017100033E040E050E02093A5053093A6054093C8
:10172000A7055093A8056FE272E07093A20560933D
:10173000A10581E893E09093AE058093AD0585EC1B
:1017400093E09093B0058093AF0585EC90E0909383
:10175000B2058093B10584EC90E09093B40580933A
:10176000B30580EC90E09093B6058093B50581ECCD
:1017700090E09093B8058093B70582EC90E0909349
:10178000BA058093B90586EC90E09093BC058093F0
:10179000BB0514E01093BD05B3E0B093BE05A7E010
:1017A000A093BF05F5E0F093C005E1E0E093C1052B
:1017B0001092C6051092C5052093C7053093C80541
:1017C0004093C9055093CA057093C4056093C3053F
:1017D00089E094E09093D0058093CF058DE494E068
:1017E0009093D2058093D1058DEC90E09093D40531
:1017F0008093D3058CEC90E09093D6058093D5052B
:1018000088EC90E09093D8058093D70589EC90E020
:101810009093DA058093D9058AEC90E09093DC05EB
:101820008093DB058EEC90E09093DE058093DD05E0
:101830001093DF05B093E005A093E105F093E20576
:10184000E093E3051092E8051092E7052093E9057F
:101850003093EA054093EB055093EC057093E60551
:101860006093E50581E994E09093F2058093F1059A
:1018700085ED94E09093F4058093F30585ED90E079
:101880009093F6058093F50584ED90E09093F8052C
:101890008093F70580ED90E09093FA058093F90529
:1018A00081ED90E09093FC058093FB0582ED90E044
:1018B0009093FE058093FD0586ED90E090930006E1
:1018C0008093FF0510930106B0930206A0930306D0
:1018D000F0930406E093050610920A06109209069A
:1018E00020930B0630930C0640930D0650930E0682
:1018F000709308066093070689E195E090931406BB
:10190000809313068DE595E0909316068093150657
:1019100085E391E0909318068093170684E391E0A5
:1019200090931A068093190680E391E090931C0629
:1019300080931B0681E391E090931E0680931D0621
:1019400082E391E09093200680931F0686E391E066
:10195000909322068093210610932306B0932406C9
:10196000A0932506F0932606E09327061F9108957D
:101970000895CF93DF935CDAFBDF0E948703C9E70A
:10198000D8E0B4D82097E9F3B4DBFBCFCF92DF9255
:10199000EF92FF920F931F93CF93DF937C016B0124
:1019A0008A01C0E0D0E00FC0D6016D916D01D70172
:1019B000ED91FC910190F081E02DC7011995C80FC0
:1019C000D91F015010400115110571F7CE01DF91AB
:1019D000CF911F910F91FF90EF90DF90CF900895DE
:1019E00097FB092E07260AD077FD04D02ED006D00B
:1019F00000201AF4709561957F4F0895F6F7909541
:101A000081959F4F0895A1E21A2EAA1BBB1BFD01D1
:101A10000DC0AA1FBB1FEE1FFF1FA217B307E407CD
:101A2000F50720F0A21BB30BE40BF50B661F771F25
:101A3000881F991F1A9469F7609570958095909505
:101A40009B01AC01BD01CF010895AA1BBB1B51E155
:101A500007C0AA1FBB1FA617B70710F0A61BB70B1E
:101A6000881F991F5A95A9F780959095BC01CD01C3
:101A70000895EE0FFF1F0590F491E02D1994F8944E
:021A8000FFCF96
:101A8200FFFF0402000000011000110022011000FB
:101A9200100122ED08005100000000ED0801500085
:101AA20001000001FFFF04010000000000000042ED
:0C1AB2000BC60CD70A090BE90A320B0026
:00000001FF
