:1000000004C100002FC100002DC100002BC1000061
:1000100029C1000027C1000025C1000023C1000044
:1000200021C1000050C300007BC30000A6C3000034
:1000300019C1000017C1000015C1000013C1000064
:1000400011C100000FC100000DC100000BC1000074
:1000500009C1000007C1000005C1000098C50000EB
:1000600001C100008BC700000C940E09FBC000000A
:10007000F9C00000F7C00000F5C00000F3C00000A8
:10008000F1C00000EFC00000EDC00000EBC00000B8
:10009000B5C700000C944D09E5C00000E3C00000A6
:1000A000E1C00000DFC00000DDC00000DBC00000D8
:1000B000D9C00000D7C00000D5C00000D3C00000E8
:1000C000D1C00000CFC00000CDC00000D7C70000E5
:1000D0000C948C09C7C000000C947E080C94CB09CA
:1000E000C1C0000000002100240027002A002D00CC
:1000F0003000330001010000040107010A01000083
:100100002200250028002B002E00310034000201BF
:100110000000050108010B0100002000230026005B
:1001200029002C002F00320000010000030106010D
:10013000090105050505070508080808020202026D
:100140000A0A080804040404010101010101010173
:100150000303030303030303040707070C0C0C0C3E
:100160000C0C0C0C02020202060606060606060627
:100170000B0B0B0B0B0B0B0B0102102020080810B4
:100180002040102040800201020108040201010207
:1001900004081020408080402010080402018004E0
:1001A000020180402010080402010804020101023B
:1001B0000408102040800102040810204080000044
:1001C000090A02080B0C0D070603040100000000D9
:1001D000000000000000000000000000000000001F
:1001E0000000000000000000000011100F000000DF
:1001F00000000000000000000000000000000000FF
:10020000000000004D01C60B480111241FBECFEFB6
:10021000D1E2DEBFCDBF00E00CBF13E0A0E0B2E052
:10022000EAEBFBE100E00BBF02C007900D92A232A7
:10023000B107D9F71BBE16E0A2E2B3E001C01D92E0
:10024000AA33B107E1F712E0C8E0D2E004C0229778
:10025000FE010E94CD0DC430D107C9F70E94FD0CEC
:100260000C94D10DCDCE8130910549F46F5F7F4F55
:1002700071F489E293E06AE04BE020E05CC4892BF2
:1002800031F46F5F7F4F19F489E293E0E2C2089581
:1002900080E090E06FEF7FEFE6CF81E090E06FEFDE
:1002A0007FEFE1CF8F929F92AF92BF92CF92DF927A
:1002B000EF92FF920F931F93CF93DF93EC01062FE2
:1002C0007A0104C088E196E00E944D0B88E196E037
:1002D0000E941B0B18161906ACF3A1D44B015C014C
:1002E00010E06701EE24FF2488E196E00E941B0BDA
:1002F000892B49F088E196E00E944D0BFE01E10F49
:10030000F11D80831F5F011751F089D468197909A5
:100310008A099B096C157D058E059F0528F3812FA1
:10032000DF91CF911F910F91FF90EF90DF90CF90D1
:10033000BF90AF909F908F90089588E196E040E83D
:1003400055E260E070E026E20C94900A873009F4F0
:1003500051C0883070F48330C9F1843028F4813082
:1003600059F1823070F523C08530D1F18630E8F53F
:1003700032C08B3009F452C08C3038F4893009F423
:1003800043C08A3008F045C03AC08A3A31F08B3B0E
:1003900049F08C3009F04EC047C082EB95E060E038
:1003A00072E040C082EB95E061E172E03BC082EB1D
:1003B00095E06CE172E036C082EB95E067E272E0B6
:1003C00031C082EB95E061E372E02CC082EB95E0F6
:1003D0006BE372E027C082EB95E063E472E022C039
:1003E00082EB95E06EE472E01DC082EB95E06AE579
:1003F00072E018C082EB95E066E672E013C082EB13
:1004000095E066E772E00EC082EB95E061E872E08D
:1004100009C082EB95E060E972E004C082EB95E0F0
:1004200060EA72E00C94710D82EB95E06EEA72E086
:100430000C94710D089581DF82EB95E040E855E260
:1004400060E070E0E7C7EF92FF920F931F93CF93A6
:10045000DF937C01C0E0D0E0062F10E00CC0F70174
:10046000EC0FFD1F6081772767FD709588E196E0AE
:100470000E94860B2196C017D1078CF3DF91CF9194
:100480001F910F91FF90EF90089586EF92E066E044
:10049000DACFEF92FF920F931F93DF93CF93CDB7F5
:1004A000DEB72A970FB6F894DEBF0FBECDBF80EF40
:1004B00092E066E0C8DF8E010F5F1F4FC80166E063
:1004C00048E853E1EFDE8630A8F087E0E82EF12C13
:1004D000EC0EFD1EF80161918F01772767FD709585
:1004E00082EB95E00E94860B0E151F0599F78C8113
:1004F0002DDF06C082EB95E062EC72E00E94710D88
:100500002A960FB6F894DEBF0FBECDBFCF91DF9114
:100510001F910F91FF90EF900895EF92FF920F932C
:100520001F93DF93CF93CDB7DEB72A970FB6F8941A
:10053000DEBF0FBECDBF482FA2E2B3E020E030E027
:1005400090E0F901E450FD4F80818C932430310517
:1005500019F44093260305C02530310511F490931A
:1005600027038D9198272F5F3F4F2630310549F79C
:100570009093280382E293E066E065DF8E010F5FCF
:100580001F4FC80166E048E853E18CDE863098F0E2
:1005900097E0E92EF12CEC0EFD1EF80161918F0120
:1005A000772767FD709582EB95E00E94860B0E150C
:1005B0001F0599F706C082EB95E06FED72E00E948F
:1005C000710D2A960FB6F894DEBF0FBECDBFCF9146
:1005D000DF911F910F91FF90EF90089556DF68E82B
:1005E00073E180E090E029D385E090E096DF51DF71
:1005F000FFCF0F931F93CF93DF93FC01738D7695FD
:100600007170A685B7859585772329F08C9189230C
:1006100009F454C004C08C91892309F04FC0838928
:10062000948920E001972FEF8F3F9207D9F7C58972
:10063000D689A685B785158560E031E040E050E0B9
:1006400000E0CE01202F01972FEF8F3F9207D9F7BF
:100650008C91812311F0632B03C0832F8095682335
:10066000330F4F5F5F4F4830510559F78789908DA1
:1006700020E001972FEF8F3F9207D9F77111609516
:10068000809187032091880390E001968F7390708A
:1006900030E08217930779F0E0918703F0E0E95B9F
:1006A000FC4F60838091870390E001968F73907078
:1006B0008093870303C0838D8160838FDF91CF9107
:1006C0001F910F9108951F920F920FB60F920BB6C4
:1006D0000F9211242F933F934F935F936F937F93C8
:1006E0008F939F93AF93BF93EF93FF9380914503B5
:1006F00090914603009709F07CDFFF91EF91BF9145
:10070000AF919F918F917F916F915F914F913F91A9
:100710002F910F900BBE0F900FBE0F901F9018954A
:100720001F920F920FB60F920BB60F9211242F93B8
:100730003F934F935F936F937F938F939F93AF9369
:10074000BF93EF93FF9380914503909146030097E9
:1007500009F04FDFFF91EF91BF91AF919F918F9182
:100760007F916F915F914F913F912F910F900BBEB1
:100770000F900FBE0F901F9018951F920F920FB6FB
:100780000F920BB60F9211242F933F934F935F93C9
:100790006F937F938F939F93AF93BF93EF93FF9349
:1007A0008091450390914603009709F022DFFF9165
:1007B000EF91BF91AF919F918F917F916F915F91D9
:1007C0004F913F912F910F900BBE0F900FBE0F9046
:1007D0001F901895FC012485922F9A50943060F058
:1007E000822F8253843040F08C50883088F5EDE6BB
:1007F000F0E0ADE6B0E004C0EBE6F0E0ABE6B0E080
:100800004081943020F430E02650304015C022332F
:1008100011F487EF1BC0233311F48BEF17C024337F
:1008200011F48DEF13C0253381F0822F8E53883061
:1008300060F430E02E53304081E090E002C0880F39
:10084000991F2A95E2F7809501C08EEF84238C933F
:100850000895FC0186E093E091838083CF01BACFB5
:1008600020914503309146032817390731F49091C0
:10087000880380918703981719F42FEF3FEF0FC07B
:10088000E0918803F0E0E95BFC4F208180918803D0
:1008900090E001968F7390708093880330E0C901D7
:1008A000089520914503309146032817390719F020
:1008B00020E030E00EC0809187032091880390E013
:1008C000805C9F4F821B910960E470E00E94820D62
:1008D0009C01C90108950F931F93DC0159968D91D6
:1008E0009C915A97892B49F481E090E013969C9350
:1008F0008E93129720E030E097C00FB7F8945B9684
:100900008C915B975196ED91FC91529750962C915A
:10091000509781FF8DC08081822B808359968D9165
:100920009C915A97059620E001972FEF8F3F9207F1
:10093000D9F75B968C915B9781FF35C031E040E041
:1009400050E070E010E0832F90E0862397235196CB
:10095000ED91FC91529750962C915097892B29F04C
:10096000808120952823208303C08081822B80836F
:1009700059968D919C915A97212F01972FEF8F3F78
:100980009207D9F7330F4F5F5F4F48305105D9F6C3
:100990005196ED91FC915297908150968C91509781
:1009A0008095892333C031E040E050E070E010E0F2
:1009B000832F90E0862397235196ED91FC915297D7
:1009C00050962C915097892B21F08081822B808327
:1009D00004C0808120952823208359968D919C9175
:1009E0005A97212F01972FEF8F3F9207D9F7330F97
:1009F0004F5F5F4F48305105D9F65196ED91FC910C
:100A00005297808150969C915097892B80830FBF7D
:100A100059968D919C915A9720E001972FEF8F3F27
:100A20009207D9F721E030E0C9011F910F91089595
:100A3000808120952823208371CF20914503309118
:100A400046032817390749F49FB7F8941092870393
:100A500080918703809388039FBF08952091450369
:100A6000309146032817390731F49091880380911B
:100A70008703981719F42FEF3FEF0AC0E09188031E
:100A8000F0E0E95BFC4F8081282F332727FD30956C
:100A9000C90108951F93CF93DF93EC01162F862F82
:100AA00060E086D18B8D81FD03C0812F61E033D260
:100AB0001C87212F30E0C90188589E4FFC0184918A
:100AC0008D872E5C3E4FF9016491E62FF0E0EE0F2A
:100AD000FF1FE85EFE4F859194919F878E87DF917F
:100AE000CF911F9108951F93CF93DF93EC01162FA1
:100AF000862F61E05DD160E08B8D81FF61E0812F09
:100B00000AD2212F30E0C90188589E4FFC01849100
:100B1000888B2E5C3E4FF9016491E62FF0E0EE0FDA
:100B2000FF1FE250FF4F859194919A8B898BDF9143
:100B3000CF911F910895FF920F931F938C01F62E72
:100B4000FC011382128288EE93E0A0E0B0E084837F
:100B50009583A683B78386E093E091838083148A8C
:100B6000138A168A158A108E178A128E118E838D1B
:100B70002170220F8C7F822B838FC801642FB3DFFB
:100B8000C8016F2D87DF1F910F91FF9008951F926D
:100B90000F920FB60F9211242F933F938F939F9331
:100BA000AF93BF9380918D0390918E03A0918F039B
:100BB000B0919003309191030196A11DB11D232F97
:100BC0002D5F2D3720F02D570196A11DB11D2093CB
:100BD000910380938D0390938E03A0938F03B09322
:100BE00090038091890390918A03A0918B03B09127
:100BF0008C030196A11DB11D8093890390938A03F4
:100C0000A0938B03B0938C03BF91AF919F918F9171
:100C10003F912F910F900FBE0F901F9018958FB797
:100C2000F89420918D0330918E0340918F03509161
:100C300090038FBFB901CA0108959B01AC017FB732
:100C4000F8948091890390918A03A0918B03B091CD
:100C50008C0366B5A89B05C06F3F19F00196A11DD6
:100C6000B11D7FBFBA2FA92F982F8827860F911DFE
:100C7000A11DB11D62E0880F991FAA1FBB1F6A95B5
:100C8000D1F7BC012DC0FFB7F894809189039091F2
:100C90008A03A0918B03B0918C03E6B5A89B05C095
:100CA000EF3F19F00196A11DB11DFFBFBA2FA92F6B
:100CB000982F88278E0F911DA11DB11DE2E0880F8E
:100CC000991FAA1FBB1FEA95D1F7861B970B885E59
:100CD0009340C8F2215030404040504068517C4F12
:100CE000211531054105510571F60895789484B5B3
:100CF000826084BD84B5816084BD85B5826085BD18
:100D000085B5816085BDEEE6F0E0808181608083FD
:100D1000E1E8F0E0108280818260808380818160E0
:100D20008083E0E8F0E0808181608083E1EBF0E0A7
:100D3000808184608083E0EBF0E08081816080834B
:100D4000E1E9F0E08081826080838081816080833E
:100D5000E0E9F0E0808181608083E1EAF0E0808179
:100D600082608083808181608083E0EAF0E080811E
:100D700081608083E1E2F1E0808182608083808114
:100D800081608083E0E2F1E0808181608083EAE736
:100D9000F0E08081846080838081826080838081B4
:100DA000816080838081806880831092C100089573
:100DB000CF93DF93482F50E0CA0188589E4FFC0123
:100DC00034914E5C5E4FFA018491882369F190E082
:100DD000880F991FFC01EC51FF4FA591B491FC01C4
:100DE000E250FF4FC591D491662351F42FB7F89488
:100DF0008C91932F909589238C93888189230BC0A4
:100E0000623061F42FB7F8948C91932F90958923D9
:100E10008C938881832B88832FBF06C09FB7F8945B
:100E20008C91832B8C939FBFDF91CF910895893054
:100E300009F449C08A30A0F4843051F1853040F47F
:100E4000823079F1833000F5813009F063C026C02B
:100E5000873079F1883098F5863009F05BC025C07D
:100E60008D3009F442C08E3028F48B30B1F18C30D3
:100E7000C0F52DC0803109F442C0813109F445C06C
:100E80008F3009F047C037C0809180008F7703C052
:100E9000809180008F7D80938000089584B58F7746
:100EA00002C084B58F7D84BD08958091B0008F7796
:100EB00003C08091B0008F7D8093B0000895809131
:100EC00090008F7707C0809190008F7D03C0809144
:100ED0009000877F8093900008958091A0008F7785
:100EE00007C08091A0008F7D03C08091A000877F04
:100EF0008093A0000895809120018F7703C0809196
:100F000020018F7D80932001089580912001877FAB
:100F1000809320010895FF920F931F93F62E482F80
:100F200050E0CA0182549E4FFC012491CA018858A6
:100F30009E4FFC0114914E5C5E4FFA010491002318
:100F4000C1F0222311F0822F72DFE02FF0E0EE0FCC
:100F5000FF1FE250FF4FA591B4919FB7F894FF2077
:100F600021F48C911095812302C08C91812B8C935C
:100F70009FBF1F910F91FF90089508951F920F92A8
:100F80000FB60F920BB60F9211242F933F934F93EE
:100F90008F939F93EF93FF938091C00082FD1DC0BC
:100FA0004091C6002091D2033091D3032F5F3F4F71
:100FB0002F7330708091D4039091D503281739078F
:100FC00071F0E091D203F091D303EE56FC4F4083D1
:100FD0003093D3032093D20302C08091C600FF91C7
:100FE000EF919F918F914F913F912F910F900BBE59
:100FF0000F900FBE0F901F90189508951F920F929B
:101000000FB60F920BB60F9211242F933F934F936D
:101010008F939F93EF93FF938091C80082FD1DC033
:101020004091CE0020915A0430915B042F5F3F4FD6
:101030002F73307080915C0490915D0428173907FC
:1010400071F0E0915A04F0915B04E65EFB4F40833F
:1010500030935B0420935A0402C08091CE00FF912C
:10106000EF919F918F914F913F912F910F900BBED8
:101070000F900FBE0F901F90189508951F920F921A
:101080000FB60F920BB60F9211242F933F934F93ED
:101090008F939F93EF93FF938091D00082FD1DC0AB
:1010A0004091D6002091E2043091E3042F5F3F4F3E
:1010B0002F7330708091E4049091E504281739076C
:1010C00071F0E091E204F091E304EE55FB4F4083B0
:1010D0003093E3042093E20402C08091D600FF9194
:1010E000EF919F918F914F913F912F910F900BBE58
:1010F0000F900FBE0F901F90189508951F920F929A
:101100000FB60F920BB60F9211242F933F934F936C
:101110008F939F93EF93FF938091300182FD1DC0C9
:101120004091360120916A0530916B052F5F3F4F4A
:101130002F73307080916C0590916D0528173907D9
:1011400071F0E0916A05F0916B05E65DFA4F40831E
:1011500030936B0520936A0502C080913601FF91A0
:10116000EF919F918F914F913F912F910F900BBED7
:101170000F900FBE0F901F901895E091BE05F09153
:10118000BF05E05CFF4F8191919120813181805CAE
:101190009F4F821B930B60E470E0B4D4892B09F05D
:1011A000ECDEE091E005F091E105E05CFF4F81911C
:1011B000919120813181805C9F4F821B930B60E471
:1011C00070E0A0D4892B09F018DFE0910206F091BD
:1011D0000306E05CFF4F8191919120813181805C19
:1011E0009F4F821B930B60E470E08CD4892B09F035
:1011F00044DFE0912406F0912506E05CFF4F8191E9
:10120000919120813181805C9F4F821B930B60E420
:1012100070E078D4892B09F070CF08951F920F9257
:101220000FB60F920BB60F9211242F933F938F930B
:101230009F93EF93FF9320911604309117048091B0
:101240001804909119042817390731F48091C100CE
:101250008F7D8093C10014C0E0911804F0911904AF
:10126000EA52FC4F20818091180490911904019654
:101270008F73907090931904809318042093C60084
:10128000FF91EF919F918F913F912F910F900BBE06
:101290000F900FBE0F901F9018951F920F920FB6D0
:1012A0000F920BB60F9211242F933F938F939F931E
:1012B000EF93FF9320919E0430919F048091A004AE
:1012C0009091A1042817390731F48091C9008F7DCE
:1012D0008093C90014C0E091A004F091A104E25AE7
:1012E000FB4F20818091A0049091A10401968F73FF
:1012F00090709093A1048093A0042093CE00FF915E
:10130000EF919F918F913F912F910F900BBE0F9076
:101310000FBE0F901F9018951F920F920FB60F924D
:101320000BB60F9211242F933F938F939F93EF93BC
:10133000FF932091260530912705809128059091F3
:1013400029052817390731F48091D1008F7D8093CA
:10135000D10014C0E0912805F0912905EA51FB4F16
:101360002081809128059091290501968F739070B6
:1013700090932905809328052093D600FF91EF9143
:101380009F918F913F912F910F900BBE0F900FBEA9
:101390000F901F9018951F920F920FB60F920BB6D9
:1013A0000F9211242F933F938F939F93EF93FF936B
:1013B0002091AE053091AF058091B0059091B105B7
:1013C0002817390731F4809131018F7D80933101E5
:1013D00014C0E091B005F091B105E259FA4F2081B7
:1013E0008091B0059091B10501968F7390709093A4
:1013F000B1058093B00520933601FF91EF919F9145
:101400008F913F912F910F900BBE0F900FBE0F90B9
:101410001F901895AF92BF92DF92EF92FF920F93B9
:101420001F93CF93DF93EC017A018B01DD244030D1
:1014300081EE580780E0680780E0780711F0DD242E
:10144000D39491E0A92EB12CEC89FD89DD2069F0BF
:10145000C50108A002C0880F991F0A94E2F7808393
:1014600060E079E08DE390E005C0108260E874E808
:101470008EE190E0A801970158D3215030404040C0
:101480005040569547953795279580E1203038078D
:1014900020F0DD2011F0DD24D7CFE889F9893083F1
:1014A000EA89FB89208319A2EE89FF89408121E026
:1014B00030E0C9010C8C02C0880F991F0A94E2F732
:1014C000482B4083EE89FF894081C9010D8C02C001
:1014D000880F991F0A94E2F7482B4083EE89FF8911
:1014E0004081C9010E8C02C0880F991F0A94E2F74F
:1014F000482B4083EE89FF8980810F8C02C0220F28
:10150000331F0A94E2F7209528232083DF91CF919F
:101510001F910F91FF90EF90DF90BF90AF900895D3
:10152000AF92BF92CF92DF92EF92FF920F931F93F1
:10153000CF93DF93EC017A018B01C22EDD24403082
:1015400081EE580780E0680780E0780711F0DD241D
:10155000D39471E0A72EB12CEC89FD89DD2069F0D0
:10156000C50108A002C0880F991F0A94E2F7808382
:1015700060E079E08DE390E005C0108260E874E8F7
:101580008EE190E0A8019701D0D221503040404038
:101590005040569547953795279580E1203038077C
:1015A00020F0DD2011F0DD24D7CFE889F9893083E0
:1015B000EA89FB892083E88DF98DC082EE89FF8955
:1015C000408121E030E0C9010C8C02C0880F991FD6
:1015D0000A94E2F7482B4083EE89FF894081C901D4
:1015E0000D8C02C0880F991F0A94E2F7482B4083A4
:1015F000EE89FF894081C9010E8C02C0880F991FB6
:101600000A94E2F7482B4083EE89FF8980810F8C92
:1016100002C0220F331F0A94E2F72095282320836B
:10162000DF91CF911F910F91FF90EF90DF90CF90BE
:10163000BF90AF900895DC011C96ED91FC911D9731
:10164000E05CFF4F8191919120813181805C9F4FBF
:10165000821B930B60E470E055C2DC011C96ED9197
:10166000FC911D97E05CFF4F20813181E054F040F8
:10167000DF01AE5BBF4F8D919C9111972817390701
:1016800019F42FEF3FEF07C08D919C91E80FF91FE0
:101690008081282F30E0C9010895DC011C96ED916E
:1016A000FC911D97E05CFF4F20813181E054F040B8
:1016B000DF01AE5BBF4F8D919C91119728173907C1
:1016C00019F42FEF3FEF10C08D919C911197E80F07
:1016D000F91F20818D919C91119701968F739070C5
:1016E00011969C938E9330E0C9010895DC01919688
:1016F0008C919197882339F05496ED91FC915597F0
:10170000808186FFF9CF91961C920895CF93DF9345
:10171000EC01EE85FF85E05CFF4F20813181E054D4
:10172000F0402F5F3F4F2F733070DF01AE5BBF4F34
:101730008D919C91119728173907D1F3E05CFF4FE9
:1017400080819181E054F040E80FF91F6083EE85BD
:10175000FF85E05CFF4F31832083EE89FF89208184
:1017600081E090E00F8C02C0880F991F0A94E2F785
:10177000282B208381E089A3EC89FD898081806406
:10178000808381E090E0DF91CF9108951F931092C4
:10179000B5051092B40528EE33E040E050E0209308
:1017A000B6053093B7054093B8055093B90566E187
:1017B00073E07093B3056093B20582E993E0909370
:1017C000BF058093BE0586ED93E09093C10580939D
:1017D000C00585EC90E09093C3058093C20584EC2E
:1017E00090E09093C5058093C40580EC90E09093C1
:1017F000C7058093C60581EC90E09093C90580935E
:10180000C80582EC90E09093CB058093CA0586ECE6
:1018100090E09093CD058093CC0514E01093CE0515
:10182000B3E0B093CF05A7E0A093D005F5E0F09327
:10183000D105E1E0E093D2051092D7051092D605CC
:101840002093D8053093D9054093DA055093DB05F2
:101850007093D5056093D4058AE194E09093E105F7
:101860008093E0058EE594E09093E3058093E20594
:101870008DEC90E09093E5058093E4058CEC90E08E
:101880009093E7058093E60588EC90E09093E90556
:101890008093E80589EC90E09093EB058093EA054E
:1018A0008AEC90E09093ED058093EC058EEC90E04F
:1018B0009093EF058093EE051093F005B093F1053A
:1018C000A093F205F093F305E093F4051092F90567
:1018D0001092F8052093FA053093FB054093FC0520
:1018E0005093FD057093F7056093F60582EA94E046
:1018F000909303068093020686EE94E0909305068B
:101900008093040685ED90E0909307068093060689
:1019100084ED90E0909309068093080680ED90E0B6
:1019200090930B0680930A0681ED90E090930D064C
:1019300080930C0682ED90E090930F0680930E0644
:1019400086ED90E090931106809310061093120696
:10195000B0931306A0931406F0931506E0931606B1
:1019600010921B0610921A0620931C0630931D0637
:1019700040931E0650931F06709319066093180635
:101980008AE295E090932506809324068EE695E002
:10199000909327068093260685E391E0909329068D
:1019A0008093280684E391E090932B0680932A0687
:1019B00080E391E090932D0680932C0681E391E0E3
:1019C00090932F0680932E0682E391E09093310648
:1019D0008093300686E391E090933306809332063D
:1019E00010933406B0933506A0933606F09337066D
:1019F000E09338061F9108950895CF93DF9376D929
:101A0000FBDF0E941B02CDEBD8E00E94EE02209784
:101A1000E1F3B3DBFACFCF92DF92EF92FF920F9315
:101A20001F93CF93DF937C016B018A01C0E0D0E06C
:101A30000FC0D6016D916D01D701ED91FC91019020
:101A4000F081E02DC7011995C80FD91F0150104032
:101A50000115110571F7CE01DF91CF911F910F9103
:101A6000FF90EF90DF90CF900895EF92FF920F9349
:101A70001F938C01DC01ED91FC910190F081E02D30
:101A80006DE019957C01D801ED91FC910190F081F8
:101A9000E02DC8016AE019959C012E0D3F1DC9017A
:101AA0001F910F91FF90EF900895CF93DF93EC017A
:101AB0006115710519F420E030E00FC0DB010D90D5
:101AC0000020E9F71197A61BB70BE881F981028086
:101AD000F381E02DAD0119959C01C901DF91CF91F2
:101AE0000895EF92FF920F931F937C01DEDF8C012C
:101AF000C701BBDF080F191FC8011F910F91FF908D
:101B0000EF90089597FB092E07260AD077FD04D0A1
:101B10002ED006D000201AF4709561957F4F08955D
:101B2000F6F7909581959F4F0895A1E21A2EAA1B72
:101B3000BB1BFD010DC0AA1FBB1FEE1FFF1FA2177D
:101B4000B307E407F50720F0A21BB30BE40BF50B7A
:101B5000661F771F881F991F1A9469F76095709503
:101B6000809590959B01AC01BD01CF010895AA1B02
:101B7000BB1B51E107C0AA1FBB1FA617B70710F078
:101B8000A61BB70B881F991F5A95A9F780959095AA
:101B9000BC01CD010895EE0FFF1F0590F491E02DDB
:101BA000199412E0C8E0D2E003C0FE01F6DF2296ED
:0A1BB000CA30D107D1F7F894FFCF37
:101BBA005061794F75745375636365737366756C99
:101BCA00005061794F75744661696C005374617491
:101BDA00757346696E6500456D7074794E6F7465EC
:101BEA000053746F636B4C657373004E6F74654A70
:101BFA00616D004F7665724C656E677468004E6F52
:101C0A0074654E6F74457869740053656E736F72AC
:101C1A004572726F7200446F75626C654E6F7465BF
:101C2A004572726F72004D6F746F724572726F7285
:101C3A000044697370656E73696E674275737900E3
:101C4A0053656E736F7241646A757374696E670067
:101C5A00436865636B53756D4572726F72004C6FA2
:101C6A0077506F7765724572726F720068656C6C37
:101C7A006F00436865636B5374617475735061795F
:101C8A0042696C6C2054696D65204F757420005050
:101C9A00617962696C6C2054696D65204F757400B6
:101CAA00011000110022011000120023011000107F
:101CBA000122000000006B040B0D510430042E05B4
:101CCA001D0500000000860B0B0D1B0B4D0B2D0B89
:021CDA00760B87
:00000001FF
