:1000000072C000009DC000009BC0000099C00000AD
:1000100097C0000095C0000093C0000091C0000090
:100020008FC00000EEC5000019C6000044C60000E5
:1000300087C0000085C0000083C0000081C00000B0
:100040007FC000007DC000007BC0000079C00000C0
:1000500077C0000075C0000073C0000059C60000E2
:100060006FC000000DC700000C94900869C000002C
:1000700067C0000065C0000063C0000061C00000F0
:100080005FC000005DC000005BC0000059C0000000
:1000900037C700000C94CF0853C0000051C00000C7
:1000A0004FC000004DC000004BC0000049C0000020
:1000B00047C0000045C0000043C0000041C0000030
:1000C0003FC000003DC000003BC0000059C7000019
:1000D0000C940E0935C0000093C700000C944D0924
:1000E0002FC00000480B11241FBECFEFD1E2DEBFAE
:1000F000CDBF00E00CBF12E0A0E0B2E0E8EAFAE118
:1001000000E00BBF02C007900D92A834B107D9F7E9
:100110001BBE16E0A8E4B2E001C01D92AD39B107E4
:10012000E1F710E0C6EED0E004C02297FE010E9485
:100130004E0DC43ED107C9F70E947F0C0C94520D9E
:100140005FCF873071F1883070F4833051F18430A3
:1001500028F4813031F18230C8F415C0853009F1BE
:100160008630C0F415C08B30E1F08C3028F4893033
:10017000C1F08A3098F410C08A3A99F08B3B89F02C
:100180008C3071F40EC0109228030DC082E009C0BB
:1001900084E007C086E005C088E003C08AE001C0B3
:1001A0008EEF80932803809128030895823459F0BC
:1001B000833428F4803439F0813439F404C0833432
:1001C00011F0843411F480933E0380913E0308952E
:1001D000CF93DF9315C080911003C82FD0E085E145
:1001E00096E00E94CF0AC85BDD4F888380911003A0
:1001F000873C19F41092100303C08F5F80931003A3
:1002000085E196E00E949D0A892B29F7DF91CF9125
:100210000895AF92BF92CF92DF92EF92FF920F9329
:100220001F93CF93DF93EC018B0104C087E396E02B
:100230000E94CF0A87E396E00E949D0A18161906CD
:10024000ACF3AED55B016C01780100E010E087E310
:1002500096E00E949D0A892B39F087E396E00E9480
:10026000CF0A888381E00BC09BD56A197B098C0972
:100270009D096E157F058007910748F380E0DF91A7
:10028000CF911F910F91FF90EF90DF90CF90BF9093
:10029000AF9008958F929F92AF92BF92CF92DF92CC
:1002A000EF92FF920F931F93CF93DF93EC01062FF2
:1002B0007A0104C089E596E00E94CF0A89E596E0BC
:1002C0000E949D0A18161906ACF36AD54B015C0111
:1002D00010E06701EE24FF2489E596E00E949D0A64
:1002E000892B49F089E596E00E94CF0AFE01E10FD3
:1002F000F11D80831F5F011751F052D568197909EC
:100300008A099B096C157D058E059F0528F3812FB1
:10031000DF91CF911F910F91FF90EF90DF90CF90E1
:10032000BF90AF909F908F9008958F929F92AF92C1
:10033000BF92CF92DF92EF92FF920F931F93CF93D2
:10034000DF93EC01062F7A0104C08BE796E00E9450
:10035000CF0A8BE796E00E949D0A18161906ACF3A7
:100360001FD54B015C0110E06701EE24FF248BE7F1
:1003700096E00E949D0A892B49F08BE796E00E9447
:10038000CF0AFE01E10FF11D80831F5F011751F0BD
:1003900007D5681979098A099B096C157D058E05B1
:1003A0009F0528F3812FDF91CF911F910F91FF902F
:1003B000EF90DF90CF90BF90AF909F908F90089577
:1003C00087E396E040E855E260E070E026E20C94B6
:1003D000120A8BE796E040E855E260E070E026E222
:1003E0000C94120A89E596E040E855E260E070E07E
:1003F00093C7E6DFEEDFF6DF85E196E040E855E201
:1004000060E070E089C7EF92FF920F931F93CF9344
:10041000DF937C01C0E0D0E0062F10E00CC0F701B4
:10042000EC0FFD1F6081772767FD70958BE796E0E5
:100430000E94080B2196C017D1078CF3DF91CF9152
:100440001F910F91FF90EF900895EF92FF920F93FD
:100450001F93CF93DF938C01C0E0D0E0E62EFF2402
:1004600014C0F8016081772767FD709589E596E0F3
:100470000E94080BF80161918F01772767FD709545
:1004800085E196E00E94080B2196CE15DF054CF31E
:10049000DF91CF911F910F91FF90EF9008954091C0
:1004A00030024F5FA3E3B3E020E030E090E0F901D9
:1004B000E05EFD4F80818C932230310519F440932A
:1004C000350305C02730310511F490933A038D911F
:1004D00098272F5F3F4F2830310549F790933B0312
:1004E00083E393E068E0B1DF809130028F5F809317
:1004F000300208950F931F93DF93CF93CDB7DEB7EC
:100500002A970FB6F894DEBF0FBECDBF8C01C7DFB0
:10051000CE01019668E048E853E1BCDE9FEFF801A8
:1005200090839183863068F08C8180838E81818373
:100530008081883239F0893229F0803219F08EEFCB
:1005400001C08DEF80932A032A960FB6F894DEBF80
:100550000FBECDBFCF91DF911F910F910895682FEE
:10056000772767FD709587E396E00C94080B8EE380
:10057000F6CF8EE5F4CF1092A70380E3F0CFCF93B0
:10058000DF930DC087E396E00E94CF0AFE01E15C95
:10059000FC4F80832196D093A403C093A30387E3E9
:1005A00096E0CBD7C091A303D091A403892B51F738
:1005B0008091A5039091A603C817D907C1F0FC014B
:1005C000E15CFC4FE08101969093A6038093A50324
:1005D000E13841F0EF3859F482E0C1DF81E08093E7
:1005E000A70305C081E08093A7038EE5B8DFDF9104
:1005F000CF910895DF93CF930F92CDB7DEB78CE004
:10060000AEDF8FEF8983CE01019668E873E101DEEA
:100610008823A9F18981873299F1883280F4833265
:1006200079F1843238F4813259F18232D0F4803257
:1006300021F526C0853221F18632B8F414C08E32FD
:10064000F9F08F3238F48932D9F0893280F08A3269
:10065000A1F416C08E33A1F08E3559F08F3269F4B3
:100660000FC082E20DC084E20BC086E209C088E2BE
:1006700007C081E08093A70305C08EEF01C08DEF16
:1006800080933D0380913D030F90CF91DF910895BA
:10069000EF92FF920F931F9383D37B018C01809184
:1006A000150390911603A0911703B0911803A801A8
:1006B0009701281B390B4A0B5B0BDA01C9018052E9
:1006C0009F4BA240B04048F0E0921503F092160311
:1006D00000931703109318038DDF809119039091F5
:1006E0001A03A0911B03B0911C03A8019701281BBA
:1006F000390B4A0B5B0BDA01C901805F964CA240B3
:10070000B04040F0E0921903F0921A0300931B03EB
:1007100010931C0380911D0390911E03A0911F0351
:10072000B0912003A8019701281B390B4A0B5B0BE2
:10073000DA01C901805C9E4CA240B04040F0E092DA
:100740001D03F0921E0300931F03109320031F91BB
:100750000F91FF90EF900895EF92FF920F931F93E8
:10076000CF93DF937C01C0E0D0E0062F10E00BC0F8
:10077000F701EC0FFD1F6081772767FD709585E11C
:1007800096E046D72196C017D10794F3DF91CF9119
:100790001F910F91FF90EF90089580931702909111
:1007A000150220911602920F980F80911802980F4F
:1007B00080911902980F90932103909590931902BC
:1007C00083E192E067E0C8CFDF93CF93CDB7DEB788
:1007D0002A970FB6F894DEBF0FBECDBF482FA2E216
:1007E000B3E020E030E090E0F901E65EFD4F80816B
:1007F0008C932430310519F44093260305C025302D
:10080000310511F4909327038D9198272F5F3F4F67
:100810002630310549F79093290382E293E066E0A0
:10082000F2DDCE01019666E048E853E17EDD8630D8
:1008300018F08C8186DC01C08DEF67E0AEDF2A9670
:100840000FB6F894DEBF0FBECDBFCF91DF910895F4
:10085000809335029091330220913402920F980FC9
:1008600080913602980F80913702980F90933C0345
:1008700090959093370281E392E067E06DCF0F93FC
:100880001F93DF93CF930F92CDB7DEB774DE8091C5
:10089000A703882351F48DEF67E0DADF85E196E066
:1008A00060E072E00E94F20C2DC085E196E06AE003
:1008B00072E00E94F20C9EDE8E3F69F458DE8FEFEC
:1008C00089838E010F5F1F4FC80160E375E7A1DCCC
:1008D000882321F413C067E0BBDF14C0898181380D
:1008E00081F4C80160ED77E094DC882339F08981D8
:1008F0005DDC67E0ADDF82E032DE03C08DEF67E0F4
:10090000A7DF37DE0F90CF91DF911F910F910895F0
:10091000EF92FF920F931F93DF93CF93CDB7DEB784
:100920002C970FB6F894DEBF0FBECDBF582F409165
:100930003002ABE2B3E020E030E090E0F901E85DA6
:10094000FD4F80818C932230310521F440932D039B
:100950004F5F0BC02530310519F45093300305C0AB
:100960002730310511F4909332038D9198272F5F32
:100970003F4F2830310511F74093300290933B03ED
:100980008BE293E068E061DD809130028F3F11F4EB
:10099000109230028E010D5F1F4FC80168E048E8D9
:1009A00053E178DC863088F07801E80EF11C09C04C
:1009B000F80161918F01772767FD709585E196E0D9
:1009C00027D60E151F05A1F703C0CE01019692DDB3
:1009D0002C960FB6F894DEBF0FBECDBFCF91DF913E
:1009E0001F910F91FF90EF900895DAD160931D034E
:1009F00070931E0380931F03909320036093190349
:100A000070931A0380931B0390931C036093150348
:100A1000709316038093170390931803E0911303C8
:100A2000F0E0E85BFD4F248185819381923071F085
:100A3000933081F0913091F4233029F0243021F06B
:100A4000213061F41CCF97CD82E089CD213031F483
:100A500090E0BACE233011F490E05ACF08959091EF
:100A6000110380911003981709F45DC0E92FF0E09D
:100A7000E85BFD4F4081973C19F41092110303C0CD
:100A80009F5F90931103809112038230E9F08330CD
:100A900030F4882351F0813009F045C00AC083301A
:100AA000E9F0843009F03FC024C04F3FE1F581E018
:100AB0001DC04F3F81F482E08093120380911103A7
:100AC00082508093130308954093140383E080932E
:100AD0001203453140F110921203089580911403DE
:100AE0008150809314038130F1F484E080931203E9
:100AF0000895E09113032E2F2E5FF0E0E85BFD4F89
:100B00003281320F90E007C0E22FF0E0E85BFD4F4A
:100B10008081980F2F5F2317B9F79095941709F4E8
:100B200064DF1092120308952ADD99DFB1CD0F938F
:100B30001F93CF93DF93FC01738D76957170A6851B
:100B4000B7859585772329F08C91892309F454C0C2
:100B500004C08C91892309F04FC08389948920E0D7
:100B600001972FEF8F3F9207D9F7C589D689A685C0
:100B7000B785158560E031E040E050E000E0CE014F
:100B8000202F01972FEF8F3F9207D9F78C91812368
:100B900011F0632B03C0832F80956823330F4F5FC1
:100BA0005F4F4830510559F78789908D20E00197B4
:100BB0002FEF8F3F9207D9F7711160958091EA036B
:100BC0002091EB0390E001968F73907030E08217D4
:100BD000930779F0E091EA03F0E0E655FC4F60837B
:100BE0008091EA0390E001968F7390708093EA03FE
:100BF00003C0838D8160838FDF91CF911F910F910F
:100C000008951F920F920FB60F920BB60F921124F8
:100C10002F933F934F935F936F937F938F939F9304
:100C2000AF93BF93EF93FF938091A8039091A90393
:100C3000009709F07CDFFF91EF91BF91AF919F91F9
:100C40008F917F916F915F914F913F912F910F9075
:100C50000BBE0F900FBE0F901F9018951F920F9212
:100C60000FB60F920BB60F9211242F933F934F9311
:100C70005F936F937F938F939F93AF93BF93EF9304
:100C8000FF938091A8039091A903009709F04FDF8B
:100C9000FF91EF91BF91AF919F918F917F916F9154
:100CA0005F914F913F912F910F900BBE0F900FBE10
:100CB0000F901F9018951F920F920FB60F920BB6C0
:100CC0000F9211242F933F934F935F936F937F93D2
:100CD0008F939F93AF93BF93EF93FF938091A8035C
:100CE0009091A903009709F022DFFF91EF91BF9146
:100CF000AF919F918F917F916F915F914F913F91B4
:100D00002F910F900BBE0F900FBE0F901F90189554
:100D10001F920F920FB60F9211242F933F938F9330
:100D20009F93AF93BF938091F0039091F103A091B3
:100D3000F203B091F3033091F4030196A11DB11DAC
:100D4000232F2D5F2D3720F02D570196A11DB11DAA
:100D50002093F4038093F0039093F103A093F203A4
:100D6000B093F3038091EC039091ED03A091EE0317
:100D7000B091EF030196A11DB11D8093EC039093F8
:100D8000ED03A093EE03B093EF03BF91AF919F915A
:100D90008F913F912F910F900FBE0F901F9018953C
:100DA0008FB7F8942091F0033091F1034091F20352
:100DB0005091F3038FBFB901CA010895789484B5A7
:100DC000826084BD84B5816084BD85B5826085BD47
:100DD00085B5816085BDEEE6F0E08081816080832D
:100DE000E1E8F0E010828081826080838081816010
:100DF0008083E0E8F0E0808181608083E1EBF0E0D7
:100E0000808184608083E0EBF0E08081816080837A
:100E1000E1E9F0E08081826080838081816080836D
:100E2000E0E9F0E0808181608083E1EAF0E08081A8
:100E300082608083808181608083E0EAF0E080814D
:100E400081608083E1E2F1E0808182608083808143
:100E500081608083E0E2F1E0808181608083EAE765
:100E6000F0E08081846080838081826080838081E3
:100E7000816080838081806880831092C1000895A2
:100E80001F920F920FB60F920BB60F9211242F9351
:100E90003F934F938F939F93EF93FF938091C00065
:100EA00082FD1DC04091C60020913504309136046A
:100EB0002F5F3F4F2F73307080913704909138042B
:100EC0002817390771F0E0913504F0913604EB50A2
:100ED000FC4F4083309336042093350402C0809148
:100EE000C600FF91EF919F918F914F913F912F916C
:100EF0000F900BBE0F900FBE0F901F901895089586
:100F00001F920F920FB60F920BB60F9211242F93D0
:100F10003F934F938F939F93EF93FF938091C800DC
:100F200082FD1DC04091CE002091BD043091BE04D1
:100F30002F5F3F4F2F7330708091BF049091C0049A
:100F40002817390771F0E091BD04F091BE04E35811
:100F5000FB4F40833093BE042093BD0402C08091B8
:100F6000CE00FF91EF919F918F914F913F912F91E3
:100F70000F900BBE0F900FBE0F901F901895089505
:100F80001F920F920FB60F920BB60F9211242F9350
:100F90003F934F938F939F93EF93FF938091D00054
:100FA00082FD1DC04091D600209145053091460537
:100FB0002F5F3F4F2F733070809147059091480508
:100FC0002817390771F0E0914505F0914605EB5F70
:100FD000FA4F4083309346052093450502C0809127
:100FE000D600FF91EF919F918F914F913F912F915B
:100FF0000F900BBE0F900FBE0F901F901895089585
:101000001F920F920FB60F920BB60F9211242F93CF
:101010003F934F938F939F93EF93FF938091300172
:1010200082FD1DC0409136012091CD053091CE0545
:101030002F5F3F4F2F7330708091CF059091D00577
:101040002817390771F0E091CD05F091CE05E357EF
:10105000FA4F40833093CE052093CD0502C0809196
:101060003601FF91EF919F918F914F913F912F9179
:101070000F900BBE0F900FBE0F901F901895E09130
:101080002106F0912206E05CFF4F81919191208131
:101090003181805C9F4F821B930B60E470E0B3D47E
:1010A000892B09F095D8E0914306F0914406E05C65
:1010B000FF4F8191919120813181805C9F4F821BF4
:1010C000930B60E470E09FD4892B09F018DFE09166
:1010D0006506F0916606E05CFF4F81919191208159
:1010E0003181805C9F4F821B930B60E470E08BD456
:1010F000892B09F044DFE0918706F0918806E05CD7
:10110000FF4F8191919120813181805C9F4F821BA3
:10111000930B60E470E077D4892B09F070CF0895C9
:101120001F920F920FB60F920BB60F9211242F93AE
:101130003F938F939F93EF93FF9320917904309186
:101140007A0480917B0490917C042817390731F44C
:101150008091C1008F7D8093C10014C0E0917B0419
:10116000F0917C04E75CFB4F208180917B0490919F
:101170007C0401968F73907090937C0480937B0421
:101180002093C600FF91EF919F918F913F912F91F6
:101190000F900BBE0F900FBE0F901F9018951F92CF
:1011A0000F920FB60F920BB60F9211242F933F930D
:1011B0008F939F93EF93FF93209101053091020548
:1011C00080910305909104052817390731F4809127
:1011D000C9008F7D8093C90014C0E0910305F09190
:1011E0000405EF53FB4F2081809103059091040586
:1011F00001968F739070909304058093030520935C
:10120000CE00FF91EF919F918F913F912F910F9081
:101210000BBE0F900FBE0F901F9018951F920F924C
:101220000FB60F920BB60F9211242F933F938F930B
:101230009F93EF93FF932091890530918A058091C8
:101240008B0590918C052817390731F48091D100D6
:101250008F7D8093D10014C0E0918B05F0918C05B7
:10126000E75BFA4F208180918B0590918C05019668
:101270008F73907090938C0580938B052093D6008C
:10128000FF91EF919F918F913F912F910F900BBE06
:101290000F900FBE0F901F9018951F920F920FB6D0
:1012A0000F920BB60F9211242F933F938F939F931E
:1012B000EF93FF932091110630911206809113064F
:1012C000909114062817390731F4809131018F7DF0
:1012D0008093310114C0E0911306F0911406EF528F
:1012E000FA4F2081809113069091140601968F7316
:1012F0009070909314068093130620933601FF910B
:10130000EF919F918F913F912F910F900BBE0F9076
:101310000FBE0F901F901895AF92BF92DF92EF9281
:10132000FF920F931F93CF93DF93EC017A018B0110
:10133000DD24403081EE580780E0680780E07807C0
:1013400011F0DD24D39491E0A92EB12CEC89FD8914
:10135000DD2069F0C50108A002C0880F991F0A941A
:10136000E2F7808360E079E08DE390E005C01082D1
:1013700060E874E88EE190E0A801970157D321500E
:10138000304040405040569547953795279580E12D
:101390002030380720F0DD2011F0DD24D7CFE88998
:1013A000F9893083EA89FB89208319A2EE89FF89B4
:1013B000408121E030E0C9010C8C02C0880F991FE8
:1013C0000A94E2F7482B4083EE89FF894081C901E6
:1013D0000D8C02C0880F991F0A94E2F7482B4083B6
:1013E000EE89FF894081C9010E8C02C0880F991FC8
:1013F0000A94E2F7482B4083EE89FF8980810F8CA5
:1014000002C0220F331F0A94E2F72095282320837D
:10141000DF91CF911F910F91FF90EF90DF90BF90E0
:10142000AF900895AF92BF92CF92DF92EF92FF926A
:101430000F931F93CF93DF93EC017A018B01C22EA0
:10144000DD24403081EE580780E0680780E07807AF
:1014500011F0DD24D39471E0A72EB12CEC89FD8925
:10146000DD2069F0C50108A002C0880F991F0A9409
:10147000E2F7808360E079E08DE390E005C01082C0
:1014800060E874E88EE190E0A8019701CFD2215086
:10149000304040405040569547953795279580E11C
:1014A0002030380720F0DD2011F0DD24D7CFE88987
:1014B000F9893083EA89FB892083E88DF98DC08220
:1014C000EE89FF89408121E030E0C9010C8C02C027
:1014D000880F991F0A94E2F7482B4083EE89FF8911
:1014E0004081C9010D8C02C0880F991F0A94E2F750
:1014F000482B4083EE89FF894081C9010E8C02C0D0
:10150000880F991F0A94E2F7482B4083EE89FF89E0
:1015100080810F8C02C0220F331F0A94E2F72095BE
:1015200028232083DF91CF911F910F91FF90EF909F
:10153000DF90CF90BF90AF900895DC011C96ED91A5
:10154000FC911D97E05CFF4F819191912081318149
:10155000805C9F4F821B930B60E470E054C2DC01FF
:101560001C96ED91FC911D97E05CFF4F208131812D
:10157000E054F040DF01AE5BBF4F8D919C9111971D
:101580002817390719F42FEF3FEF07C08D919C9171
:10159000E80FF91F8081282F30E0C9010895DC0190
:1015A0001C96ED91FC911D97E05CFF4F20813181ED
:1015B000E054F040DF01AE5BBF4F8D919C911197DD
:1015C0002817390719F42FEF3FEF10C08D919C9128
:1015D0001197E80FF91F20818D919C911197019629
:1015E0008F73907011969C938E9330E0C90108958B
:1015F000DC0191968C919197882339F05496ED9166
:10160000FC915597808186FFF9CF91961C920895A1
:10161000CF93DF93EC01EE85FF85E05CFF4F2081E7
:101620003181E054F0402F5F3F4F2F733070DF0166
:10163000AE5BBF4F8D919C91119728173907D1F35D
:10164000E05CFF4F80819181E054F040E80FF91F8A
:101650006083EE85FF85E05CFF4F31832083EE8958
:10166000FF89208181E090E00F8C02C0880F991FD4
:101670000A94E2F7282B208381E089A3EC89FD8975
:1016800080818064808381E090E0DF91CF91089534
:101690001F93109218061092170628EE33E040E0D0
:1016A00050E02093190630931A0640931B0650937E
:1016B0001C066CE372E0709316066093150685EFC6
:1016C00093E0909322068093210689E394E090931F
:1016D00024068093230685EC90E090932606809361
:1016E000250684EC90E0909328068093270680ECF2
:1016F00090E090932A068093290681EC90E09093E5
:101700002C0680932B0682EC90E090932E0680931B
:101710002D0686EC90E09093300680932F0614E01F
:1017200010933106B3E0B0933206A7E0A0933306DE
:10173000F5E0F0933406E1E0E093350610923A06C6
:101740001092390620933B0630933C0640933D06A9
:1017500050933E0670933806609337068DE794E009
:10176000909344068093430681EC94E09093460660
:10177000809345068DEC90E0909348068093470651
:101780008CEC90E090934A068093490688EC90E0B8
:1017900090934C0680934B0689EC90E090934E0614
:1017A00080934D068AEC90E09093500680934F060C
:1017B0008EEC90E09093520680935106109353065E
:1017C000B0935406A0935506F0935606E09357063F
:1017D00010925C0610925B0620935D0630935E06C5
:1017E00040935F065093600670935A0660935906C3
:1017F00085E095E0909366068093650689E495E020
:10180000909368068093670685ED90E090936A0652
:101810008093690684ED90E090936C0680936B064C
:1018200080ED90E090936E0680936D0681ED90E0E0
:101830009093700680936F0682ED90E0909372060D
:101840008093710686ED90E0909374068093730602
:1018500010937506B0937606A0937706F0937806FA
:10186000E093790610927E0610927D0620937F0603
:1018700030938006409381065093820670937C06D5
:1018800060937B068DE895E09093880680938706A9
:1018900081ED95E090938A068093890685E391E037
:1018A00090938C0680938B0684E391E090938E0650
:1018B00080938D0680E391E09093900680938F064D
:1018C00081E391E0909392068093910682E391E008
:1018D000909394068093930686E391E09093960606
:1018E0008093950610939706B0939806A093990657
:1018F000F0939A06E0939B061F9108950895CF9365
:10190000DF935CDAFBDF0E94F901CFE3D8E00CD96A
:101910002097E9F3B4DBFBCFCF92DF92EF92FF92F7
:101920000F931F93CF93DF937C016B018A01C0E07B
:10193000D0E00FC0D6016D916D01D701ED91FC9102
:101940000190F081E02DC7011995C80FD91F0150F2
:1019500010400115110571F7CE01DF91CF911F9154
:101960000F91FF90EF90DF90CF900895EF92FF924C
:101970000F931F938C01DC01ED91FC910190F0819C
:10198000E02D6DE019957C01D801ED91FC9101905D
:10199000F081E02DC8016AE019959C012E0D3F1DD4
:1019A000C9011F910F91FF90EF900895CF93DF939E
:1019B000EC016115710519F420E030E00FC0DB0186
:1019C0000D900020E9F71197A61BB70BE881F9816C
:1019D0000280F381E02DAD0119959C01C901DF91D1
:1019E000CF910895EF92FF920F931F937C01DEDF5A
:1019F0008C01C701BBDF080F191FC8011F910F9190
:101A0000FF90EF90089597FB092E07260AD077FDE7
:101A100004D02ED006D000201AF4709561957F4F27
:101A20000895F6F7909581959F4F0895A1E21A2E9B
:101A3000AA1BBB1BFD010DC0AA1FBB1FEE1FFF1F72
:101A4000A217B307E407F50720F0A21BB30BE40BC2
:101A5000F50B661F771F881F991F1A9469F7609509
:101A60007095809590959B01AC01BD01CF010895C3
:101A7000AA1BBB1B51E107C0AA1FBB1FA617B707B4
:101A800010F0A61BB70B881F991F5A95A9F78095D0
:101A90009095BC01CD010895EE0FFF1F0590F491C4
:081AA000E02D1994F894FFCF2A
:101AA800666C616766616C736500666C6167747209
:101AB800756500FFFF0402000000011000100122FC
:101AC800ED08005100000000ED0801500001000081
:101AD80001FFFF040100000000000000080B8C0C4F
:081AE8009D0ACF0AAF0AF80ABB
:00000001FF
