:1000000072C000009DC000009BC0000099C00000AD
:1000100097C0000095C0000093C0000091C0000090
:100020008FC000004EC2000079C20000A4C20000D0
:1000300087C0000085C0000083C0000081C00000B0
:100040007FC000007DC000007BC0000079C00000C0
:1000500077C0000075C0000073C00000B9C2000086
:100060006FC00000C7C3000015C5000069C00000D4
:1000700067C0000065C0000063C0000061C00000F0
:100080005FC000005DC000005BC0000059C0000000
:10009000F1C300003EC5000053C0000051C0000085
:1000A0004FC000004DC000004BC0000049C0000020
:1000B00047C0000045C0000043C0000041C0000030
:1000C0003FC000003DC000003BC0000013C4000062
:1000D0005FC5000035C000004DC4000098C5000099
:1000E0002FC00000770711241FBECFEFD1E2DEBF83
:1000F000CDBF00E00CBF12E0A0E0B2E0EAE6F2E122
:1001000000E00BBF02C007900D92A232B107D9F7F1
:100110001BBE15E0A2E2B2E001C01D92A832B107F9
:10012000E1F710E0C6EED0E004C02297FE010E9485
:100130002F09C43ED107C9F70E94AE080C943309B9
:100140005FCF8F929F92AF92BF92CF92DF92EF924A
:10015000FF920F931F93CF93DF93EC01062F7A0149
:1001600003C084EE94E04AD684EE94E015D61816C7
:100170001906BCF375D24B015C0110E06701EE2457
:10018000FF2484EE94E008D6892B41F084EE94E0BD
:1001900035D6FE01E10FF11D80831F5F011751F07D
:1001A0005FD2681979098A099B096C157D058E054E
:1001B0009F0538F3812FDF91CF911F910F91FF9011
:1001C000EF90DF90CF90BF90AF909F908F90089569
:1001D00084EE94E040E855E260E070E057C5F8DF57
:1001E00080EA94E040E855E260E070E04FC5EF92AD
:1001F000FF920F931F93CF93DF938C01C0E0D0E069
:10020000E62EFF2412C0F8016081772767FD709504
:1002100084EE94E02CD6F80161918F01772767FD79
:10022000709580EA94E023D62196CE15DF055CF325
:10023000DF91CF911F910F91FF90EF900895409122
:1002400010024F5FAAE2B2E020E030E090E0F90156
:10025000E050FE4F80818C932230310519F4409399
:100260002C0205C02730310511F4909331028D9195
:1002700098272F5F3F4F2830310549F7909332027E
:100280008AE292E068E0B3DF809110028F5F809392
:1002900010020895EF92FF920F931F93DF93CF9375
:1002A000CDB7DEB72A970FB6F894DEBF0FBECDBF2D
:1002B000C6DF8E010F5F1F4FC80168E048E853E1B9
:1002C00040DF863080F07801E80EF11C09C0F801AB
:1002D00061918F01772767FD709580EA94E0C7D51B
:1002E0000E151F05A1F72A960FB6F894DEBF0FBEB4
:1002F000CDBFCF91DF911F910F91FF90EF900895A7
:10030000DF92EF92FF920F931F93DF93CF93CDB7BE
:10031000DEB72A970FB6F894DEBF0FBECDBF582FB9
:1003200040911002A2E2B2E020E030E090E0F9015A
:10033000E85FFD4F80818C932230310519F44093A2
:1003400024020BC02530310519F45093270205C053
:100350002730310511F4909329028D9198272F5F52
:100360003F4F2830310519F79093320282E292E034
:1003700068E03DDF809110028F5F809310028E0154
:100380000F5F1F4FC80168E048E853E1DADE8630AE
:10039000B8F0DC807801E80EF11C09C0F801619129
:1003A0008F01772767FD709580EA94E060D50E1580
:1003B0001F05A1F7F1E2DF1619F089E2D81609F45A
:1003C00069DF2A960FB6F894DEBF0FBECDBFCF917E
:1003D000DF911F910F91FF90EF90DF90089581E0E2
:1003E00090E08EDF68EE73E080E090E047C10F930D
:1003F0001F93CF93DF93FC01738D76957170A68563
:10040000B7859585772329F08C91892309F454C009
:1004100004C08C91892309F04FC08389948920E01E
:1004200001972FEF8F3F9207D9F7C589D689A68507
:10043000B785158560E031E040E050E000E0CE0196
:10044000202F01972FEF8F3F9207D9F78C918123AF
:1004500011F0632B03C0832F80956823330F4F5F08
:100460005F4F4830510559F78789908D20E00197FB
:100470002FEF8F3F9207D9F7711160958091750228
:100480002091760290E001968F73907030E0821791
:10049000930779F0E0917502F0E0EB5CFD4F60832B
:1004A0008091750290E001968F7390708093750231
:1004B00003C0838D8160838FDF91CF911F910F9156
:1004C00008951F920F920FB60F920BB60F92112440
:1004D0002F933F934F935F936F937F938F939F934C
:1004E000AF93BF93EF93FF938091330290913402C7
:1004F000009709F07CDFFF91EF91BF91AF919F9141
:100500008F917F916F915F914F913F912F910F90BC
:100510000BBE0F900FBE0F901F9018951F920F9259
:100520000FB60F920BB60F9211242F933F934F9358
:100530005F936F937F938F939F93AF93BF93EF934B
:10054000FF938091330290913402009709F04FDFBE
:10055000FF91EF91BF91AF919F918F917F916F919B
:100560005F914F913F912F910F900BBE0F900FBE57
:100570000F901F9018951F920F920FB60F920BB607
:100580000F9211242F933F934F935F936F937F9319
:100590008F939F93AF93BF93EF93FF938091330219
:1005A00090913402009709F022DFFF91EF91BF9103
:1005B000AF919F918F917F916F915F914F913F91FB
:1005C0002F910F900BBE0F900FBE0F901F9018959C
:1005D0001F920F920FB60F9211242F933F938F9378
:1005E0009F93AF93BF9380917B0290917C02A091E7
:1005F0007D02B0917E0230917F020196A11DB11D56
:10060000232F2D5F2D3720F02D570196A11DB11DF1
:1006100020937F0280937B0290937C02A0937D02C3
:10062000B0937E028091770290917802A091790236
:10063000B0917A020196A11DB11D8093770290932B
:100640007802A0937902B0937A02BF91AF919F9103
:100650008F913F912F910F900FBE0F901F90189583
:100660008FB7F89420917B0230917C0240917D02FB
:1006700050917E028FBFB901CA0108959B01AC0160
:100680007FB7F8948091770290917802A0917902D7
:10069000B0917A0266B5A89B05C06F3F19F001962C
:1006A000A11DB11D7FBFBA2FA92F982F8827860FB4
:1006B000911DA11DB11D62E0880F991FAA1FBB1FCC
:1006C0006A95D1F7BC012DC0FFB7F89480917702ED
:1006D00090917802A0917902B0917A02E6B5A89B38
:1006E00005C0EF3F19F00196A11DB11DFFBFBA2F44
:1006F000A92F982F88278E0F911DA11DB11DE2E013
:10070000880F991FAA1FBB1FEA95D1F7861B970B6D
:10071000885E9340C8F221503040404050406851BC
:100720007C4F211531054105510571F608957894E6
:1007300084B5826084BD84B5816084BD85B58260E6
:1007400085BD85B5816085BDEEE6F0E08081816084
:100750008083E1E8F0E01082808182608083808184
:1007600081608083E0E8F0E0808181608083E1EB5C
:10077000F0E0808184608083E0EBF0E08081816044
:100780008083E1E9F0E08081826080838081816004
:100790008083E0E9F0E0808181608083E1EAF0E03D
:1007A000808182608083808181608083E0EAF0E0E4
:1007B000808181608083E1E2F1E0808182608083DA
:1007C000808181608083E0E2F1E0808181608083CC
:1007D000EAE7F0E0808184608083808182608083AA
:1007E0008081816080838081806880831092C100D5
:1007F000089508951F920F920FB60F920BB60F92A5
:1008000011242F933F934F938F939F93EF93FF93D5
:100810008091C00082FD1DC04091C6002091C002A1
:100820003091C1022F5F3F4F2F7330708091C20211
:100830009091C3022817390771F0E091C002F0913E
:10084000C102E058FD4F40833093C1022093C002A3
:1008500002C08091C600FF91EF919F918F914F91BF
:100860003F912F910F900BBE0F900FBE0F901F90D6
:10087000189508951F920F920FB60F920BB60F9214
:1008800011242F933F934F938F939F93EF93FF9355
:100890008091C80082FD1DC04091CE002091480388
:1008A000309149032F5F3F4F2F73307080914A037F
:1008B00090914B032817390771F0E0914803F091AC
:1008C0004903E85FFC4F408330934903209348037A
:1008D00002C08091CE00FF91EF919F918F914F9137
:1008E0003F912F910F900BBE0F900FBE0F901F9056
:1008F000189508951F920F920FB60F920BB60F9294
:1009000011242F933F934F938F939F93EF93FF93D4
:100910008091D00082FD1DC04091D6002091D0036F
:100920003091D1032F5F3F4F2F7330708091D203EE
:100930009091D3032817390771F0E091D003F0911B
:10094000D103E057FC4F40833093D1032093D00371
:1009500002C08091D600FF91EF919F918F914F91AE
:100960003F912F910F900BBE0F900FBE0F901F90D5
:10097000189508951F920F920FB60F920BB60F9213
:1009800011242F933F934F938F939F93EF93FF9354
:100990008091300182FD1DC04091360120915804A4
:1009A000309159042F5F3F4F2F73307080915A045C
:1009B00090915B042817390771F0E0915804F09189
:1009C0005904E85EFB4F4083309359042093580448
:1009D00002C080913601FF91EF919F918F914F91CD
:1009E0003F912F910F900BBE0F900FBE0F901F9055
:1009F0001895E091AC04F091AD04E05CFF4F81915B
:100A0000919120813181805C9F4F821B930B60E428
:100A100070E0DAD3892B09F0ECDEE091CE04F0919E
:100A2000CF04E05CFF4F8191919120813181805C06
:100A30009F4F821B930B60E470E0C6D3892B09F0B3
:100A400018DFE091F004F091F104E05CFF4F819138
:100A5000919120813181805C9F4F821B930B60E4D8
:100A600070E0B2D3892B09F044DFE0911205F091D8
:100A70001305E05CFF4F8191919120813181805C71
:100A80009F4F821B930B60E470E09ED3892B09F08B
:100A900070CF08951F920F920FB60F920BB60F9260
:100AA00011242F933F938F939F93EF93FF93209164
:100AB00004033091050380910603909107032817E2
:100AC000390731F48091C1008F7D8093C10014C03B
:100AD000E0910603F0910703EC53FD4F20818091D4
:100AE00006039091070301968F739070909307030C
:100AF000809306032093C600FF91EF919F918F9101
:100B00003F912F910F900BBE0F900FBE0F901F9033
:100B100018951F920F920FB60F920BB60F921124D9
:100B20002F933F938F939F93EF93FF9320918C0389
:100B300030918D0380918E0390918F032817390790
:100B400031F48091C9008F7D8093C90014C0E09179
:100B50008E03F0918F03E45BFC4F208180918E0324
:100B600090918F0301968F73907090938F03809371
:100B70008E032093CE00FF91EF919F918F913F9133
:100B80002F910F900BBE0F900FBE0F901F901895D6
:100B90001F920F920FB60F920BB60F9211242F9344
:100BA0003F938F939F93EF93FF9320911404309181
:100BB000150480911604909117042817390731F411
:100BC0008091D1008F7D8093D10014C0E0911604F4
:100BD000F0911704EC52FC4F208180911604909103
:100BE000170401968F7390709093170480931604E6
:100BF0002093D600FF91EF919F918F913F912F917C
:100C00000F900BBE0F900FBE0F901F9018951F9264
:100C10000F920FB60F920BB60F9211242F933F93A2
:100C20008F939F93EF93FF9320919C0430919D04A9
:100C300080919E0490919F042817390731F4809188
:100C400031018F7D8093310114C0E0919E04F091B9
:100C50009F04E45AFB4F208180919E0490919F0451
:100C600001968F73907090939F0480939E042093BD
:100C70003601FF91EF919F918F913F912F910F90AE
:100C80000BBE0F900FBE0F901F901895AF92BF92A2
:100C9000DF92EF92FF920F931F93CF93DF93EC01BC
:100CA0007A018B01DD24403081EE580780E068072F
:100CB00080E0780711F0DD24D39491E0A92EB12CC7
:100CC000EC89FD89DD2069F0C50108A002C0880F0C
:100CD000991F0A94E2F7808360E079E08DE390E069
:100CE00005C0108260E874E88EE190E0A8019701E9
:100CF0007ED2215030404040504056954795379520
:100D0000279580E12030380720F0DD2011F0DD2428
:100D1000D7CFE889F9893083EA89FB89208319A232
:100D2000EE89FF89408121E030E0C9010C8C02C0CE
:100D3000880F991F0A94E2F7482B4083EE89FF89B8
:100D40004081C9010D8C02C0880F991F0A94E2F7F7
:100D5000482B4083EE89FF894081C9010E8C02C077
:100D6000880F991F0A94E2F7482B4083EE89FF8988
:100D700080810F8C02C0220F331F0A94E2F7209566
:100D800028232083DF91CF911F910F91FF90EF9047
:100D9000DF90BF90AF900895DC011C96ED91FC911F
:100DA0001D97E05CFF4F8191919120813181805CA2
:100DB0009F4F821B930B60E470E006C2DC011C961F
:100DC000ED91FC911D97E05CFF4F20813181E05453
:100DD000F040DF01AE5BBF4F8D919C9111972817BA
:100DE000390719F42FEF3FEF07C08D919C91E80F61
:100DF000F91F8081282F30E0C9010895DC011C967D
:100E0000ED91FC911D97E05CFF4F20813181E05412
:100E1000F040DF01AE5BBF4F8D919C911197281779
:100E2000390719F42FEF3FEF10C08D919C91119766
:100E3000E80FF91F20818D919C91119701968F7376
:100E4000907011969C938E9330E0C9010895DC0157
:100E500091968C919197882339F05496ED91FC915D
:100E60005597808186FFF9CF91961C920895CF9374
:100E7000DF93EC01EE85FF85E05CFF4F208131813F
:100E8000E054F0402F5F3F4F2F733070DF01AE5BB7
:100E9000BF4F8D919C91119728173907D1F3E05CD2
:100EA000FF4F80819181E054F040E80FF91F60838B
:100EB000EE85FF85E05CFF4F31832083EE89FF895B
:100EC000208181E090E00F8C02C0880F991F0A9466
:100ED000E2F7282B208381E089A3EC89FD898081BA
:100EE0008064808381E090E0DF91CF9108951F932B
:100EF0001092A3041092A20428EE33E040E050E0E8
:100F00002093A4043093A5044093A6045093A7040F
:100F100065E172E07093A1046093A00480E892E020
:100F20009093AD048093AC0484EC92E09093AF0472
:100F30008093AE0485EC90E09093B1048093B0046C
:100F400084EC90E09093B3048093B20480EC90E042
:100F50009093B5048093B40481EC90E09093B7042F
:100F60008093B60482EC90E09093B9048093B80427
:100F700086EC90E09093BB048093BA0414E0109345
:100F8000BC04B3E0B093BD04A7E0A093BE04F5E0B9
:100F9000F093BF04E1E0E093C0041092C504109206
:100FA000C4042093C6043093C7044093C8045093EC
:100FB000C9047093C3046093C20488E093E09093E3
:100FC000CF048093CE048CE493E09093D10480937B
:100FD000D0048DEC90E09093D3048093D2048CECF9
:100FE00090E09093D5048093D40488EC90E09093A3
:100FF000D7048093D60489EC90E09093D904809331
:10100000D8048AEC90E09093DB048093DA048EECB1
:1010100090E09093DD048093DC041093DE04B093A1
:10102000DF04A093E004F093E104E093E204109263
:10103000E7041092E6042093E8043093E904409317
:10104000EA045093EB047093E5046093E40480E9B0
:1010500093E09093F1048093F00484ED93E09093F7
:10106000F3048093F20485ED90E09093F50480936F
:10107000F40484ED90E09093F7048093F60480EDFF
:1010800090E09093F9048093F80481ED90E09093C0
:10109000FB048093FA0482ED90E09093FD0480932A
:1010A000FC0486ED90E09093FF048093FE0410937F
:1010B0000005B0930105A0930205F0930305E093AA
:1010C0000405109209051092080520930A05309333
:1010D0000B0540930C0550930D0570930705609325
:1010E000060588E194E090931305809312058CE542
:1010F00094E0909315058093140585E391E0909317
:1011000017058093160584E391E090931905809369
:10111000180580E391E090931B0580931A0581E305
:1011200091E090931D0580931C0582E391E09093DC
:101130001F0580931E0586E391E09093210580931F
:10114000200510932205B0932305A0932405F09366
:101150002505E09326051F9108950895CF93DF9309
:10116000E6DAFBDF3CD8C9EFD4E039D92097E9F3C0
:1011700040DCFBCFCF92DF92EF92FF920F931F9351
:10118000CF93DF937C016B018A01C0E0D0E00FC0F8
:10119000D6016D916D01D701ED91FC910190F08127
:1011A000E02DC7011995C80FD91F01501040011536
:1011B000110571F7CE01DF91CF911F910F91FF9033
:1011C000EF90DF90CF90089597FB092E07260AD065
:1011D00077FD04D02ED006D000201AF470956195CA
:1011E0007F4F0895F6F7909581959F4F0895A1E25E
:1011F0001A2EAA1BBB1BFD010DC0AA1FBB1FEE1F91
:10120000FF1FA217B307E407F50720F0A21BB30BDB
:10121000E40BF50B661F771F881F991F1A9469F757
:1012200060957095809590959B01AC01BD01CF01B3
:101230000895AA1BBB1B51E107C0AA1FBB1FA6171D
:10124000B70710F0A61BB70B881F991F5A95A9F76F
:1012500080959095BC01CD010895EE0FFF1F05907C
:0A126000F491E02D1994F894FFCFEB
:10126A00ED08005100000000ED08015000010000E7
:10127A0001000000003707BA08CC06FE06DE062782
:02128A0007005B
:00000001FF
