:1000000072C000009DC000009BC0000099C00000AD
:1000100097C0000095C0000093C0000091C0000090
:100020008FC00000E0C500000BC6000036C600000F
:1000300087C0000085C0000083C0000081C00000B0
:100040007FC000007DC000007BC0000079C00000C0
:1000500077C0000075C0000073C000004BC60000F0
:100060006FC0000058C700000C94DB0869C0000096
:1000700067C0000065C0000063C0000061C00000F0
:100080005FC000005DC000005BC0000059C0000000
:1000900082C700000C941A0953C0000051C0000030
:1000A0004FC000004DC000004BC0000049C0000020
:1000B00047C0000045C0000043C0000041C0000030
:1000C0003FC000003DC000003BC00000A4C70000CE
:1000D0000C94590935C00000DEC700000C94980943
:1000E0002FC00000930B11241FBECFEFD1E2DEBF63
:1000F000CDBF00E00CBF12E0A0E0B2E0E4EAFAE11C
:1001000000E00BBF02C007900D92AC33B107D9F7E6
:100110001BBE16E0ACE3B2E001C01D92A832B107ED
:10012000E1F710E0C6EED0E004C02297FE010E9485
:100130004C0DC43ED107C9F70E94CA0C0C94500D57
:100140005FCF873071F1883070F4833051F18430A3
:1001500028F4813031F18230C8F415C0853009F1BE
:100160008630C0F415C08B30E1F08C3028F4893033
:10017000C1F08A3098F410C08A3A99F08B3B89F02C
:100180008C3071F40EC010921C030DC082E009C0C7
:1001900084E007C086E005C088E003C08AE001C0B3
:1001A0008EEF80931C0380911C030895823459F0D4
:1001B000833428F4803439F0813439F404C0833432
:1001C00011F0843411F48093310380913103089548
:1001D000CF93DF9315C080910403C82FD0E080EA4D
:1001E00095E00E941A0BC45CDD4F88838091040364
:1001F000873C19F41092040303C08F5F80930403BB
:1002000080EA95E00E94E80A892B29F7DF91CF91D7
:100210000895AF92BF92CF92DF92EF92FF920F9329
:100220001F93CF93DF93EC018B0104C082EC95E028
:100230000E941A0B82EC95E00E94E80A1816190633
:10024000ACF3A0D55B016C01780100E010E082EC1A
:1002500095E00E94E80A892B39F082EC95E00E9433
:100260001A0B888381E00BC08DD56A197B098C0934
:100270009D096E157F058007910748F380E0DF91A7
:10028000CF911F910F91FF90EF90DF90CF90BF9093
:10029000AF9008958F929F92AF92BF92CF92DF92CC
:1002A000EF92FF920F931F93CF93DF93EC01062FF2
:1002B0007A0104C084EE95E00E941A0B84EE95E06A
:1002C0000E94E80A18161906ACF35CD54B015C01D4
:1002D00010E06701EE24FF2484EE95E00E94E80A16
:1002E000892B49F084EE95E00E941A0BFE01E10F84
:1002F000F11D80831F5F011751F044D568197909FA
:100300008A099B096C157D058E059F0528F3812FB1
:10031000DF91CF911F910F91FF90EF90DF90CF90E1
:10032000BF90AF909F908F9008958F929F92AF92C1
:10033000BF92CF92DF92EF92FF920F931F93CF93D2
:10034000DF93EC01062F7A0104C086E096E00E945C
:100350001A0B86E096E00E94E80A18161906ACF31C
:1003600011D54B015C0110E06701EE24FF2486E00B
:1003700096E00E94E80A892B49F086E096E00E9408
:100380001A0BFE01E10FF11D80831F5F011751F071
:10039000F9D4681979098A099B096C157D058E05C0
:1003A0009F0528F3812FDF91CF911F910F91FF902F
:1003B000EF90DF90CF90BF90AF909F908F90089577
:1003C00086E096E040E855E260E070E026E20C94BA
:1003D0005D0A84EE95E040E855E260E070E0E7C732
:1003E000EF92FF920F931F93CF93DF937C01C0E0B6
:1003F000D0E0062F10E00CC0F701EC0FFD1F60816C
:10040000772767FD709586E096E00E94530B219652
:10041000C017D1078CF3DF91CF911F910F91FF90FF
:10042000EF900895DF93CF93CDB7DEB72A970FB63D
:10043000F894DEBF0FBECDBF87E092E066E0D0DF6C
:10044000CE01019666E048E853E16FDF2A960FB6C9
:10045000F894DEBF0FBECDBFCF91DF910895EF922C
:10046000FF920F931F93CF93DF938C01C0E0D0E0F6
:10047000E62EFF2414C0F8016081772767FD709590
:1004800084EE95E00E94530BF80161918F0177276C
:1004900067FD709580EA95E00E94530B2196CE157A
:1004A000DF054CF3DF91CF911F910F91FF90EF90FB
:1004B0000895409123024F5FA6E2B3E020E030E0D0
:1004C00090E0F901ED5EFD4F80818C932230310583
:1004D00019F44093280305C02730310511F4909397
:1004E0002D038D9198272F5F3F4F2830310549F715
:1004F00090932E0386E293E068E0B1DF80912302BF
:100500008F5F809323020895682F772767FD70958A
:1005100082EC95E00C94530B8EE3F6CF8EE5F4CF8E
:10052000DF93CF930F92CDB7DEB78CE0EDDF8FEF87
:100530008983CE01019660ED77E06BDE8823A9F117
:100540008981873299F1883280F4833279F184325B
:1005500038F4813259F18232D0F4803221F526C04C
:10056000853221F18632B8F414C08E32F9F08F3220
:1005700038F48932D9F0893280F08A32A1F416C079
:100580008E33A1F08E3559F08F3269F40FC082E2BC
:100590000DC084E20BC086E209C088E207C081E09A
:1005A0008093320305C08EEF01C08DEF809330033E
:1005B000809130030F90CF91DF910895EF92FF92D9
:1005C0000F931F93DFD37B018C01809109039091DE
:1005D0000A03A0910B03B0910C03A8019701281BFB
:1005E000390B4A0B5B0BDA01C90180529F4BA240C9
:1005F000B04048F0E0920903F0920A0300930B0325
:1006000010930C038DDF80910D0390910E03A09148
:100610000F03B0911003A8019701281B390B4A0B57
:100620005B0BDA01C901805F964CA240B04040F0FC
:10063000E0920D03F0920E0300930F03109310034A
:100640008091110390911203A0911303B0911403B0
:10065000A8019701281B390B4A0B5B0BDA01C90172
:10066000805C9E4CA240B04040F0E0921103F092BA
:10067000120300931303109314031F910F91FF9023
:10068000EF90089582EC95E040E855E260E070E07C
:1006900026E213D760ED77E080E090E081D382E03E
:1006A00033DF68EE73E080E090E07AD38EE52CDFF4
:1006B00068EE73E080E090E073C3E4DF81DE89DE02
:1006C00080EA95E040E855E260E070E070C6EF92A5
:1006D000FF920F931F93CF93DF937C01C0E0D0E094
:1006E000062F10E00BC0F701EC0FFD1F608177278C
:1006F00067FD709580EA95E0D6D72196C017D1079F
:1007000094F3DF91CF911F910F91FF90EF90089597
:10071000482F20E030E090E070E012C02430310536
:1007200019F44093040205C02630310511F490936A
:100730000602F901E050FE4F808198272F5F3F4F5E
:10074000261737075CF39093150380E092E067E08B
:10075000BECFDF93CF93CDB7DEB72A970FB6F8940D
:10076000DEBF0FBECDBF482FA6E1B3E020E030E0F2
:1007700090E0F901E35FFD4F80818C9324303105D7
:1007800019F440931A0305C02530310511F49093F4
:100790001B038D9198272F5F3F4F2630310549F776
:1007A00090931D0386E193E066E01ADECE01019688
:1007B00066E048E853E1B9DD863018F08C81C1DC91
:1007C00001C08DEF67E0A4DF2A960FB6F894DEBF74
:1007D0000FBECDBFCF91DF910895482F20E030E0CC
:1007E00090E070E012C02430310519F440932802E3
:1007F00005C02630310511F490932A02F901EC5D11
:10080000FD4F808198272F5F3F4F261737075CF3F6
:1008100090932F0384E292E067E059CFDF93CF9368
:100820000F92CDB7DEB780913203882321F178DEB5
:100830008E3F59F471DE8FEF8983CE01019660E21D
:100840007EE4E7DC882321F40AC067E0C6DF13C03A
:100850008981813841F4AADC67E0BFDF04C08DEFF5
:1008600067E0BBDF5BDE89818F3F19F09FDC82E0B0
:100870004BDE109232030F90CF91DF910895EF92EB
:10088000FF920F931F93DF93CF93CDB7DEB72A97D5
:100890000FB6F894DEBF0FBECDBF0BDE8E010F5F2B
:1008A0001F4FC80168E048E853E1F4DC863080F06F
:1008B0007801E80EF11C09C0F80161918F017727DA
:1008C00067FD709580EA95E0EED60E151F05A1F73D
:1008D0002A960FB6F894DEBF0FBECDBFCF91DF9141
:1008E0001F910F91FF90EF900895DF92EF92FF928A
:1008F0000F931F93DF93CF93CDB7DEB72A970FB631
:10090000F894DEBF0FBECDBF582F40912302AEE159
:10091000B3E020E030E090E0F901E55EFD4F80813A
:100920008C932230310519F4409320030BC02530FD
:10093000310519F45093230305C02730310511F414
:10094000909325038D9198272F5F3F4F28303105D5
:1009500019F790932E038EE193E068E080DD80919B
:1009600023028F5F809323028E010F5F1F4FC80108
:1009700068E048E853E18EDC8630B8F0DC8078012E
:10098000E80EF11C09C0F80161918F01772767FD1E
:10099000709580EA95E087D60E151F05A1F7F1E264
:1009A000DF1619F089E2D81609F469DF2A960FB626
:1009B000F894DEBF0FBECDBFCF91DF911F910F9195
:1009C000FF90EF90DF900895DDD160931103709355
:1009D0001203809313039093140360930D03709399
:1009E0000E0380930F039093100360930903709399
:1009F0000A0380930B0390930C03E0910603F0E04D
:100A0000E45CFD4F248185819381923059F09330CD
:100A100089F09130B1F4213019F0223091F401C005
:100A2000FDCE7ECD213019F0223059F402C090E085
:100A300090CEF8CC223021F0233019F490E055CF3D
:100A40001ECF08959091050380910403981709F42F
:100A50005DC0E92FF0E0E45CFD4F4081973C19F464
:100A60001092050303C09F5F9093050380910803D4
:100A70008230E9F0833030F4882351F0813009F07E
:100A800045C00AC08330E9F0843009F03FC024C07B
:100A90004F3FE1F581E01DC04F3F81F482E080933C
:100AA00008038091050382508093060308954093C4
:100AB000070383E080930803453140F11092080357
:100AC0000895809107038150809307038130F1F4EA
:100AD00084E0809308030895E09106032E2F2E5F93
:100AE000F0E0E45CFD4F3281320F90E007C0E22F6E
:100AF000F0E0E45CFD4F8081980F2F5F2317B9F77A
:100B00009095941709F460DF1092080308959ADF16
:100B100055CD0F931F93CF93DF93FC01738D769583
:100B20007170A685B7859585772329F08C918923E7
:100B300009F454C004C08C91892309F04FC0838903
:100B4000948920E001972FEF8F3F9207D9F7C5894D
:100B5000D689A685B785158560E031E040E050E094
:100B600000E0CE01202F01972FEF8F3F9207D9F79A
:100B70008C91812311F0632B03C0832F8095682310
:100B8000330F4F5F5F4F4830510559F78789908D7C
:100B900020E001972FEF8F3F9207D9F771116095F1
:100BA000809175032091760390E001968F73907089
:100BB00030E08217930779F0E0917503F0E0EB5C89
:100BC000FC4F60838091750390E001968F73907065
:100BD0008093750303C0838D8160838FDF91CF91F4
:100BE0001F910F9108951F920F920FB60F920BB69F
:100BF0000F9211242F933F934F935F936F937F93A3
:100C00008F939F93AF93BF93EF93FF9380913303A1
:100C100090913403009709F07CDFFF91EF91BF9131
:100C2000AF919F918F917F916F915F914F913F9184
:100C30002F910F900BBE0F900FBE0F901F90189525
:100C40001F920F920FB60F920BB60F9211242F9393
:100C50003F934F935F936F937F938F939F93AF9344
:100C6000BF93EF93FF9380913303909134030097E8
:100C700009F04FDFFF91EF91BF91AF919F918F915D
:100C80007F916F915F914F913F912F910F900BBE8C
:100C90000F900FBE0F901F9018951F920F920FB6D6
:100CA0000F920BB60F9211242F933F934F935F93A4
:100CB0006F937F938F939F93AF93BF93EF93FF9324
:100CC0008091330390913403009709F022DFFF9164
:100CD000EF91BF91AF919F918F917F916F915F91B4
:100CE0004F913F912F910F900BBE0F900FBE0F9021
:100CF0001F9018951F920F920FB60F9211242F93E9
:100D00003F938F939F93AF93BF9380917B03909179
:100D10007C03A0917D03B0917E0330917F03019607
:100D2000A11DB11D232F2D5F2D3720F02D570196CA
:100D3000A11DB11D20937F0380937B0390937C03BF
:100D4000A0937D03B0937E03809177039091780305
:100D5000A0917903B0917A030196A11DB11D8093F2
:100D6000770390937803A0937903B0937A03BF91AC
:100D7000AF919F918F913F912F910F900FBE0F9048
:100D80001F9018958FB7F89420917B0330917C03C6
:100D900040917D0350917E038FBFB901CA01089530
:100DA0009B01AC017FB7F894809177039091780311
:100DB000A0917903B0917A0366B5A89B05C06F3FF7
:100DC00019F00196A11DB11D7FBFBA2FA92F982F31
:100DD0008827860F911DA11DB11D62E0880F991F04
:100DE000AA1FBB1F6A95D1F7BC012DC0FFB7F894AD
:100DF0008091770390917803A0917903B0917A0361
:100E0000E6B5A89B05C0EF3F19F00196A11DB11DE5
:100E1000FFBFBA2FA92F982F88278E0F911DA11DD4
:100E2000B11DE2E0880F991FAA1FBB1FEA95D1F7F9
:100E3000861B970B885E9340C8F22150304040409B
:100E4000504068517C4F211531054105510571F61F
:100E50000895789484B5826084BD84B5816084BD32
:100E600085B5826085BD85B5816085BDEEE6F0E023
:100E7000808181608083E1E8F0E01082808182607F
:100E80008083808181608083E0E8F0E08081816000
:100E90008083E1EBF0E0808184608083E0EBF0E030
:100EA000808181608083E1E9F0E0808182608083DD
:100EB000808181608083E0E9F0E0808181608083CF
:100EC000E1EAF0E0808182608083808181608083BC
:100ED000E0EAF0E0808181608083E1E2F1E08081FE
:100EE00082608083808181608083E0E2F1E08081A4
:100EF00081608083EAE7F0E0808184608083808184
:100F0000826080838081816080838081806880832B
:100F10001092C10008951F920F920FB60F920BB658
:100F20000F9211242F933F934F938F939F93EF939F
:100F3000FF938091C00082FD1DC04091C6002091AA
:100F4000C0033091C1032F5F3F4F2F7330708091EA
:100F5000C2039091C3032817390771F0E091C003D1
:100F6000F091C103E058FC4F40833093C1032093BC
:100F7000C00302C08091C600FF91EF919F918F91B5
:100F80004F913F912F910F900BBE0F900FBE0F907E
:100F90001F90189508951F920F920FB60F920BB6DF
:100FA0000F9211242F933F934F938F939F93EF931F
:100FB000FF938091C80082FD1DC04091CE0020911A
:100FC0004804309149042F5F3F4F2F733070809158
:100FD0004A0490914B042817390771F0E0914804B6
:100FE000F0914904E85FFB4F40833093490420931C
:100FF000480402C08091CE00FF91EF919F918F91A4
:101000004F913F912F910F900BBE0F900FBE0F90FD
:101010001F90189508951F920F920FB60F920BB65E
:101020000F9211242F933F934F938F939F93EF939E
:10103000FF938091D00082FD1DC04091D600209189
:10104000D0043091D1042F5F3F4F2F7330708091C7
:10105000D2049091D3042817390771F0E091D0049D
:10106000F091D104E057FB4F40833093D10420939B
:10107000D00402C08091D600FF91EF919F918F9193
:101080004F913F912F910F900BBE0F900FBE0F907D
:101090001F90189508951F920F920FB60F920BB6DE
:1010A0000F9211242F933F934F938F939F93EF931E
:1010B000FF938091300182FD1DC040913601209147
:1010C0005805309159052F5F3F4F2F733070809135
:1010D0005A0590915B052817390771F0E091580582
:1010E000F0915905E85EFA4F4083309359052093FB
:1010F000580502C080913601FF91EF919F918F9129
:101100004F913F912F910F900BBE0F900FBE0F90FC
:101110001F901895E091AC05F091AD05E05CFF4F94
:101120008191919120813181805C9F4F821B930B33
:1011300060E470E066D4892B09F04AD8E091CE05CE
:10114000F091CF05E05CFF4F819191912081318139
:10115000805C9F4F821B930B60E470E052D4892B1C
:1011600009F018DFE091F005F091F105E05CFF4F28
:101170008191919120813181805C9F4F821B930BE3
:1011800060E470E03ED4892B09F044DFE091120660
:10119000F0911306E05CFF4F8191919120813181A4
:1011A000805C9F4F821B930B60E470E02AD4892BF4
:1011B00009F070CF08951F920F920FB60F920BB6E1
:1011C0000F9211242F933F938F939F93EF93FF934D
:1011D0002091040430910504809106049091070445
:1011E0002817390731F48091C1008F7D8093C100A9
:1011F00014C0E0910604F0910704EC53FC4F2081E9
:10120000809106049091070401968F7390709093DB
:101210000704809306042093C600FF91EF919F91ED
:101220008F913F912F910F900BBE0F900FBE0F909B
:101230001F9018951F920F920FB60F920BB60F9238
:1012400011242F933F938F939F93EF93FF932091BC
:101250008C0430918D0480918E0490918F04281716
:10126000390731F48091C9008F7D8093C90014C083
:10127000E0918E04F0918F04E45BFB4F208180911C
:101280008E0490918F0401968F73907090938F04C9
:1012900080938E042093CE00FF91EF919F918F91C8
:1012A0003F912F910F900BBE0F900FBE0F901F908C
:1012B00018951F920F920FB60F920BB60F92112432
:1012C0002F933F938F939F93EF93FF932091140558
:1012D000309115058091160590911705281739074B
:1012E00031F48091D1008F7D8093D10014C0E091C2
:1012F0001605F0911705EC52FB4F208180911605E1
:101300009091170501968F739070909317058093B5
:1013100016052093D600FF91EF919F918F913F91F9
:101320002F910F900BBE0F900FBE0F901F9018952E
:101330001F920F920FB60F920BB60F9211242F939C
:101340003F938F939F93EF93FF9320919C05309150
:101350009D0580919E0590919F052817390731F4CE
:10136000809131018F7D8093310114C0E0919E0501
:10137000F0919F05E45AFA4F208180919E0590914B
:101380009F0501968F73907090939F0580939E05A3
:1013900020933601FF91EF919F918F913F912F9173
:1013A0000F900BBE0F900FBE0F901F901895AF922D
:1013B000BF92DF92EF92FF920F931F93CF93DF9331
:1013C000EC017A018B01DD24403081EE580780E08A
:1013D000680780E0780711F0DD24D39491E0A92E0E
:1013E000B12CEC89FD89DD2069F0C50108A002C09F
:1013F000880F991F0A94E2F7808360E079E08DE31B
:1014000090E005C0108260E874E88EE190E0A801E9
:1014100097010AD32150304040405040569547959F
:101420003795279580E12030380720F0DD2011F036
:10143000DD24D7CFE889F9893083EA89FB892083C5
:1014400019A2EE89FF89408121E030E0C9010C8CAE
:1014500002C0880F991F0A94E2F7482B4083EE8957
:10146000FF894081C9010D8C02C0880F991F0A9421
:10147000E2F7482B4083EE89FF894081C9010E8C39
:1014800002C0880F991F0A94E2F7482B4083EE8927
:10149000FF8980810F8C02C0220F331F0A94E2F76C
:1014A000209528232083DF91CF911F910F91FF90EA
:1014B000EF90DF90BF90AF900895AF92BF92CF9220
:1014C000DF92EF92FF920F931F93CF93DF93EC0184
:1014D0007A018B01C22EDD24403081EE580780E076
:1014E000680780E0780711F0DD24D39471E0A72E1F
:1014F000B12CEC89FD89DD2069F0C50108A002C08E
:10150000880F991F0A94E2F7808360E079E08DE309
:1015100090E005C0108260E874E88EE190E0A801D8
:10152000970182D221503040404050405695479517
:101530003795279580E12030380720F0DD2011F025
:10154000DD24D7CFE889F9893083EA89FB892083B4
:10155000E88DF98DC082EE89FF89408121E030E07D
:10156000C9010C8C02C0880F991F0A94E2F7482B1E
:101570004083EE89FF894081C9010D8C02C0880F2C
:10158000991F0A94E2F7482B4083EE89FF89408136
:10159000C9010E8C02C0880F991F0A94E2F7482BEC
:1015A0004083EE89FF8980810F8C02C0220F331F98
:1015B0000A94E2F7209528232083DF91CF911F9191
:1015C0000F91FF90EF90DF90CF90BF90AF90089574
:1015D000DC011C96ED91FC911D97E05CFF4F819121
:1015E000919120813181805C9F4F821B930B60E43D
:1015F00070E007C2DC011C96ED91FC911D97E05C48
:10160000FF4F20813181E054F040DF01AE5BBF4FDE
:101610008D919C9111972817390719F42FEF3FEFFF
:1016200007C08D919C91E80FF91F8081282F30E031
:10163000C9010895DC011C96ED91FC911D97E05CB9
:10164000FF4F20813181E054F040DF01AE5BBF4F9E
:101650008D919C9111972817390719F42FEF3FEFBF
:1016600010C08D919C911197E80FF91F20818D91E9
:101670009C91119701968F73907011969C938E9305
:1016800030E0C9010895DC0191968C9191978823EF
:1016900039F05496ED91FC915597808186FFF9CFF2
:1016A00091961C920895CF93DF93EC01EE85FF8510
:1016B000E05CFF4F20813181E054F0402F5F3F4FCD
:1016C0002F733070DF01AE5BBF4F8D919C911197EE
:1016D00028173907D1F3E05CFF4F80819181E054F6
:1016E000F040E80FF91F6083EE85FF85E05CFF4F57
:1016F00031832083EE89FF89208181E090E00F8C87
:1017000002C0880F991F0A94E2F7282B208381E0FA
:1017100089A3EC89FD8980818064808381E090E0E9
:10172000DF91CF9108951F931092A3051092A20507
:1017300028EE33E040E050E02093A4053093A50567
:101740004093A6055093A7056FE272E07093A10540
:101750006093A00580E893E09093AD058093AC057D
:1017600084EC93E09093AF058093AE0585EC90E018
:101770009093B1058093B00584EC90E09093B3050D
:101780008093B20580EC90E09093B5058093B4050A
:1017900081EC90E09093B7058093B60582EC90E0E1
:1017A0009093B9058093B80586EC90E09093BB05C3
:1017B0008093BA0514E01093BC05B3E0B093BD0567
:1017C000A7E0A093BE05F5E0F093BF05E1E0E0934C
:1017D000C0051092C5051092C4052093C60530932C
:1017E000C7054093C8055093C9057093C30560931E
:1017F000C20588E094E09093CF058093CE058CE4F9
:1018000094E09093D1058093D0058DEC90E0909377
:10181000D3058093D2058CEC90E09093D50580930E
:10182000D40588EC90E09093D7058093D60589EC99
:1018300090E09093D9058093D8058AEC90E090933E
:10184000DB058093DA058EEC90E09093DD058093C4
:10185000DC051093DE05B093DF05A093E005F0935F
:10186000E105E093E2051092E7051092E60520936A
:10187000E8053093E9054093EA055093EB05709332
:10188000E5056093E40580E994E09093F105809389
:10189000F00584ED94E09093F3058093F20585EDD7
:1018A00090E09093F5058093F40584ED90E090939B
:1018B000F7058093F60580ED90E09093F90580930D
:1018C000F80581ED90E09093FB058093FA0582ED99
:1018D00090E09093FD058093FC0586ED90E0909359
:1018E000FF058093FE0510930006B0930106A093B8
:1018F0000206F0930306E093040610920906109284
:10190000080620930A0630930B0640930C0650936A
:101910000D06709307066093060688E195E09093A4
:101920001306809312068CE595E09093150680933C
:10193000140685E391E0909317068093160684E3DE
:1019400091E0909319068093180680E391E09093BC
:101950001B0680931A0681E391E090931D06809305
:101960001C0682E391E090931F0680931E0686E397
:1019700091E0909321068093200610932206B09365
:101980002306A0932406F0932506E09326061F91D4
:1019900008950895CF93DF935CDAFBDF0E945D0327
:1019A000CAE8D8E0B4D82097E9F3B4DBFBCFCF92F4
:1019B000DF92EF92FF920F931F93CF93DF937C01FF
:1019C0006B018A01C0E0D0E00FC0D6016D916D01BE
:1019D000D701ED91FC910190F081E02DC70119959F
:1019E000C80FD91F015010400115110571F7CE0124
:1019F000DF91CF911F910F91FF90EF90DF90CF90EB
:101A0000089597FB092E07260AD077FD04D02ED023
:101A100006D000201AF4709561957F4F0895F6F76F
:101A2000909581959F4F0895A1E21A2EAA1BBB1B8A
:101A3000FD010DC0AA1FBB1FEE1FFF1FA217B3079A
:101A4000E407F50720F0A21BB30BE40BF50B661FB0
:101A5000771F881F991F1A9469F760957095809574
:101A600090959B01AC01BD01CF010895AA1BBB1B42
:101A700051E107C0AA1FBB1FA617B70710F0A61B8E
:101A8000B70B881F991F5A95A9F780959095BC01AF
:101A9000CD010895EE0FFF1F0590F491E02D1994EC
:041AA000F894FFCFE8
:101AA400FFFF0402000000011000110022011000D9
:101AB400100122ED08005100000000ED0801500063
:101AC40001000001FFFF04010000000000000053BA
:0C1AD4000BD70CE80A1A0BFA0A430B00AF
:00000001FF
